{
	"src/EmployerScroll.sol": {
		"EmployerScroll": {
			"abi": [
				{
					"anonymous": false,
					"inputs": [
						{
							"indexed": true,
							"internalType": "address",
							"name": "employee",
							"type": "address"
						}
					],
					"name": "AddVerifiedEmployee",
					"type": "event"
				},
				{
					"anonymous": false,
					"inputs": [
						{
							"indexed": true,
							"internalType": "address",
							"name": "previousOwner",
							"type": "address"
						},
						{
							"indexed": true,
							"internalType": "address",
							"name": "newOwner",
							"type": "address"
						}
					],
					"name": "OwnershipTransferred",
					"type": "event"
				},
				{
					"anonymous": false,
					"inputs": [
						{
							"indexed": true,
							"internalType": "bytes32",
							"name": "id",
							"type": "bytes32"
						},
						{
							"indexed": true,
							"internalType": "address",
							"name": "token",
							"type": "address"
						},
						{
							"indexed": true,
							"internalType": "address",
							"name": "employee",
							"type": "address"
						}
					],
					"name": "ProvisionEmployee",
					"type": "event"
				},
				{
					"anonymous": false,
					"inputs": [
						{
							"indexed": true,
							"internalType": "bytes32",
							"name": "id",
							"type": "bytes32"
						},
						{
							"indexed": true,
							"internalType": "uint256",
							"name": "amount",
							"type": "uint256"
						},
						{
							"indexed": true,
							"internalType": "address",
							"name": "recipient",
							"type": "address"
						}
					],
					"name": "SpendProvision",
					"type": "event"
				},
				{
					"anonymous": false,
					"inputs": [
						{
							"indexed": true,
							"internalType": "bytes32",
							"name": "id",
							"type": "bytes32"
						}
					],
					"name": "UpdateProvision",
					"type": "event"
				},
				{
					"inputs": [
						{
							"internalType": "address",
							"name": "employee",
							"type": "address"
						}
					],
					"name": "addVerifiedEmployee",
					"outputs": [],
					"stateMutability": "nonpayable",
					"type": "function"
				},
				{
					"inputs": [
						{
							"internalType": "address",
							"name": "",
							"type": "address"
						}
					],
					"name": "employeeRailgunAddr",
					"outputs": [
						{
							"internalType": "string",
							"name": "",
							"type": "string"
						}
					],
					"stateMutability": "view",
					"type": "function"
				},
				{
					"inputs": [
						{
							"internalType": "address",
							"name": "_user",
							"type": "address"
						},
						{
							"internalType": "address",
							"name": "_token",
							"type": "address"
						}
					],
					"name": "getProvisionId",
					"outputs": [
						{
							"internalType": "bytes32",
							"name": "",
							"type": "bytes32"
						}
					],
					"stateMutability": "pure",
					"type": "function"
				},
				{
					"inputs": [
						{
							"internalType": "address",
							"name": "user",
							"type": "address"
						}
					],
					"name": "isVerifiedEmployee",
					"outputs": [
						{
							"internalType": "bool",
							"name": "",
							"type": "bool"
						}
					],
					"stateMutability": "view",
					"type": "function"
				},
				{
					"inputs": [],
					"name": "owner",
					"outputs": [
						{
							"internalType": "address",
							"name": "",
							"type": "address"
						}
					],
					"stateMutability": "view",
					"type": "function"
				},
				{
					"inputs": [
						{
							"internalType": "string",
							"name": "railgunAddr",
							"type": "string"
						}
					],
					"name": "provideRailgunAddr",
					"outputs": [],
					"stateMutability": "nonpayable",
					"type": "function"
				},
				{
					"inputs": [
						{
							"internalType": "address",
							"name": "_token",
							"type": "address"
						},
						{
							"internalType": "uint256",
							"name": "_amount",
							"type": "uint256"
						},
						{
							"internalType": "address",
							"name": "_employee",
							"type": "address"
						},
						{
							"internalType": "uint256",
							"name": "_expiry",
							"type": "uint256"
						},
						{
							"internalType": "address[]",
							"name": "_allowlist",
							"type": "address[]"
						}
					],
					"name": "provisionEmployee",
					"outputs": [],
					"stateMutability": "nonpayable",
					"type": "function"
				},
				{
					"inputs": [],
					"name": "renounceOwnership",
					"outputs": [],
					"stateMutability": "nonpayable",
					"type": "function"
				},
				{
					"inputs": [
						{
							"internalType": "address",
							"name": "_token",
							"type": "address"
						},
						{
							"internalType": "uint256",
							"name": "_amount",
							"type": "uint256"
						},
						{
							"internalType": "address",
							"name": "_recipient",
							"type": "address"
						}
					],
					"name": "spendProvision",
					"outputs": [],
					"stateMutability": "nonpayable",
					"type": "function"
				},
				{
					"inputs": [
						{
							"internalType": "address",
							"name": "newOwner",
							"type": "address"
						}
					],
					"name": "transferOwnership",
					"outputs": [],
					"stateMutability": "nonpayable",
					"type": "function"
				},
				{
					"inputs": [
						{
							"internalType": "bytes32",
							"name": "_provisionId",
							"type": "bytes32"
						},
						{
							"internalType": "uint256",
							"name": "_amount",
							"type": "uint256"
						},
						{
							"internalType": "uint256",
							"name": "_expiry",
							"type": "uint256"
						},
						{
							"internalType": "address[]",
							"name": "_allowlist",
							"type": "address[]"
						},
						{
							"internalType": "address[]",
							"name": "_denylist",
							"type": "address[]"
						}
					],
					"name": "updateProvision",
					"outputs": [],
					"stateMutability": "nonpayable",
					"type": "function"
				},
				{
					"inputs": [
						{
							"internalType": "address",
							"name": "",
							"type": "address"
						}
					],
					"name": "verifiedEmployees",
					"outputs": [
						{
							"internalType": "bool",
							"name": "",
							"type": "bool"
						}
					],
					"stateMutability": "view",
					"type": "function"
				}
			],
			"devdoc": {
				"kind": "dev",
				"methods": {
					"owner()": {
						"details": "Returns the address of the current owner."
					},
					"renounceOwnership()": {
						"details": "Leaves the contract without owner. It will not be possible to call `onlyOwner` functions anymore. Can only be called by the current owner. NOTE: Renouncing ownership will leave the contract without an owner, thereby removing any functionality that is only available to the owner."
					},
					"transferOwnership(address)": {
						"details": "Transfers ownership of the contract to a new account (`newOwner`). Can only be called by the current owner."
					}
				},
				"version": 1
			},
			"evm": {
				"assembly": "    /* \"src/EmployerScroll.sol\":168:4022  contract EmployerScroll is Ownable {... */\n  mstore(0x40, 0x80)\n  callvalue\n  dup1\n  iszero\n  tag_1\n  jumpi\n  0x00\n  dup1\n  revert\ntag_1:\n  pop\n    /* \"lib/openzeppelin-contracts/contracts/access/Ownable.sol\":936:968  _transferOwnership(_msgSender()) */\n  tag_4\n    /* \"lib/openzeppelin-contracts/contracts/utils/Context.sol\":719:729  msg.sender */\n  caller\n    /* \"lib/openzeppelin-contracts/contracts/access/Ownable.sol\":936:954  _transferOwnership */\n  tag_7\n    /* \"lib/openzeppelin-contracts/contracts/access/Ownable.sol\":936:968  _transferOwnership(_msgSender()) */\n  jump\t// in\ntag_4:\n    /* \"src/EmployerScroll.sol\":168:4022  contract EmployerScroll is Ownable {... */\n  jump(tag_8)\n    /* \"lib/openzeppelin-contracts/contracts/access/Ownable.sol\":2433:2620  function _transferOwnership(address newOwner) internal virtual {... */\ntag_7:\n    /* \"lib/openzeppelin-contracts/contracts/access/Ownable.sol\":2506:2522  address oldOwner */\n  0x00\n    /* \"lib/openzeppelin-contracts/contracts/access/Ownable.sol\":2525:2531  _owner */\n  dup1\n  sload\n  sub(shl(0xa0, 0x01), 0x01)\n    /* \"lib/openzeppelin-contracts/contracts/access/Ownable.sol\":2541:2558  _owner = newOwner */\n  dup4\n  dup2\n  and\n  not(sub(shl(0xa0, 0x01), 0x01))\n  dup4\n  and\n  dup2\n  or\n  dup5\n  sstore\n    /* \"lib/openzeppelin-contracts/contracts/access/Ownable.sol\":2573:2613  OwnershipTransferred(oldOwner, newOwner) */\n  mload(0x40)\n    /* \"lib/openzeppelin-contracts/contracts/access/Ownable.sol\":2525:2531  _owner */\n  swap2\n  swap1\n  swap3\n  and\n  swap3\n  dup4\n  swap2\n    /* \"lib/openzeppelin-contracts/contracts/access/Ownable.sol\":2573:2613  OwnershipTransferred(oldOwner, newOwner) */\n  0x8be0079c531659141344cd1fd0a4f28419497f9722a3daafe3b4186f6b6457e0\n  swap2\n    /* \"lib/openzeppelin-contracts/contracts/access/Ownable.sol\":2506:2522  address oldOwner */\n  swap1\n    /* \"lib/openzeppelin-contracts/contracts/access/Ownable.sol\":2573:2613  OwnershipTransferred(oldOwner, newOwner) */\n  log3\n    /* \"lib/openzeppelin-contracts/contracts/access/Ownable.sol\":2496:2620  {... */\n  pop\n    /* \"lib/openzeppelin-contracts/contracts/access/Ownable.sol\":2433:2620  function _transferOwnership(address newOwner) internal virtual {... */\n  pop\n  jump\t// out\n    /* \"src/EmployerScroll.sol\":168:4022  contract EmployerScroll is Ownable {... */\ntag_8:\n  dataSize(sub_0)\n  dup1\n  dataOffset(sub_0)\n  0x00\n  codecopy\n  0x00\n  return\nstop\n\nsub_0: assembly {\n        /* \"src/EmployerScroll.sol\":168:4022  contract EmployerScroll is Ownable {... */\n      mstore(0x40, 0x80)\n      callvalue\n      dup1\n      iszero\n      tag_1\n      jumpi\n      0x00\n      dup1\n      revert\n    tag_1:\n      pop\n      jumpi(tag_2, lt(calldatasize, 0x04))\n      shr(0xe0, calldataload(0x00))\n      dup1\n      0x972deed6\n      gt\n      tag_15\n      jumpi\n      dup1\n      0x972deed6\n      eq\n      tag_9\n      jumpi\n      dup1\n      0xbfee766b\n      eq\n      tag_10\n      jumpi\n      dup1\n      0xc64e2ea5\n      eq\n      tag_11\n      jumpi\n      dup1\n      0xd2301c9f\n      eq\n      tag_12\n      jumpi\n      dup1\n      0xe2594b30\n      eq\n      tag_13\n      jumpi\n      dup1\n      0xf2fde38b\n      eq\n      tag_14\n      jumpi\n      0x00\n      dup1\n      revert\n    tag_15:\n      dup1\n      0x0aed32c7\n      eq\n      tag_3\n      jumpi\n      dup1\n      0x38c73aee\n      eq\n      tag_4\n      jumpi\n      dup1\n      0x405f25aa\n      eq\n      tag_5\n      jumpi\n      dup1\n      0x6821c9a3\n      eq\n      tag_6\n      jumpi\n      dup1\n      0x715018a6\n      eq\n      tag_7\n      jumpi\n      dup1\n      0x8da5cb5b\n      eq\n      tag_8\n      jumpi\n    tag_2:\n      0x00\n      dup1\n      revert\n        /* \"src/EmployerScroll.sol\":2352:3001  function updateProvision(bytes32 _provisionId, uint256 _amount, uint256 _expiry, address[] calldata _allowlist, address[] calldata _denylist) external onlyOwner {... */\n    tag_3:\n      tag_16\n      tag_17\n      calldatasize\n      0x04\n      tag_18\n      jump\t// in\n    tag_17:\n      tag_19\n      jump\t// in\n    tag_16:\n      stop\n        /* \"src/EmployerScroll.sol\":1247:1363  function isVerifiedEmployee(address user) public view returns (bool) {... */\n    tag_4:\n      tag_20\n      tag_21\n      calldatasize\n      0x04\n      tag_22\n      jump\t// in\n    tag_21:\n      sub(shl(0xa0, 0x01), 0x01)\n        /* \"src/EmployerScroll.sol\":1333:1356  verifiedEmployees[user] */\n      and\n        /* \"src/EmployerScroll.sol\":1310:1314  bool */\n      0x00\n        /* \"src/EmployerScroll.sol\":1333:1356  verifiedEmployees[user] */\n      swap1\n      dup2\n      mstore\n        /* \"src/EmployerScroll.sol\":1333:1350  verifiedEmployees */\n      0x01\n        /* \"src/EmployerScroll.sol\":1333:1356  verifiedEmployees[user] */\n      0x20\n      mstore\n      0x40\n      swap1\n      keccak256\n      sload\n      0xff\n      and\n      swap1\n        /* \"src/EmployerScroll.sol\":1247:1363  function isVerifiedEmployee(address user) public view returns (bool) {... */\n      jump\n    tag_20:\n      mload(0x40)\n        /* \"#utility.yul\":1904:1918   */\n      swap1\n      iszero\n        /* \"#utility.yul\":1897:1919   */\n      iszero\n        /* \"#utility.yul\":1879:1920   */\n      dup2\n      mstore\n        /* \"#utility.yul\":1867:1869   */\n      0x20\n        /* \"#utility.yul\":1852:1870   */\n      add\n        /* \"src/EmployerScroll.sol\":1247:1363  function isVerifiedEmployee(address user) public view returns (bool) {... */\n    tag_24:\n      mload(0x40)\n      dup1\n      swap2\n      sub\n      swap1\n      return\n        /* \"src/EmployerScroll.sol\":3007:3708  function spendProvision(address _token, uint256 _amount, address _recipient) external onlyVerifiedEmployee {... */\n    tag_5:\n      tag_16\n      tag_27\n      calldatasize\n      0x04\n      tag_28\n      jump\t// in\n    tag_27:\n      tag_29\n      jump\t// in\n        /* \"src/EmployerScroll.sol\":1077:1241  function addVerifiedEmployee(address employee) external onlyOwner() {... */\n    tag_6:\n      tag_16\n      tag_31\n      calldatasize\n      0x04\n      tag_22\n      jump\t// in\n    tag_31:\n      tag_32\n      jump\t// in\n        /* \"lib/openzeppelin-contracts/contracts/access/Ownable.sol\":1831:1932  function renounceOwnership() public virtual onlyOwner {... */\n    tag_7:\n      tag_16\n      tag_34\n      jump\t// in\n        /* \"lib/openzeppelin-contracts/contracts/access/Ownable.sol\":1201:1286  function owner() public view virtual returns (address) {... */\n    tag_8:\n        /* \"lib/openzeppelin-contracts/contracts/access/Ownable.sol\":1247:1254  address */\n      0x00\n        /* \"lib/openzeppelin-contracts/contracts/access/Ownable.sol\":1273:1279  _owner */\n      sload\n        /* \"lib/openzeppelin-contracts/contracts/access/Ownable.sol\":1201:1286  function owner() public view virtual returns (address) {... */\n      mload(0x40)\n      sub(shl(0xa0, 0x01), 0x01)\n        /* \"lib/openzeppelin-contracts/contracts/access/Ownable.sol\":1273:1279  _owner */\n      swap1\n      swap2\n      and\n        /* \"#utility.yul\":2410:2461   */\n      dup2\n      mstore\n        /* \"#utility.yul\":2398:2400   */\n      0x20\n        /* \"#utility.yul\":2383:2401   */\n      add\n        /* \"lib/openzeppelin-contracts/contracts/access/Ownable.sol\":1201:1286  function owner() public view virtual returns (address) {... */\n      tag_24\n        /* \"#utility.yul\":2264:2467   */\n      jump\n        /* \"src/EmployerScroll.sol\":3871:4020  function provideRailgunAddr(string calldata railgunAddr) external onlyVerifiedEmployee {... */\n    tag_9:\n      tag_16\n      tag_40\n      calldatasize\n      0x04\n      tag_41\n      jump\t// in\n    tag_40:\n      tag_42\n      jump\t// in\n        /* \"src/EmployerScroll.sol\":209:258  mapping(address => bool) public verifiedEmployees */\n    tag_10:\n      tag_20\n      tag_44\n      calldatasize\n      0x04\n      tag_22\n      jump\t// in\n    tag_44:\n      mstore(0x20, 0x01)\n      0x00\n      swap1\n      dup2\n      mstore\n      0x40\n      swap1\n      keccak256\n      sload\n      0xff\n      and\n      dup2\n      jump\n        /* \"src/EmployerScroll.sol\":3714:3865  function getProvisionId(address _user, address _token) public pure returns (bytes32) {... */\n    tag_11:\n      tag_47\n      tag_48\n      calldatasize\n      0x04\n      tag_49\n      jump\t// in\n    tag_48:\n      tag_50\n      jump\t// in\n    tag_47:\n      mload(0x40)\n        /* \"#utility.yul\":3480:3505   */\n      swap1\n      dup2\n      mstore\n        /* \"#utility.yul\":3468:3470   */\n      0x20\n        /* \"#utility.yul\":3453:3471   */\n      add\n        /* \"src/EmployerScroll.sol\":3714:3865  function getProvisionId(address _user, address _token) public pure returns (bytes32) {... */\n      tag_24\n        /* \"#utility.yul\":3334:3511   */\n      jump\n        /* \"src/EmployerScroll.sol\":885:938  mapping(address => string) public employeeRailgunAddr */\n    tag_12:\n      tag_53\n      tag_54\n      calldatasize\n      0x04\n      tag_22\n      jump\t// in\n    tag_54:\n      tag_55\n      jump\t// in\n    tag_53:\n      mload(0x40)\n      tag_24\n      swap2\n      swap1\n      tag_57\n      jump\t// in\n        /* \"src/EmployerScroll.sol\":1369:2346  function provisionEmployee(address _token, uint256 _amount, address _employee, uint256 _expiry, address[] calldata _allowlist) external onlyOwner {... */\n    tag_13:\n      tag_16\n      tag_59\n      calldatasize\n      0x04\n      tag_60\n      jump\t// in\n    tag_59:\n      tag_61\n      jump\t// in\n        /* \"lib/openzeppelin-contracts/contracts/access/Ownable.sol\":2081:2279  function transferOwnership(address newOwner) public virtual onlyOwner {... */\n    tag_14:\n      tag_16\n      tag_63\n      calldatasize\n      0x04\n      tag_22\n      jump\t// in\n    tag_63:\n      tag_64\n      jump\t// in\n        /* \"src/EmployerScroll.sol\":2352:3001  function updateProvision(bytes32 _provisionId, uint256 _amount, uint256 _expiry, address[] calldata _allowlist, address[] calldata _denylist) external onlyOwner {... */\n    tag_19:\n        /* \"lib/openzeppelin-contracts/contracts/access/Ownable.sol\":1094:1107  _checkOwner() */\n      tag_66\n        /* \"lib/openzeppelin-contracts/contracts/access/Ownable.sol\":1094:1105  _checkOwner */\n      tag_67\n        /* \"lib/openzeppelin-contracts/contracts/access/Ownable.sol\":1094:1107  _checkOwner() */\n      jump\t// in\n    tag_66:\n        /* \"src/EmployerScroll.sol\":2523:2567  EmployeeProvision storage _employeeProvision */\n      0x00\n        /* \"src/EmployerScroll.sol\":2570:2594  provisions[_provisionId] */\n      dup8\n      dup2\n      mstore\n        /* \"src/EmployerScroll.sol\":2570:2580  provisions */\n      0x03\n        /* \"src/EmployerScroll.sol\":2570:2594  provisions[_provisionId] */\n      0x20\n      mstore\n      0x40\n      dup2\n      keccak256\n        /* \"src/EmployerScroll.sol\":2605:2630  _employeeProvision.amount */\n      0x01\n      dup2\n      add\n        /* \"src/EmployerScroll.sol\":2605:2640  _employeeProvision.amount = _amount */\n      dup9\n      swap1\n      sstore\n        /* \"src/EmployerScroll.sol\":2650:2675  _employeeProvision.expiry */\n      0x04\n      dup2\n      add\n        /* \"src/EmployerScroll.sol\":2650:2685  _employeeProvision.expiry = _expiry */\n      dup8\n      swap1\n      sstore\n        /* \"src/EmployerScroll.sol\":2570:2594  provisions[_provisionId] */\n      swap1\n        /* \"src/EmployerScroll.sol\":2695:2818  for (uint256 i = 0; i < _allowlist.length; i++) {... */\n    tag_69:\n        /* \"src/EmployerScroll.sol\":2715:2736  i < _allowlist.length */\n      dup5\n      dup2\n      lt\n        /* \"src/EmployerScroll.sol\":2695:2818  for (uint256 i = 0; i < _allowlist.length; i++) {... */\n      iszero\n      tag_70\n      jumpi\n        /* \"src/EmployerScroll.sol\":2803:2807  true */\n      0x01\n        /* \"src/EmployerScroll.sol\":2757:2775  _employeeProvision */\n      dup3\n        /* \"src/EmployerScroll.sol\":2757:2785  _employeeProvision.allowlist */\n      0x05\n      add\n        /* \"src/EmployerScroll.sol\":2757:2800  _employeeProvision.allowlist[_allowlist[i]] */\n      0x00\n        /* \"src/EmployerScroll.sol\":2786:2796  _allowlist */\n      dup9\n      dup9\n        /* \"src/EmployerScroll.sol\":2797:2798  i */\n      dup6\n        /* \"src/EmployerScroll.sol\":2786:2799  _allowlist[i] */\n      dup2\n      dup2\n      lt\n      tag_73\n      jumpi\n      tag_73\n      tag_74\n      jump\t// in\n    tag_73:\n      swap1\n      pop\n      0x20\n      mul\n      add\n      0x20\n      dup2\n      add\n      swap1\n      tag_75\n      swap2\n      swap1\n      tag_22\n      jump\t// in\n    tag_75:\n      sub(shl(0xa0, 0x01), 0x01)\n        /* \"src/EmployerScroll.sol\":2757:2800  _employeeProvision.allowlist[_allowlist[i]] */\n      and\n      dup2\n      mstore\n      0x20\n      dup2\n      add\n      swap2\n      swap1\n      swap2\n      mstore\n      0x40\n      add\n      0x00\n      keccak256\n        /* \"src/EmployerScroll.sol\":2757:2807  _employeeProvision.allowlist[_allowlist[i]] = true */\n      dup1\n      sload\n      not(0xff)\n      and\n      swap2\n      iszero\n      iszero\n      swap2\n      swap1\n      swap2\n      or\n      swap1\n      sstore\n        /* \"src/EmployerScroll.sol\":2738:2741  i++ */\n      dup1\n      tag_76\n      dup2\n      tag_77\n      jump\t// in\n    tag_76:\n      swap2\n      pop\n      pop\n        /* \"src/EmployerScroll.sol\":2695:2818  for (uint256 i = 0; i < _allowlist.length; i++) {... */\n      jump(tag_69)\n    tag_70:\n      pop\n        /* \"src/EmployerScroll.sol\":2833:2842  uint256 i */\n      0x00\n        /* \"src/EmployerScroll.sol\":2828:2950  for (uint256 i = 0; i < _denylist.length; i++) {... */\n    tag_78:\n        /* \"src/EmployerScroll.sol\":2848:2868  i < _denylist.length */\n      dup3\n      dup2\n      lt\n        /* \"src/EmployerScroll.sol\":2828:2950  for (uint256 i = 0; i < _denylist.length; i++) {... */\n      iszero\n      tag_79\n      jumpi\n        /* \"src/EmployerScroll.sol\":2934:2939  false */\n      0x00\n        /* \"src/EmployerScroll.sol\":2889:2907  _employeeProvision */\n      dup3\n        /* \"src/EmployerScroll.sol\":2889:2917  _employeeProvision.allowlist */\n      0x05\n      add\n        /* \"src/EmployerScroll.sol\":2889:2931  _employeeProvision.allowlist[_denylist[i]] */\n      0x00\n        /* \"src/EmployerScroll.sol\":2918:2927  _denylist */\n      dup7\n      dup7\n        /* \"src/EmployerScroll.sol\":2928:2929  i */\n      dup6\n        /* \"src/EmployerScroll.sol\":2918:2930  _denylist[i] */\n      dup2\n      dup2\n      lt\n      tag_82\n      jumpi\n      tag_82\n      tag_74\n      jump\t// in\n    tag_82:\n      swap1\n      pop\n      0x20\n      mul\n      add\n      0x20\n      dup2\n      add\n      swap1\n      tag_83\n      swap2\n      swap1\n      tag_22\n      jump\t// in\n    tag_83:\n      sub(shl(0xa0, 0x01), 0x01)\n        /* \"src/EmployerScroll.sol\":2889:2931  _employeeProvision.allowlist[_denylist[i]] */\n      and\n      dup2\n      mstore\n      0x20\n      dup2\n      add\n      swap2\n      swap1\n      swap2\n      mstore\n      0x40\n      add\n      0x00\n      keccak256\n        /* \"src/EmployerScroll.sol\":2889:2939  _employeeProvision.allowlist[_denylist[i]] = false */\n      dup1\n      sload\n      not(0xff)\n      and\n      swap2\n      iszero\n      iszero\n      swap2\n      swap1\n      swap2\n      or\n      swap1\n      sstore\n        /* \"src/EmployerScroll.sol\":2870:2873  i++ */\n      dup1\n      tag_84\n      dup2\n      tag_77\n      jump\t// in\n    tag_84:\n      swap2\n      pop\n      pop\n        /* \"src/EmployerScroll.sol\":2828:2950  for (uint256 i = 0; i < _denylist.length; i++) {... */\n      jump(tag_78)\n    tag_79:\n      pop\n        /* \"src/EmployerScroll.sol\":2965:2994  UpdateProvision(_provisionId) */\n      mload(0x40)\n        /* \"src/EmployerScroll.sol\":2981:2993  _provisionId */\n      dup9\n      swap1\n        /* \"src/EmployerScroll.sol\":2965:2994  UpdateProvision(_provisionId) */\n      0xd3973df93f68e12513b578087854cfe3053d0833cdd737bb42d9745e64bdd325\n      swap1\n      0x00\n      swap1\n      log2\n        /* \"src/EmployerScroll.sol\":2513:3001  {... */\n      pop\n        /* \"src/EmployerScroll.sol\":2352:3001  function updateProvision(bytes32 _provisionId, uint256 _amount, uint256 _expiry, address[] calldata _allowlist, address[] calldata _denylist) external onlyOwner {... */\n      pop\n      pop\n      pop\n      pop\n      pop\n      pop\n      pop\n      jump\t// out\n        /* \"src/EmployerScroll.sol\":3007:3708  function spendProvision(address _token, uint256 _amount, address _recipient) external onlyVerifiedEmployee {... */\n    tag_29:\n        /* \"src/EmployerScroll.sol\":1014:1024  msg.sender */\n      caller\n        /* \"src/EmployerScroll.sol\":1310:1314  bool */\n      0x00\n        /* \"src/EmployerScroll.sol\":1333:1356  verifiedEmployees[user] */\n      swap1\n      dup2\n      mstore\n        /* \"src/EmployerScroll.sol\":1333:1350  verifiedEmployees */\n      0x01\n        /* \"src/EmployerScroll.sol\":1333:1356  verifiedEmployees[user] */\n      0x20\n      mstore\n      0x40\n      swap1\n      keccak256\n      sload\n      0xff\n      and\n        /* \"src/EmployerScroll.sol\":987:1053  require(isVerifiedEmployee(msg.sender), \"Not a verified employee\") */\n      tag_88\n      jumpi\n      mload(0x40)\n      shl(0xe5, 0x461bcd)\n      dup2\n      mstore\n        /* \"#utility.yul\":5403:5405   */\n      0x20\n        /* \"src/EmployerScroll.sol\":987:1053  require(isVerifiedEmployee(msg.sender), \"Not a verified employee\") */\n      0x04\n      dup3\n      add\n        /* \"#utility.yul\":5385:5406   */\n      mstore\n        /* \"#utility.yul\":5442:5444   */\n      0x17\n        /* \"#utility.yul\":5422:5440   */\n      0x24\n      dup3\n      add\n        /* \"#utility.yul\":5415:5445   */\n      mstore\n      shl(0x48, 0x4e6f74206120766572696669656420656d706c6f796565)\n        /* \"#utility.yul\":5461:5479   */\n      0x44\n      dup3\n      add\n        /* \"#utility.yul\":5454:5507   */\n      mstore\n        /* \"#utility.yul\":5524:5542   */\n      0x64\n      add\n        /* \"src/EmployerScroll.sol\":987:1053  require(isVerifiedEmployee(msg.sender), \"Not a verified employee\") */\n    tag_89:\n      mload(0x40)\n      dup1\n      swap2\n      sub\n      swap1\n      revert\n    tag_88:\n        /* \"src/EmployerScroll.sol\":3124:3144  bytes32 _provisionId */\n      0x00\n        /* \"src/EmployerScroll.sol\":3174:3180  _token */\n      dup4\n        /* \"src/EmployerScroll.sol\":3182:3192  msg.sender */\n      caller\n        /* \"src/EmployerScroll.sol\":3157:3193  abi.encodePacked(_token, msg.sender) */\n      add(0x20, mload(0x40))\n      tag_92\n      swap3\n      swap2\n      swap1\n      tag_93\n      jump\t// in\n    tag_92:\n      mload(0x40)\n      0x20\n      dup2\n      dup4\n      sub\n      sub\n      dup2\n      mstore\n      swap1\n      0x40\n      mstore\n        /* \"src/EmployerScroll.sol\":3147:3194  keccak256(abi.encodePacked(_token, msg.sender)) */\n      dup1\n      mload\n      swap1\n      0x20\n      add\n      keccak256\n        /* \"src/EmployerScroll.sol\":3124:3194  bytes32 _provisionId = keccak256(abi.encodePacked(_token, msg.sender)) */\n      swap1\n      pop\n        /* \"src/EmployerScroll.sol\":3205:3249  EmployeeProvision storage _employeeProvision */\n      0x00\n        /* \"src/EmployerScroll.sol\":3252:3262  provisions */\n      0x03\n        /* \"src/EmployerScroll.sol\":3252:3276  provisions[_provisionId] */\n      0x00\n        /* \"src/EmployerScroll.sol\":3263:3275  _provisionId */\n      dup4\n        /* \"src/EmployerScroll.sol\":3252:3276  provisions[_provisionId] */\n      dup2\n      mstore\n      0x20\n      add\n      swap1\n      dup2\n      mstore\n      0x20\n      add\n      0x00\n      keccak256\n        /* \"src/EmployerScroll.sol\":3205:3276  EmployeeProvision storage _employeeProvision = provisions[_provisionId] */\n      swap1\n      pop\n        /* \"src/EmployerScroll.sol\":3349:3364  block.timestamp */\n      timestamp\n        /* \"src/EmployerScroll.sol\":3321:3339  _employeeProvision */\n      dup2\n        /* \"src/EmployerScroll.sol\":3321:3346  _employeeProvision.expiry */\n      0x04\n      add\n      sload\n        /* \"src/EmployerScroll.sol\":3294:3312  _employeeProvision */\n      dup3\n        /* \"src/EmployerScroll.sol\":3294:3318  _employeeProvision.start */\n      0x03\n      add\n      sload\n        /* \"src/EmployerScroll.sol\":3294:3346  _employeeProvision.start + _employeeProvision.expiry */\n      tag_94\n      swap2\n      swap1\n      tag_95\n      jump\t// in\n    tag_94:\n        /* \"src/EmployerScroll.sol\":3294:3364  _employeeProvision.start + _employeeProvision.expiry > block.timestamp */\n      gt\n        /* \"src/EmployerScroll.sol\":3286:3386  require(_employeeProvision.start + _employeeProvision.expiry > block.timestamp, \"Provision expired\") */\n      tag_96\n      jumpi\n      mload(0x40)\n      shl(0xe5, 0x461bcd)\n      dup2\n      mstore\n        /* \"#utility.yul\":6223:6225   */\n      0x20\n        /* \"src/EmployerScroll.sol\":3286:3386  require(_employeeProvision.start + _employeeProvision.expiry > block.timestamp, \"Provision expired\") */\n      0x04\n      dup3\n      add\n        /* \"#utility.yul\":6205:6226   */\n      mstore\n        /* \"#utility.yul\":6262:6264   */\n      0x11\n        /* \"#utility.yul\":6242:6260   */\n      0x24\n      dup3\n      add\n        /* \"#utility.yul\":6235:6265   */\n      mstore\n      shl(0x7a, 0x141c9bdd9a5cda5bdb88195e1c1a5c9959)\n        /* \"#utility.yul\":6281:6299   */\n      0x44\n      dup3\n      add\n        /* \"#utility.yul\":6274:6321   */\n      mstore\n        /* \"#utility.yul\":6338:6356   */\n      0x64\n      add\n        /* \"src/EmployerScroll.sol\":3286:3386  require(_employeeProvision.start + _employeeProvision.expiry > block.timestamp, \"Provision expired\") */\n      tag_89\n        /* \"#utility.yul\":6021:6362   */\n      jump\n        /* \"src/EmployerScroll.sol\":3286:3386  require(_employeeProvision.start + _employeeProvision.expiry > block.timestamp, \"Provision expired\") */\n    tag_96:\n        /* \"src/EmployerScroll.sol\":3433:3440  _amount */\n      dup4\n        /* \"src/EmployerScroll.sol\":3404:3422  _employeeProvision */\n      dup2\n        /* \"src/EmployerScroll.sol\":3404:3429  _employeeProvision.amount */\n      0x01\n      add\n      sload\n        /* \"src/EmployerScroll.sol\":3404:3440  _employeeProvision.amount >= _amount */\n      lt\n      iszero\n        /* \"src/EmployerScroll.sol\":3396:3480  require(_employeeProvision.amount >= _amount, \"Trying to spend more than provision\") */\n      tag_99\n      jumpi\n      mload(0x40)\n      shl(0xe5, 0x461bcd)\n      dup2\n      mstore\n        /* \"#utility.yul\":6569:6571   */\n      0x20\n        /* \"src/EmployerScroll.sol\":3396:3480  require(_employeeProvision.amount >= _amount, \"Trying to spend more than provision\") */\n      0x04\n      dup3\n      add\n        /* \"#utility.yul\":6551:6572   */\n      mstore\n        /* \"#utility.yul\":6608:6610   */\n      0x23\n        /* \"#utility.yul\":6588:6606   */\n      0x24\n      dup3\n      add\n        /* \"#utility.yul\":6581:6611   */\n      mstore\n        /* \"#utility.yul\":6647:6681   */\n      0x547279696e6720746f207370656e64206d6f7265207468616e2070726f766973\n        /* \"#utility.yul\":6627:6645   */\n      0x44\n      dup3\n      add\n        /* \"#utility.yul\":6620:6682   */\n      mstore\n      shl(0xe9, 0x34b7b7)\n        /* \"#utility.yul\":6698:6716   */\n      0x64\n      dup3\n      add\n        /* \"#utility.yul\":6691:6724   */\n      mstore\n        /* \"#utility.yul\":6741:6760   */\n      0x84\n      add\n        /* \"src/EmployerScroll.sol\":3396:3480  require(_employeeProvision.amount >= _amount, \"Trying to spend more than provision\") */\n      tag_89\n        /* \"#utility.yul\":6367:6766   */\n      jump\n        /* \"src/EmployerScroll.sol\":3396:3480  require(_employeeProvision.amount >= _amount, \"Trying to spend more than provision\") */\n    tag_99:\n      sub(shl(0xa0, 0x01), 0x01)\n        /* \"src/EmployerScroll.sol\":3498:3538  _employeeProvision.allowlist[_recipient] */\n      dup4\n      and\n      0x00\n      swap1\n      dup2\n      mstore\n        /* \"src/EmployerScroll.sol\":3498:3526  _employeeProvision.allowlist */\n      0x05\n      dup3\n      add\n        /* \"src/EmployerScroll.sol\":3498:3538  _employeeProvision.allowlist[_recipient] */\n      0x20\n      mstore\n      0x40\n      swap1\n      keccak256\n      sload\n      0xff\n      and\n        /* \"src/EmployerScroll.sol\":3498:3546  _employeeProvision.allowlist[_recipient] == true */\n      iszero\n      iszero\n        /* \"src/EmployerScroll.sol\":3498:3538  _employeeProvision.allowlist[_recipient] */\n      0x01\n        /* \"src/EmployerScroll.sol\":3498:3546  _employeeProvision.allowlist[_recipient] == true */\n      eq\n        /* \"src/EmployerScroll.sol\":3490:3577  require(_employeeProvision.allowlist[_recipient] == true, \"Recipient not on allowlist\") */\n      tag_102\n      jumpi\n      mload(0x40)\n      shl(0xe5, 0x461bcd)\n      dup2\n      mstore\n        /* \"#utility.yul\":6973:6975   */\n      0x20\n        /* \"src/EmployerScroll.sol\":3490:3577  require(_employeeProvision.allowlist[_recipient] == true, \"Recipient not on allowlist\") */\n      0x04\n      dup3\n      add\n        /* \"#utility.yul\":6955:6976   */\n      mstore\n        /* \"#utility.yul\":7012:7014   */\n      0x1a\n        /* \"#utility.yul\":6992:7010   */\n      0x24\n      dup3\n      add\n        /* \"#utility.yul\":6985:7015   */\n      mstore\n        /* \"#utility.yul\":7051:7079   */\n      0x526563697069656e74206e6f74206f6e20616c6c6f776c697374000000000000\n        /* \"#utility.yul\":7031:7049   */\n      0x44\n      dup3\n      add\n        /* \"#utility.yul\":7024:7080   */\n      mstore\n        /* \"#utility.yul\":7097:7115   */\n      0x64\n      add\n        /* \"src/EmployerScroll.sol\":3490:3577  require(_employeeProvision.allowlist[_recipient] == true, \"Recipient not on allowlist\") */\n      tag_89\n        /* \"#utility.yul\":6771:7121   */\n      jump\n        /* \"src/EmployerScroll.sol\":3490:3577  require(_employeeProvision.allowlist[_recipient] == true, \"Recipient not on allowlist\") */\n    tag_102:\n        /* \"src/EmployerScroll.sol\":3592:3636  IERC20(_token).transfer(_recipient, _amount) */\n      mload(0x40)\n      shl(0xe0, 0xa9059cbb)\n      dup2\n      mstore\n      sub(shl(0xa0, 0x01), 0x01)\n        /* \"#utility.yul\":7318:7350   */\n      dup5\n      dup2\n      and\n        /* \"src/EmployerScroll.sol\":3592:3636  IERC20(_token).transfer(_recipient, _amount) */\n      0x04\n      dup4\n      add\n        /* \"#utility.yul\":7300:7351   */\n      mstore\n        /* \"#utility.yul\":7367:7385   */\n      0x24\n      dup3\n      add\n        /* \"#utility.yul\":7360:7394   */\n      dup7\n      swap1\n      mstore\n        /* \"src/EmployerScroll.sol\":3592:3615  IERC20(_token).transfer */\n      dup7\n      and\n      swap1\n      0xa9059cbb\n      swap1\n        /* \"#utility.yul\":7273:7291   */\n      0x44\n      add\n        /* \"src/EmployerScroll.sol\":3592:3636  IERC20(_token).transfer(_recipient, _amount) */\n      0x20\n      mload(0x40)\n      dup1\n      dup4\n      sub\n      dup2\n      0x00\n      dup8\n      gas\n      call\n      iszero\n      dup1\n      iszero\n      tag_108\n      jumpi\n      returndatasize\n      0x00\n      dup1\n      returndatacopy\n      revert(0x00, returndatasize)\n    tag_108:\n      pop\n      pop\n      pop\n      pop\n      mload(0x40)\n      returndatasize\n      not(0x1f)\n      0x1f\n      dup3\n      add\n      and\n      dup3\n      add\n      dup1\n      0x40\n      mstore\n      pop\n      dup2\n      add\n      swap1\n      tag_109\n      swap2\n      swap1\n      tag_110\n      jump\t// in\n    tag_109:\n      pop\n        /* \"src/EmployerScroll.sol\":3690:3700  _recipient */\n      dup3\n      sub(shl(0xa0, 0x01), 0x01)\n        /* \"src/EmployerScroll.sol\":3652:3701  SpendProvision(_provisionId, _amount, _recipient) */\n      and\n        /* \"src/EmployerScroll.sol\":3681:3688  _amount */\n      dup5\n        /* \"src/EmployerScroll.sol\":3667:3679  _provisionId */\n      dup4\n        /* \"src/EmployerScroll.sol\":3652:3701  SpendProvision(_provisionId, _amount, _recipient) */\n      0xfed4c996f9a5a74907d3286e9a31755d17cf5d72f3ff3d442ea799e8636cd574\n      mload(0x40)\n      mload(0x40)\n      dup1\n      swap2\n      sub\n      swap1\n      log4\n        /* \"src/EmployerScroll.sol\":3114:3708  {... */\n      pop\n      pop\n        /* \"src/EmployerScroll.sol\":3007:3708  function spendProvision(address _token, uint256 _amount, address _recipient) external onlyVerifiedEmployee {... */\n      pop\n      pop\n      pop\n      jump\t// out\n        /* \"src/EmployerScroll.sol\":1077:1241  function addVerifiedEmployee(address employee) external onlyOwner() {... */\n    tag_32:\n        /* \"lib/openzeppelin-contracts/contracts/access/Ownable.sol\":1094:1107  _checkOwner() */\n      tag_112\n        /* \"lib/openzeppelin-contracts/contracts/access/Ownable.sol\":1094:1105  _checkOwner */\n      tag_67\n        /* \"lib/openzeppelin-contracts/contracts/access/Ownable.sol\":1094:1107  _checkOwner() */\n      jump\t// in\n    tag_112:\n      sub(shl(0xa0, 0x01), 0x01)\n        /* \"src/EmployerScroll.sol\":1155:1182  verifiedEmployees[employee] */\n      dup2\n      and\n      0x00\n      dup2\n      dup2\n      mstore\n        /* \"src/EmployerScroll.sol\":1185:1189  true */\n      0x01\n        /* \"src/EmployerScroll.sol\":1155:1182  verifiedEmployees[employee] */\n      0x20\n      dup2\n      swap1\n      mstore\n      0x40\n      dup1\n      dup4\n      keccak256\n        /* \"src/EmployerScroll.sol\":1155:1189  verifiedEmployees[employee] = true */\n      dup1\n      sload\n      not(0xff)\n      and\n      swap1\n      swap3\n      or\n      swap1\n      swap2\n      sstore\n        /* \"src/EmployerScroll.sol\":1205:1234  AddVerifiedEmployee(employee) */\n      mload\n      0x3b026ffc6936dc375a71d755b60b668f20ae8d41f7ebba0a732e750f8cd2929e\n      swap2\n        /* \"src/EmployerScroll.sol\":1155:1182  verifiedEmployees[employee] */\n      swap1\n        /* \"src/EmployerScroll.sol\":1205:1234  AddVerifiedEmployee(employee) */\n      log2\n        /* \"src/EmployerScroll.sol\":1077:1241  function addVerifiedEmployee(address employee) external onlyOwner() {... */\n      pop\n      jump\t// out\n        /* \"lib/openzeppelin-contracts/contracts/access/Ownable.sol\":1831:1932  function renounceOwnership() public virtual onlyOwner {... */\n    tag_34:\n        /* \"lib/openzeppelin-contracts/contracts/access/Ownable.sol\":1094:1107  _checkOwner() */\n      tag_115\n        /* \"lib/openzeppelin-contracts/contracts/access/Ownable.sol\":1094:1105  _checkOwner */\n      tag_67\n        /* \"lib/openzeppelin-contracts/contracts/access/Ownable.sol\":1094:1107  _checkOwner() */\n      jump\t// in\n    tag_115:\n        /* \"lib/openzeppelin-contracts/contracts/access/Ownable.sol\":1895:1925  _transferOwnership(address(0)) */\n      tag_117\n        /* \"lib/openzeppelin-contracts/contracts/access/Ownable.sol\":1922:1923  0 */\n      0x00\n        /* \"lib/openzeppelin-contracts/contracts/access/Ownable.sol\":1895:1913  _transferOwnership */\n      tag_118\n        /* \"lib/openzeppelin-contracts/contracts/access/Ownable.sol\":1895:1925  _transferOwnership(address(0)) */\n      jump\t// in\n    tag_117:\n        /* \"lib/openzeppelin-contracts/contracts/access/Ownable.sol\":1831:1932  function renounceOwnership() public virtual onlyOwner {... */\n      jump\t// out\n        /* \"src/EmployerScroll.sol\":3871:4020  function provideRailgunAddr(string calldata railgunAddr) external onlyVerifiedEmployee {... */\n    tag_42:\n        /* \"src/EmployerScroll.sol\":1014:1024  msg.sender */\n      caller\n        /* \"src/EmployerScroll.sol\":1310:1314  bool */\n      0x00\n        /* \"src/EmployerScroll.sol\":1333:1356  verifiedEmployees[user] */\n      swap1\n      dup2\n      mstore\n        /* \"src/EmployerScroll.sol\":1333:1350  verifiedEmployees */\n      0x01\n        /* \"src/EmployerScroll.sol\":1333:1356  verifiedEmployees[user] */\n      0x20\n      mstore\n      0x40\n      swap1\n      keccak256\n      sload\n      0xff\n      and\n        /* \"src/EmployerScroll.sol\":987:1053  require(isVerifiedEmployee(msg.sender), \"Not a verified employee\") */\n      tag_122\n      jumpi\n      mload(0x40)\n      shl(0xe5, 0x461bcd)\n      dup2\n      mstore\n        /* \"#utility.yul\":5403:5405   */\n      0x20\n        /* \"src/EmployerScroll.sol\":987:1053  require(isVerifiedEmployee(msg.sender), \"Not a verified employee\") */\n      0x04\n      dup3\n      add\n        /* \"#utility.yul\":5385:5406   */\n      mstore\n        /* \"#utility.yul\":5442:5444   */\n      0x17\n        /* \"#utility.yul\":5422:5440   */\n      0x24\n      dup3\n      add\n        /* \"#utility.yul\":5415:5445   */\n      mstore\n      shl(0x48, 0x4e6f74206120766572696669656420656d706c6f796565)\n        /* \"#utility.yul\":5461:5479   */\n      0x44\n      dup3\n      add\n        /* \"#utility.yul\":5454:5507   */\n      mstore\n        /* \"#utility.yul\":5524:5542   */\n      0x64\n      add\n        /* \"src/EmployerScroll.sol\":987:1053  require(isVerifiedEmployee(msg.sender), \"Not a verified employee\") */\n      tag_89\n        /* \"#utility.yul\":5201:5548   */\n      jump\n        /* \"src/EmployerScroll.sol\":987:1053  require(isVerifiedEmployee(msg.sender), \"Not a verified employee\") */\n    tag_122:\n        /* \"src/EmployerScroll.sol\":3988:3998  msg.sender */\n      caller\n        /* \"src/EmployerScroll.sol\":3968:3999  employeeRailgunAddr[msg.sender] */\n      0x00\n      swap1\n      dup2\n      mstore\n        /* \"src/EmployerScroll.sol\":3968:3987  employeeRailgunAddr */\n      0x04\n        /* \"src/EmployerScroll.sol\":3968:3999  employeeRailgunAddr[msg.sender] */\n      0x20\n      mstore\n      0x40\n      swap1\n      keccak256\n        /* \"src/EmployerScroll.sol\":3968:4013  employeeRailgunAddr[msg.sender] = railgunAddr */\n      tag_125\n        /* \"src/EmployerScroll.sol\":4002:4013  railgunAddr */\n      dup3\n      dup5\n        /* \"src/EmployerScroll.sol\":3968:3999  employeeRailgunAddr[msg.sender] */\n      dup4\n        /* \"src/EmployerScroll.sol\":3968:4013  employeeRailgunAddr[msg.sender] = railgunAddr */\n      tag_126\n      jump\t// in\n    tag_125:\n      pop\n        /* \"src/EmployerScroll.sol\":3871:4020  function provideRailgunAddr(string calldata railgunAddr) external onlyVerifiedEmployee {... */\n      pop\n      pop\n      jump\t// out\n        /* \"src/EmployerScroll.sol\":3714:3865  function getProvisionId(address _user, address _token) public pure returns (bytes32) {... */\n    tag_50:\n        /* \"src/EmployerScroll.sol\":3790:3797  bytes32 */\n      0x00\n        /* \"src/EmployerScroll.sol\":3843:3848  _user */\n      dup3\n        /* \"src/EmployerScroll.sol\":3850:3856  _token */\n      dup3\n        /* \"src/EmployerScroll.sol\":3826:3857  abi.encodePacked(_user, _token) */\n      add(0x20, mload(0x40))\n      tag_128\n      swap3\n      swap2\n      swap1\n      tag_93\n      jump\t// in\n    tag_128:\n      mload(0x40)\n      0x20\n      dup2\n      dup4\n      sub\n      sub\n      dup2\n      mstore\n      swap1\n      0x40\n      mstore\n        /* \"src/EmployerScroll.sol\":3816:3858  keccak256(abi.encodePacked(_user, _token)) */\n      dup1\n      mload\n      swap1\n      0x20\n      add\n      keccak256\n        /* \"src/EmployerScroll.sol\":3809:3858  return keccak256(abi.encodePacked(_user, _token)) */\n      swap1\n      pop\n        /* \"src/EmployerScroll.sol\":3714:3865  function getProvisionId(address _user, address _token) public pure returns (bytes32) {... */\n    tag_127:\n      swap3\n      swap2\n      pop\n      pop\n      jump\t// out\n        /* \"src/EmployerScroll.sol\":885:938  mapping(address => string) public employeeRailgunAddr */\n    tag_55:\n      mstore(0x20, 0x04)\n      0x00\n      swap1\n      dup2\n      mstore\n      0x40\n      swap1\n      keccak256\n      dup1\n      sload\n      tag_129\n      swap1\n      tag_130\n      jump\t// in\n    tag_129:\n      dup1\n      0x1f\n      add\n      0x20\n      dup1\n      swap2\n      div\n      mul\n      0x20\n      add\n      mload(0x40)\n      swap1\n      dup2\n      add\n      0x40\n      mstore\n      dup1\n      swap3\n      swap2\n      swap1\n      dup2\n      dup2\n      mstore\n      0x20\n      add\n      dup3\n      dup1\n      sload\n      tag_131\n      swap1\n      tag_130\n      jump\t// in\n    tag_131:\n      dup1\n      iszero\n      tag_132\n      jumpi\n      dup1\n      0x1f\n      lt\n      tag_133\n      jumpi\n      0x0100\n      dup1\n      dup4\n      sload\n      div\n      mul\n      dup4\n      mstore\n      swap2\n      0x20\n      add\n      swap2\n      jump(tag_132)\n    tag_133:\n      dup3\n      add\n      swap2\n      swap1\n      0x00\n      mstore\n      keccak256(0x00, 0x20)\n      swap1\n    tag_134:\n      dup2\n      sload\n      dup2\n      mstore\n      swap1\n      0x01\n      add\n      swap1\n      0x20\n      add\n      dup1\n      dup4\n      gt\n      tag_134\n      jumpi\n      dup3\n      swap1\n      sub\n      0x1f\n      and\n      dup3\n      add\n      swap2\n    tag_132:\n      pop\n      pop\n      pop\n      pop\n      pop\n      dup2\n      jump\t// out\n        /* \"src/EmployerScroll.sol\":1369:2346  function provisionEmployee(address _token, uint256 _amount, address _employee, uint256 _expiry, address[] calldata _allowlist) external onlyOwner {... */\n    tag_61:\n        /* \"lib/openzeppelin-contracts/contracts/access/Ownable.sol\":1094:1107  _checkOwner() */\n      tag_136\n        /* \"lib/openzeppelin-contracts/contracts/access/Ownable.sol\":1094:1105  _checkOwner */\n      tag_67\n        /* \"lib/openzeppelin-contracts/contracts/access/Ownable.sol\":1094:1107  _checkOwner() */\n      jump\t// in\n    tag_136:\n      sub(shl(0xa0, 0x01), 0x01)\n        /* \"src/EmployerScroll.sol\":1333:1356  verifiedEmployees[user] */\n      dup5\n      and\n        /* \"src/EmployerScroll.sol\":1310:1314  bool */\n      0x00\n        /* \"src/EmployerScroll.sol\":1333:1356  verifiedEmployees[user] */\n      swap1\n      dup2\n      mstore\n        /* \"src/EmployerScroll.sol\":1333:1350  verifiedEmployees */\n      0x01\n        /* \"src/EmployerScroll.sol\":1333:1356  verifiedEmployees[user] */\n      0x20\n      mstore\n      0x40\n      swap1\n      keccak256\n      sload\n      0xff\n      and\n        /* \"src/EmployerScroll.sol\":1525:1606  require(isVerifiedEmployee(_employee), \"Can only provision to verified employee\") */\n      tag_139\n      jumpi\n      mload(0x40)\n      shl(0xe5, 0x461bcd)\n      dup2\n      mstore\n        /* \"#utility.yul\":10464:10466   */\n      0x20\n        /* \"src/EmployerScroll.sol\":1525:1606  require(isVerifiedEmployee(_employee), \"Can only provision to verified employee\") */\n      0x04\n      dup3\n      add\n        /* \"#utility.yul\":10446:10467   */\n      mstore\n        /* \"#utility.yul\":10503:10505   */\n      0x27\n        /* \"#utility.yul\":10483:10501   */\n      0x24\n      dup3\n      add\n        /* \"#utility.yul\":10476:10506   */\n      mstore\n        /* \"#utility.yul\":10542:10576   */\n      0x43616e206f6e6c792070726f766973696f6e20746f2076657269666965642065\n        /* \"#utility.yul\":10522:10540   */\n      0x44\n      dup3\n      add\n        /* \"#utility.yul\":10515:10577   */\n      mstore\n      shl(0xc8, 0x6d706c6f796565)\n        /* \"#utility.yul\":10593:10611   */\n      0x64\n      dup3\n      add\n        /* \"#utility.yul\":10586:10623   */\n      mstore\n        /* \"#utility.yul\":10640:10659   */\n      0x84\n      add\n        /* \"src/EmployerScroll.sol\":1525:1606  require(isVerifiedEmployee(_employee), \"Can only provision to verified employee\") */\n      tag_89\n        /* \"#utility.yul\":10262:10665   */\n      jump\n        /* \"src/EmployerScroll.sol\":1525:1606  require(isVerifiedEmployee(_employee), \"Can only provision to verified employee\") */\n    tag_139:\n        /* \"src/EmployerScroll.sol\":1625:1688  IERC20(_token).transferFrom(msg.sender, address(this), _amount) */\n      mload(0x40)\n      shl(0xe0, 0x23b872dd)\n      dup2\n      mstore\n        /* \"src/EmployerScroll.sol\":1653:1663  msg.sender */\n      caller\n        /* \"src/EmployerScroll.sol\":1625:1688  IERC20(_token).transferFrom(msg.sender, address(this), _amount) */\n      0x04\n      dup3\n      add\n        /* \"#utility.yul\":10910:10944   */\n      mstore\n        /* \"src/EmployerScroll.sol\":1673:1677  this */\n      address\n        /* \"#utility.yul\":10960:10978   */\n      0x24\n      dup3\n      add\n        /* \"#utility.yul\":10953:10996   */\n      mstore\n        /* \"#utility.yul\":11012:11030   */\n      0x44\n      dup2\n      add\n        /* \"#utility.yul\":11005:11039   */\n      dup7\n      swap1\n      mstore\n      sub(shl(0xa0, 0x01), 0x01)\n        /* \"src/EmployerScroll.sol\":1625:1652  IERC20(_token).transferFrom */\n      dup8\n      and\n      swap1\n      0x23b872dd\n      swap1\n        /* \"#utility.yul\":10845:10863   */\n      0x64\n      add\n        /* \"src/EmployerScroll.sol\":1625:1688  IERC20(_token).transferFrom(msg.sender, address(this), _amount) */\n      0x20\n      mload(0x40)\n      dup1\n      dup4\n      sub\n      dup2\n      0x00\n      dup8\n      gas\n      call\n      iszero\n      dup1\n      iszero\n      tag_145\n      jumpi\n      returndatasize\n      0x00\n      dup1\n      returndatacopy\n      revert(0x00, returndatasize)\n    tag_145:\n      pop\n      pop\n      pop\n      pop\n      mload(0x40)\n      returndatasize\n      not(0x1f)\n      0x1f\n      dup3\n      add\n      and\n      dup3\n      add\n      dup1\n      0x40\n      mstore\n      pop\n      dup2\n      add\n      swap1\n      tag_146\n      swap2\n      swap1\n      tag_110\n      jump\t// in\n    tag_146:\n      pop\n        /* \"src/EmployerScroll.sol\":1699:1719  bytes32 _provisionId */\n      0x00\n        /* \"src/EmployerScroll.sol\":1749:1755  _token */\n      dup7\n        /* \"src/EmployerScroll.sol\":1757:1766  _employee */\n      dup6\n        /* \"src/EmployerScroll.sol\":1732:1767  abi.encodePacked(_token, _employee) */\n      add(0x20, mload(0x40))\n      tag_147\n      swap3\n      swap2\n      swap1\n      tag_93\n      jump\t// in\n    tag_147:\n      0x40\n      dup1\n      mload\n      not(0x1f)\n      dup2\n      dup5\n      sub\n      add\n      dup2\n      mstore\n      swap2\n      dup2\n      mstore\n        /* \"src/EmployerScroll.sol\":1722:1768  keccak256(abi.encodePacked(_token, _employee)) */\n      dup2\n      mload\n        /* \"src/EmployerScroll.sol\":1732:1767  abi.encodePacked(_token, _employee) */\n      0x20\n        /* \"src/EmployerScroll.sol\":1722:1768  keccak256(abi.encodePacked(_token, _employee)) */\n      swap3\n      dup4\n      add\n      keccak256\n      sub(shl(0xa0, 0x01), 0x01)\n        /* \"src/EmployerScroll.sol\":1779:1802  provisionIds[_employee] */\n      dup1\n      dup10\n      and\n      0x00\n      dup2\n      dup2\n      mstore\n        /* \"src/EmployerScroll.sol\":1779:1791  provisionIds */\n      0x02\n        /* \"src/EmployerScroll.sol\":1779:1802  provisionIds[_employee] */\n      dup1\n      dup8\n      mstore\n      dup6\n      dup3\n      keccak256\n        /* \"src/EmployerScroll.sol\":1779:1816  provisionIds[_employee][_provisionId] */\n      dup6\n      dup4\n      mstore\n      dup8\n      mstore\n      dup6\n      dup3\n      keccak256\n        /* \"src/EmployerScroll.sol\":1779:1823  provisionIds[_employee][_provisionId] = true */\n      dup1\n      sload\n      not(0xff)\n      and\n        /* \"src/EmployerScroll.sol\":1819:1823  true */\n      0x01\n        /* \"src/EmployerScroll.sol\":1779:1823  provisionIds[_employee][_provisionId] = true */\n      swap1\n      dup2\n      or\n      swap1\n      swap2\n      sstore\n        /* \"src/EmployerScroll.sol\":1881:1891  provisions */\n      0x03\n        /* \"src/EmployerScroll.sol\":1881:1905  provisions[_provisionId] */\n      swap8\n      dup9\n      swap1\n      mstore\n      swap6\n      dup3\n      keccak256\n        /* \"src/EmployerScroll.sol\":1916:1949  _employeeProvision.token = _token */\n      dup1\n      sload\n      swap5\n      dup16\n      and\n      not(sub(shl(0xa0, 0x01), 0x01))\n      swap6\n      dup7\n      and\n      or\n      dup2\n      sstore\n        /* \"src/EmployerScroll.sol\":1959:1984  _employeeProvision.amount */\n      swap6\n      dup7\n      add\n        /* \"src/EmployerScroll.sol\":1959:1994  _employeeProvision.amount = _amount */\n      dup14\n      swap1\n      sstore\n        /* \"src/EmployerScroll.sol\":2004:2031  _employeeProvision.employee */\n      dup6\n      add\n        /* \"src/EmployerScroll.sol\":2004:2043  _employeeProvision.employee = _employee */\n      dup1\n      sload\n      swap1\n      swap4\n      and\n      swap1\n      swap2\n      or\n      swap1\n      swap2\n      sstore\n        /* \"src/EmployerScroll.sol\":2080:2095  block.timestamp */\n      timestamp\n        /* \"src/EmployerScroll.sol\":2053:2077  _employeeProvision.start */\n      swap4\n      dup4\n      add\n        /* \"src/EmployerScroll.sol\":2053:2095  _employeeProvision.start = block.timestamp */\n      swap4\n      swap1\n      swap4\n      sstore\n        /* \"src/EmployerScroll.sol\":2105:2130  _employeeProvision.expiry */\n      0x04\n      dup3\n      add\n        /* \"src/EmployerScroll.sol\":2105:2140  _employeeProvision.expiry = _expiry */\n      dup8\n      swap1\n      sstore\n        /* \"src/EmployerScroll.sol\":1722:1768  keccak256(abi.encodePacked(_token, _employee)) */\n      swap3\n      pop\n        /* \"src/EmployerScroll.sol\":1881:1905  provisions[_provisionId] */\n      swap1\n        /* \"src/EmployerScroll.sol\":2151:2274  for (uint256 i = 0; i < _allowlist.length; i++) {... */\n    tag_148:\n        /* \"src/EmployerScroll.sol\":2171:2192  i < _allowlist.length */\n      dup4\n      dup2\n      lt\n        /* \"src/EmployerScroll.sol\":2151:2274  for (uint256 i = 0; i < _allowlist.length; i++) {... */\n      iszero\n      tag_149\n      jumpi\n        /* \"src/EmployerScroll.sol\":2259:2263  true */\n      0x01\n        /* \"src/EmployerScroll.sol\":2213:2231  _employeeProvision */\n      dup3\n        /* \"src/EmployerScroll.sol\":2213:2241  _employeeProvision.allowlist */\n      0x05\n      add\n        /* \"src/EmployerScroll.sol\":2213:2256  _employeeProvision.allowlist[_allowlist[i]] */\n      0x00\n        /* \"src/EmployerScroll.sol\":2242:2252  _allowlist */\n      dup8\n      dup8\n        /* \"src/EmployerScroll.sol\":2253:2254  i */\n      dup6\n        /* \"src/EmployerScroll.sol\":2242:2255  _allowlist[i] */\n      dup2\n      dup2\n      lt\n      tag_152\n      jumpi\n      tag_152\n      tag_74\n      jump\t// in\n    tag_152:\n      swap1\n      pop\n      0x20\n      mul\n      add\n      0x20\n      dup2\n      add\n      swap1\n      tag_153\n      swap2\n      swap1\n      tag_22\n      jump\t// in\n    tag_153:\n      sub(shl(0xa0, 0x01), 0x01)\n        /* \"src/EmployerScroll.sol\":2213:2256  _employeeProvision.allowlist[_allowlist[i]] */\n      and\n      dup2\n      mstore\n      0x20\n      dup2\n      add\n      swap2\n      swap1\n      swap2\n      mstore\n      0x40\n      add\n      0x00\n      keccak256\n        /* \"src/EmployerScroll.sol\":2213:2263  _employeeProvision.allowlist[_allowlist[i]] = true */\n      dup1\n      sload\n      not(0xff)\n      and\n      swap2\n      iszero\n      iszero\n      swap2\n      swap1\n      swap2\n      or\n      swap1\n      sstore\n        /* \"src/EmployerScroll.sol\":2194:2197  i++ */\n      dup1\n      tag_154\n      dup2\n      tag_77\n      jump\t// in\n    tag_154:\n      swap2\n      pop\n      pop\n        /* \"src/EmployerScroll.sol\":2151:2274  for (uint256 i = 0; i < _allowlist.length; i++) {... */\n      jump(tag_148)\n    tag_149:\n      pop\n        /* \"src/EmployerScroll.sol\":2329:2338  _employee */\n      dup6\n      sub(shl(0xa0, 0x01), 0x01)\n        /* \"src/EmployerScroll.sol\":2289:2339  ProvisionEmployee(_provisionId, _token, _employee) */\n      and\n        /* \"src/EmployerScroll.sol\":2321:2327  _token */\n      dup9\n      sub(shl(0xa0, 0x01), 0x01)\n        /* \"src/EmployerScroll.sol\":2289:2339  ProvisionEmployee(_provisionId, _token, _employee) */\n      and\n        /* \"src/EmployerScroll.sol\":2307:2319  _provisionId */\n      dup4\n        /* \"src/EmployerScroll.sol\":2289:2339  ProvisionEmployee(_provisionId, _token, _employee) */\n      0x1d5b0515ae7f45e3f6d62d22ebfc1913f698c59359f46cd2319311b6a3f38e70\n      mload(0x40)\n      mload(0x40)\n      dup1\n      swap2\n      sub\n      swap1\n      log4\n        /* \"src/EmployerScroll.sol\":1515:2346  {... */\n      pop\n      pop\n        /* \"src/EmployerScroll.sol\":1369:2346  function provisionEmployee(address _token, uint256 _amount, address _employee, uint256 _expiry, address[] calldata _allowlist) external onlyOwner {... */\n      pop\n      pop\n      pop\n      pop\n      pop\n      pop\n      jump\t// out\n        /* \"lib/openzeppelin-contracts/contracts/access/Ownable.sol\":2081:2279  function transferOwnership(address newOwner) public virtual onlyOwner {... */\n    tag_64:\n        /* \"lib/openzeppelin-contracts/contracts/access/Ownable.sol\":1094:1107  _checkOwner() */\n      tag_156\n        /* \"lib/openzeppelin-contracts/contracts/access/Ownable.sol\":1094:1105  _checkOwner */\n      tag_67\n        /* \"lib/openzeppelin-contracts/contracts/access/Ownable.sol\":1094:1107  _checkOwner() */\n      jump\t// in\n    tag_156:\n      sub(shl(0xa0, 0x01), 0x01)\n        /* \"lib/openzeppelin-contracts/contracts/access/Ownable.sol\":2169:2191  newOwner != address(0) */\n      dup2\n      and\n        /* \"lib/openzeppelin-contracts/contracts/access/Ownable.sol\":2161:2234  require(newOwner != address(0), \"Ownable: new owner is the zero address\") */\n      tag_158\n      jumpi\n      mload(0x40)\n      shl(0xe5, 0x461bcd)\n      dup2\n      mstore\n        /* \"#utility.yul\":11252:11254   */\n      0x20\n        /* \"lib/openzeppelin-contracts/contracts/access/Ownable.sol\":2161:2234  require(newOwner != address(0), \"Ownable: new owner is the zero address\") */\n      0x04\n      dup3\n      add\n        /* \"#utility.yul\":11234:11255   */\n      mstore\n        /* \"#utility.yul\":11291:11293   */\n      0x26\n        /* \"#utility.yul\":11271:11289   */\n      0x24\n      dup3\n      add\n        /* \"#utility.yul\":11264:11294   */\n      mstore\n        /* \"#utility.yul\":11330:11364   */\n      0x4f776e61626c653a206e6577206f776e657220697320746865207a65726f2061\n        /* \"#utility.yul\":11310:11328   */\n      0x44\n      dup3\n      add\n        /* \"#utility.yul\":11303:11365   */\n      mstore\n      shl(0xd0, 0x646472657373)\n        /* \"#utility.yul\":11381:11399   */\n      0x64\n      dup3\n      add\n        /* \"#utility.yul\":11374:11410   */\n      mstore\n        /* \"#utility.yul\":11427:11446   */\n      0x84\n      add\n        /* \"lib/openzeppelin-contracts/contracts/access/Ownable.sol\":2161:2234  require(newOwner != address(0), \"Ownable: new owner is the zero address\") */\n      tag_89\n        /* \"#utility.yul\":11050:11452   */\n      jump\n        /* \"lib/openzeppelin-contracts/contracts/access/Ownable.sol\":2161:2234  require(newOwner != address(0), \"Ownable: new owner is the zero address\") */\n    tag_158:\n        /* \"lib/openzeppelin-contracts/contracts/access/Ownable.sol\":2244:2272  _transferOwnership(newOwner) */\n      tag_161\n        /* \"lib/openzeppelin-contracts/contracts/access/Ownable.sol\":2263:2271  newOwner */\n      dup2\n        /* \"lib/openzeppelin-contracts/contracts/access/Ownable.sol\":2244:2262  _transferOwnership */\n      tag_118\n        /* \"lib/openzeppelin-contracts/contracts/access/Ownable.sol\":2244:2272  _transferOwnership(newOwner) */\n      jump\t// in\n    tag_161:\n        /* \"lib/openzeppelin-contracts/contracts/access/Ownable.sol\":2081:2279  function transferOwnership(address newOwner) public virtual onlyOwner {... */\n      pop\n      jump\t// out\n        /* \"lib/openzeppelin-contracts/contracts/access/Ownable.sol\":1359:1489  function _checkOwner() internal view virtual {... */\n    tag_67:\n        /* \"lib/openzeppelin-contracts/contracts/access/Ownable.sol\":1247:1254  address */\n      0x00\n        /* \"lib/openzeppelin-contracts/contracts/access/Ownable.sol\":1273:1279  _owner */\n      sload\n      sub(shl(0xa0, 0x01), 0x01)\n      and\n        /* \"lib/openzeppelin-contracts/contracts/utils/Context.sol\":719:729  msg.sender */\n      caller\n        /* \"lib/openzeppelin-contracts/contracts/access/Ownable.sol\":1422:1445  owner() == _msgSender() */\n      eq\n        /* \"lib/openzeppelin-contracts/contracts/access/Ownable.sol\":1414:1482  require(owner() == _msgSender(), \"Ownable: caller is not the owner\") */\n      tag_117\n      jumpi\n      mload(0x40)\n      shl(0xe5, 0x461bcd)\n      dup2\n      mstore\n        /* \"#utility.yul\":11659:11661   */\n      0x20\n        /* \"lib/openzeppelin-contracts/contracts/access/Ownable.sol\":1414:1482  require(owner() == _msgSender(), \"Ownable: caller is not the owner\") */\n      0x04\n      dup3\n      add\n        /* \"#utility.yul\":11641:11662   */\n      dup2\n      swap1\n      mstore\n        /* \"#utility.yul\":11678:11696   */\n      0x24\n      dup3\n      add\n        /* \"#utility.yul\":11671:11701   */\n      mstore\n        /* \"#utility.yul\":11737:11771   */\n      0x4f776e61626c653a2063616c6c6572206973206e6f7420746865206f776e6572\n        /* \"#utility.yul\":11717:11735   */\n      0x44\n      dup3\n      add\n        /* \"#utility.yul\":11710:11772   */\n      mstore\n        /* \"#utility.yul\":11789:11807   */\n      0x64\n      add\n        /* \"lib/openzeppelin-contracts/contracts/access/Ownable.sol\":1414:1482  require(owner() == _msgSender(), \"Ownable: caller is not the owner\") */\n      tag_89\n        /* \"#utility.yul\":11457:11813   */\n      jump\n        /* \"lib/openzeppelin-contracts/contracts/access/Ownable.sol\":2433:2620  function _transferOwnership(address newOwner) internal virtual {... */\n    tag_118:\n        /* \"lib/openzeppelin-contracts/contracts/access/Ownable.sol\":2506:2522  address oldOwner */\n      0x00\n        /* \"lib/openzeppelin-contracts/contracts/access/Ownable.sol\":2525:2531  _owner */\n      dup1\n      sload\n      sub(shl(0xa0, 0x01), 0x01)\n        /* \"lib/openzeppelin-contracts/contracts/access/Ownable.sol\":2541:2558  _owner = newOwner */\n      dup4\n      dup2\n      and\n      not(sub(shl(0xa0, 0x01), 0x01))\n      dup4\n      and\n      dup2\n      or\n      dup5\n      sstore\n        /* \"lib/openzeppelin-contracts/contracts/access/Ownable.sol\":2573:2613  OwnershipTransferred(oldOwner, newOwner) */\n      mload(0x40)\n        /* \"lib/openzeppelin-contracts/contracts/access/Ownable.sol\":2525:2531  _owner */\n      swap2\n      swap1\n      swap3\n      and\n      swap3\n      dup4\n      swap2\n        /* \"lib/openzeppelin-contracts/contracts/access/Ownable.sol\":2573:2613  OwnershipTransferred(oldOwner, newOwner) */\n      0x8be0079c531659141344cd1fd0a4f28419497f9722a3daafe3b4186f6b6457e0\n      swap2\n        /* \"lib/openzeppelin-contracts/contracts/access/Ownable.sol\":2506:2522  address oldOwner */\n      swap1\n        /* \"lib/openzeppelin-contracts/contracts/access/Ownable.sol\":2573:2613  OwnershipTransferred(oldOwner, newOwner) */\n      log3\n        /* \"lib/openzeppelin-contracts/contracts/access/Ownable.sol\":2496:2620  {... */\n      pop\n        /* \"lib/openzeppelin-contracts/contracts/access/Ownable.sol\":2433:2620  function _transferOwnership(address newOwner) internal virtual {... */\n      pop\n      jump\t// out\n        /* \"#utility.yul\":14:381   */\n    tag_171:\n        /* \"#utility.yul\":77:85   */\n      0x00\n        /* \"#utility.yul\":87:93   */\n      dup1\n        /* \"#utility.yul\":141:144   */\n      dup4\n        /* \"#utility.yul\":134:138   */\n      0x1f\n        /* \"#utility.yul\":126:132   */\n      dup5\n        /* \"#utility.yul\":122:139   */\n      add\n        /* \"#utility.yul\":118:145   */\n      slt\n        /* \"#utility.yul\":108:163   */\n      tag_180\n      jumpi\n        /* \"#utility.yul\":159:160   */\n      0x00\n        /* \"#utility.yul\":156:157   */\n      dup1\n        /* \"#utility.yul\":149:161   */\n      revert\n        /* \"#utility.yul\":108:163   */\n    tag_180:\n      pop\n        /* \"#utility.yul\":182:202   */\n      dup2\n      calldataload\n        /* \"#utility.yul\":225:243   */\n      0xffffffffffffffff\n        /* \"#utility.yul\":214:244   */\n      dup2\n      gt\n        /* \"#utility.yul\":211:261   */\n      iszero\n      tag_181\n      jumpi\n        /* \"#utility.yul\":257:258   */\n      0x00\n        /* \"#utility.yul\":254:255   */\n      dup1\n        /* \"#utility.yul\":247:259   */\n      revert\n        /* \"#utility.yul\":211:261   */\n    tag_181:\n        /* \"#utility.yul\":294:298   */\n      0x20\n        /* \"#utility.yul\":286:292   */\n      dup4\n        /* \"#utility.yul\":282:299   */\n      add\n        /* \"#utility.yul\":270:299   */\n      swap2\n      pop\n        /* \"#utility.yul\":354:357   */\n      dup4\n        /* \"#utility.yul\":347:351   */\n      0x20\n        /* \"#utility.yul\":337:343   */\n      dup3\n        /* \"#utility.yul\":334:335   */\n      0x05\n        /* \"#utility.yul\":330:344   */\n      shl\n        /* \"#utility.yul\":322:328   */\n      dup6\n        /* \"#utility.yul\":318:345   */\n      add\n        /* \"#utility.yul\":314:352   */\n      add\n        /* \"#utility.yul\":311:358   */\n      gt\n        /* \"#utility.yul\":308:375   */\n      iszero\n      tag_182\n      jumpi\n        /* \"#utility.yul\":371:372   */\n      0x00\n        /* \"#utility.yul\":368:369   */\n      dup1\n        /* \"#utility.yul\":361:373   */\n      revert\n        /* \"#utility.yul\":308:375   */\n    tag_182:\n        /* \"#utility.yul\":14:381   */\n      swap3\n      pop\n      swap3\n      swap1\n      pop\n      jump\t// out\n        /* \"#utility.yul\":386:1365   */\n    tag_18:\n        /* \"#utility.yul\":535:541   */\n      0x00\n        /* \"#utility.yul\":543:549   */\n      dup1\n        /* \"#utility.yul\":551:557   */\n      0x00\n        /* \"#utility.yul\":559:565   */\n      dup1\n        /* \"#utility.yul\":567:573   */\n      0x00\n        /* \"#utility.yul\":575:581   */\n      dup1\n        /* \"#utility.yul\":583:589   */\n      0x00\n        /* \"#utility.yul\":636:639   */\n      0xa0\n        /* \"#utility.yul\":624:633   */\n      dup9\n        /* \"#utility.yul\":615:622   */\n      dup11\n        /* \"#utility.yul\":611:634   */\n      sub\n        /* \"#utility.yul\":607:640   */\n      slt\n        /* \"#utility.yul\":604:657   */\n      iszero\n      tag_184\n      jumpi\n        /* \"#utility.yul\":653:654   */\n      0x00\n        /* \"#utility.yul\":650:651   */\n      dup1\n        /* \"#utility.yul\":643:655   */\n      revert\n        /* \"#utility.yul\":604:657   */\n    tag_184:\n        /* \"#utility.yul\":689:698   */\n      dup8\n        /* \"#utility.yul\":676:699   */\n      calldataload\n        /* \"#utility.yul\":666:699   */\n      swap7\n      pop\n        /* \"#utility.yul\":746:748   */\n      0x20\n        /* \"#utility.yul\":735:744   */\n      dup9\n        /* \"#utility.yul\":731:749   */\n      add\n        /* \"#utility.yul\":718:750   */\n      calldataload\n        /* \"#utility.yul\":708:750   */\n      swap6\n      pop\n        /* \"#utility.yul\":797:799   */\n      0x40\n        /* \"#utility.yul\":786:795   */\n      dup9\n        /* \"#utility.yul\":782:800   */\n      add\n        /* \"#utility.yul\":769:801   */\n      calldataload\n        /* \"#utility.yul\":759:801   */\n      swap5\n      pop\n        /* \"#utility.yul\":852:854   */\n      0x60\n        /* \"#utility.yul\":841:850   */\n      dup9\n        /* \"#utility.yul\":837:855   */\n      add\n        /* \"#utility.yul\":824:856   */\n      calldataload\n        /* \"#utility.yul\":875:893   */\n      0xffffffffffffffff\n        /* \"#utility.yul\":916:918   */\n      dup1\n        /* \"#utility.yul\":908:914   */\n      dup3\n        /* \"#utility.yul\":905:919   */\n      gt\n        /* \"#utility.yul\":902:936   */\n      iszero\n      tag_185\n      jumpi\n        /* \"#utility.yul\":932:933   */\n      0x00\n        /* \"#utility.yul\":929:930   */\n      dup1\n        /* \"#utility.yul\":922:934   */\n      revert\n        /* \"#utility.yul\":902:936   */\n    tag_185:\n        /* \"#utility.yul\":971:1041   */\n      tag_186\n        /* \"#utility.yul\":1033:1040   */\n      dup12\n        /* \"#utility.yul\":1024:1030   */\n      dup4\n        /* \"#utility.yul\":1013:1022   */\n      dup13\n        /* \"#utility.yul\":1009:1031   */\n      add\n        /* \"#utility.yul\":971:1041   */\n      tag_171\n      jump\t// in\n    tag_186:\n        /* \"#utility.yul\":1060:1068   */\n      swap1\n      swap7\n      pop\n        /* \"#utility.yul\":945:1041   */\n      swap5\n      pop\n        /* \"#utility.yul\":1148:1151   */\n      0x80\n        /* \"#utility.yul\":1133:1152   */\n      dup11\n      add\n        /* \"#utility.yul\":1120:1153   */\n      calldataload\n      swap2\n      pop\n        /* \"#utility.yul\":1165:1181   */\n      dup1\n      dup3\n      gt\n        /* \"#utility.yul\":1162:1198   */\n      iszero\n      tag_187\n      jumpi\n        /* \"#utility.yul\":1194:1195   */\n      0x00\n        /* \"#utility.yul\":1191:1192   */\n      dup1\n        /* \"#utility.yul\":1184:1196   */\n      revert\n        /* \"#utility.yul\":1162:1198   */\n    tag_187:\n      pop\n        /* \"#utility.yul\":1233:1305   */\n      tag_188\n        /* \"#utility.yul\":1297:1304   */\n      dup11\n        /* \"#utility.yul\":1286:1294   */\n      dup3\n        /* \"#utility.yul\":1275:1284   */\n      dup12\n        /* \"#utility.yul\":1271:1295   */\n      add\n        /* \"#utility.yul\":1233:1305   */\n      tag_171\n      jump\t// in\n    tag_188:\n        /* \"#utility.yul\":386:1365   */\n      swap9\n      swap12\n      swap8\n      swap11\n      pop\n      swap6\n      swap9\n      pop\n      swap4\n      swap7\n      swap3\n      swap6\n        /* \"#utility.yul\":1207:1305   */\n      swap3\n      swap4\n      pop\n      pop\n      pop\n        /* \"#utility.yul\":386:1365   */\n      jump\t// out\n        /* \"#utility.yul\":1370:1543   */\n    tag_172:\n        /* \"#utility.yul\":1438:1458   */\n      dup1\n      calldataload\n      sub(shl(0xa0, 0x01), 0x01)\n        /* \"#utility.yul\":1487:1518   */\n      dup2\n      and\n        /* \"#utility.yul\":1477:1519   */\n      dup2\n      eq\n        /* \"#utility.yul\":1467:1537   */\n      tag_190\n      jumpi\n        /* \"#utility.yul\":1533:1534   */\n      0x00\n        /* \"#utility.yul\":1530:1531   */\n      dup1\n        /* \"#utility.yul\":1523:1535   */\n      revert\n        /* \"#utility.yul\":1467:1537   */\n    tag_190:\n        /* \"#utility.yul\":1370:1543   */\n      swap2\n      swap1\n      pop\n      jump\t// out\n        /* \"#utility.yul\":1548:1734   */\n    tag_22:\n        /* \"#utility.yul\":1607:1613   */\n      0x00\n        /* \"#utility.yul\":1660:1662   */\n      0x20\n        /* \"#utility.yul\":1648:1657   */\n      dup3\n        /* \"#utility.yul\":1639:1646   */\n      dup5\n        /* \"#utility.yul\":1635:1658   */\n      sub\n        /* \"#utility.yul\":1631:1663   */\n      slt\n        /* \"#utility.yul\":1628:1680   */\n      iszero\n      tag_192\n      jumpi\n        /* \"#utility.yul\":1676:1677   */\n      0x00\n        /* \"#utility.yul\":1673:1674   */\n      dup1\n        /* \"#utility.yul\":1666:1678   */\n      revert\n        /* \"#utility.yul\":1628:1680   */\n    tag_192:\n        /* \"#utility.yul\":1699:1728   */\n      tag_193\n        /* \"#utility.yul\":1718:1727   */\n      dup3\n        /* \"#utility.yul\":1699:1728   */\n      tag_172\n      jump\t// in\n    tag_193:\n        /* \"#utility.yul\":1689:1728   */\n      swap4\n        /* \"#utility.yul\":1548:1734   */\n      swap3\n      pop\n      pop\n      pop\n      jump\t// out\n        /* \"#utility.yul\":1931:2259   */\n    tag_28:\n        /* \"#utility.yul\":2008:2014   */\n      0x00\n        /* \"#utility.yul\":2016:2022   */\n      dup1\n        /* \"#utility.yul\":2024:2030   */\n      0x00\n        /* \"#utility.yul\":2077:2079   */\n      0x60\n        /* \"#utility.yul\":2065:2074   */\n      dup5\n        /* \"#utility.yul\":2056:2063   */\n      dup7\n        /* \"#utility.yul\":2052:2075   */\n      sub\n        /* \"#utility.yul\":2048:2080   */\n      slt\n        /* \"#utility.yul\":2045:2097   */\n      iszero\n      tag_196\n      jumpi\n        /* \"#utility.yul\":2093:2094   */\n      0x00\n        /* \"#utility.yul\":2090:2091   */\n      dup1\n        /* \"#utility.yul\":2083:2095   */\n      revert\n        /* \"#utility.yul\":2045:2097   */\n    tag_196:\n        /* \"#utility.yul\":2116:2145   */\n      tag_197\n        /* \"#utility.yul\":2135:2144   */\n      dup5\n        /* \"#utility.yul\":2116:2145   */\n      tag_172\n      jump\t// in\n    tag_197:\n        /* \"#utility.yul\":2106:2145   */\n      swap3\n      pop\n        /* \"#utility.yul\":2192:2194   */\n      0x20\n        /* \"#utility.yul\":2181:2190   */\n      dup5\n        /* \"#utility.yul\":2177:2195   */\n      add\n        /* \"#utility.yul\":2164:2196   */\n      calldataload\n        /* \"#utility.yul\":2154:2196   */\n      swap2\n      pop\n        /* \"#utility.yul\":2215:2253   */\n      tag_198\n        /* \"#utility.yul\":2249:2251   */\n      0x40\n        /* \"#utility.yul\":2238:2247   */\n      dup6\n        /* \"#utility.yul\":2234:2252   */\n      add\n        /* \"#utility.yul\":2215:2253   */\n      tag_172\n      jump\t// in\n    tag_198:\n        /* \"#utility.yul\":2205:2253   */\n      swap1\n      pop\n        /* \"#utility.yul\":1931:2259   */\n      swap3\n      pop\n      swap3\n      pop\n      swap3\n      jump\t// out\n        /* \"#utility.yul\":2472:3064   */\n    tag_41:\n        /* \"#utility.yul\":2543:2549   */\n      0x00\n        /* \"#utility.yul\":2551:2557   */\n      dup1\n        /* \"#utility.yul\":2604:2606   */\n      0x20\n        /* \"#utility.yul\":2592:2601   */\n      dup4\n        /* \"#utility.yul\":2583:2590   */\n      dup6\n        /* \"#utility.yul\":2579:2602   */\n      sub\n        /* \"#utility.yul\":2575:2607   */\n      slt\n        /* \"#utility.yul\":2572:2624   */\n      iszero\n      tag_201\n      jumpi\n        /* \"#utility.yul\":2620:2621   */\n      0x00\n        /* \"#utility.yul\":2617:2618   */\n      dup1\n        /* \"#utility.yul\":2610:2622   */\n      revert\n        /* \"#utility.yul\":2572:2624   */\n    tag_201:\n        /* \"#utility.yul\":2660:2669   */\n      dup3\n        /* \"#utility.yul\":2647:2670   */\n      calldataload\n        /* \"#utility.yul\":2689:2707   */\n      0xffffffffffffffff\n        /* \"#utility.yul\":2730:2732   */\n      dup1\n        /* \"#utility.yul\":2722:2728   */\n      dup3\n        /* \"#utility.yul\":2719:2733   */\n      gt\n        /* \"#utility.yul\":2716:2750   */\n      iszero\n      tag_202\n      jumpi\n        /* \"#utility.yul\":2746:2747   */\n      0x00\n        /* \"#utility.yul\":2743:2744   */\n      dup1\n        /* \"#utility.yul\":2736:2748   */\n      revert\n        /* \"#utility.yul\":2716:2750   */\n    tag_202:\n        /* \"#utility.yul\":2784:2790   */\n      dup2\n        /* \"#utility.yul\":2773:2782   */\n      dup6\n        /* \"#utility.yul\":2769:2791   */\n      add\n        /* \"#utility.yul\":2759:2791   */\n      swap2\n      pop\n        /* \"#utility.yul\":2829:2836   */\n      dup6\n        /* \"#utility.yul\":2822:2826   */\n      0x1f\n        /* \"#utility.yul\":2818:2820   */\n      dup4\n        /* \"#utility.yul\":2814:2827   */\n      add\n        /* \"#utility.yul\":2810:2837   */\n      slt\n        /* \"#utility.yul\":2800:2855   */\n      tag_203\n      jumpi\n        /* \"#utility.yul\":2851:2852   */\n      0x00\n        /* \"#utility.yul\":2848:2849   */\n      dup1\n        /* \"#utility.yul\":2841:2853   */\n      revert\n        /* \"#utility.yul\":2800:2855   */\n    tag_203:\n        /* \"#utility.yul\":2891:2893   */\n      dup2\n        /* \"#utility.yul\":2878:2894   */\n      calldataload\n        /* \"#utility.yul\":2917:2919   */\n      dup2\n        /* \"#utility.yul\":2909:2915   */\n      dup2\n        /* \"#utility.yul\":2906:2920   */\n      gt\n        /* \"#utility.yul\":2903:2937   */\n      iszero\n      tag_204\n      jumpi\n        /* \"#utility.yul\":2933:2934   */\n      0x00\n        /* \"#utility.yul\":2930:2931   */\n      dup1\n        /* \"#utility.yul\":2923:2935   */\n      revert\n        /* \"#utility.yul\":2903:2937   */\n    tag_204:\n        /* \"#utility.yul\":2978:2985   */\n      dup7\n        /* \"#utility.yul\":2973:2975   */\n      0x20\n        /* \"#utility.yul\":2964:2970   */\n      dup3\n        /* \"#utility.yul\":2960:2962   */\n      dup6\n        /* \"#utility.yul\":2956:2971   */\n      add\n        /* \"#utility.yul\":2952:2976   */\n      add\n        /* \"#utility.yul\":2949:2986   */\n      gt\n        /* \"#utility.yul\":2946:3003   */\n      iszero\n      tag_205\n      jumpi\n        /* \"#utility.yul\":2999:3000   */\n      0x00\n        /* \"#utility.yul\":2996:2997   */\n      dup1\n        /* \"#utility.yul\":2989:3001   */\n      revert\n        /* \"#utility.yul\":2946:3003   */\n    tag_205:\n        /* \"#utility.yul\":3030:3032   */\n      0x20\n        /* \"#utility.yul\":3022:3033   */\n      swap3\n      swap1\n      swap3\n      add\n      swap7\n        /* \"#utility.yul\":3052:3058   */\n      swap2\n      swap6\n      pop\n        /* \"#utility.yul\":2472:3064   */\n      swap1\n      swap4\n      pop\n      pop\n      pop\n      pop\n      jump\t// out\n        /* \"#utility.yul\":3069:3329   */\n    tag_49:\n        /* \"#utility.yul\":3137:3143   */\n      0x00\n        /* \"#utility.yul\":3145:3151   */\n      dup1\n        /* \"#utility.yul\":3198:3200   */\n      0x40\n        /* \"#utility.yul\":3186:3195   */\n      dup4\n        /* \"#utility.yul\":3177:3184   */\n      dup6\n        /* \"#utility.yul\":3173:3196   */\n      sub\n        /* \"#utility.yul\":3169:3201   */\n      slt\n        /* \"#utility.yul\":3166:3218   */\n      iszero\n      tag_207\n      jumpi\n        /* \"#utility.yul\":3214:3215   */\n      0x00\n        /* \"#utility.yul\":3211:3212   */\n      dup1\n        /* \"#utility.yul\":3204:3216   */\n      revert\n        /* \"#utility.yul\":3166:3218   */\n    tag_207:\n        /* \"#utility.yul\":3237:3266   */\n      tag_208\n        /* \"#utility.yul\":3256:3265   */\n      dup4\n        /* \"#utility.yul\":3237:3266   */\n      tag_172\n      jump\t// in\n    tag_208:\n        /* \"#utility.yul\":3227:3266   */\n      swap2\n      pop\n        /* \"#utility.yul\":3285:3323   */\n      tag_209\n        /* \"#utility.yul\":3319:3321   */\n      0x20\n        /* \"#utility.yul\":3308:3317   */\n      dup5\n        /* \"#utility.yul\":3304:3322   */\n      add\n        /* \"#utility.yul\":3285:3323   */\n      tag_172\n      jump\t// in\n    tag_209:\n        /* \"#utility.yul\":3275:3323   */\n      swap1\n      pop\n        /* \"#utility.yul\":3069:3329   */\n      swap3\n      pop\n      swap3\n      swap1\n      pop\n      jump\t// out\n        /* \"#utility.yul\":3516:4064   */\n    tag_57:\n        /* \"#utility.yul\":3628:3632   */\n      0x00\n        /* \"#utility.yul\":3657:3659   */\n      0x20\n        /* \"#utility.yul\":3686:3688   */\n      dup1\n        /* \"#utility.yul\":3675:3684   */\n      dup4\n        /* \"#utility.yul\":3668:3689   */\n      mstore\n        /* \"#utility.yul\":3718:3724   */\n      dup4\n        /* \"#utility.yul\":3712:3725   */\n      mload\n        /* \"#utility.yul\":3761:3767   */\n      dup1\n        /* \"#utility.yul\":3756:3758   */\n      dup3\n        /* \"#utility.yul\":3745:3754   */\n      dup6\n        /* \"#utility.yul\":3741:3759   */\n      add\n        /* \"#utility.yul\":3734:3768   */\n      mstore\n        /* \"#utility.yul\":3786:3787   */\n      0x00\n        /* \"#utility.yul\":3796:3936   */\n    tag_212:\n        /* \"#utility.yul\":3810:3816   */\n      dup2\n        /* \"#utility.yul\":3807:3808   */\n      dup2\n        /* \"#utility.yul\":3804:3817   */\n      lt\n        /* \"#utility.yul\":3796:3936   */\n      iszero\n      tag_214\n      jumpi\n        /* \"#utility.yul\":3905:3919   */\n      dup6\n      dup2\n      add\n        /* \"#utility.yul\":3901:3924   */\n      dup4\n      add\n        /* \"#utility.yul\":3895:3925   */\n      mload\n        /* \"#utility.yul\":3871:3888   */\n      dup6\n      dup3\n      add\n        /* \"#utility.yul\":3890:3892   */\n      0x40\n        /* \"#utility.yul\":3867:3893   */\n      add\n        /* \"#utility.yul\":3860:3926   */\n      mstore\n        /* \"#utility.yul\":3825:3835   */\n      dup3\n      add\n        /* \"#utility.yul\":3796:3936   */\n      jump(tag_212)\n    tag_214:\n        /* \"#utility.yul\":3800:3803   */\n      pop\n        /* \"#utility.yul\":3985:3986   */\n      0x00\n        /* \"#utility.yul\":3980:3982   */\n      0x40\n        /* \"#utility.yul\":3971:3977   */\n      dup3\n        /* \"#utility.yul\":3960:3969   */\n      dup7\n        /* \"#utility.yul\":3956:3978   */\n      add\n        /* \"#utility.yul\":3952:3983   */\n      add\n        /* \"#utility.yul\":3945:3987   */\n      mstore\n        /* \"#utility.yul\":4055:4057   */\n      0x40\n        /* \"#utility.yul\":4048:4050   */\n      0x1f\n        /* \"#utility.yul\":4044:4051   */\n      not\n        /* \"#utility.yul\":4039:4041   */\n      0x1f\n        /* \"#utility.yul\":4031:4037   */\n      dup4\n        /* \"#utility.yul\":4027:4042   */\n      add\n        /* \"#utility.yul\":4023:4052   */\n      and\n        /* \"#utility.yul\":4012:4021   */\n      dup6\n        /* \"#utility.yul\":4008:4053   */\n      add\n        /* \"#utility.yul\":4004:4058   */\n      add\n        /* \"#utility.yul\":3996:4058   */\n      swap3\n      pop\n      pop\n      pop\n        /* \"#utility.yul\":3516:4064   */\n      swap3\n      swap2\n      pop\n      pop\n      jump\t// out\n        /* \"#utility.yul\":4069:4792   */\n    tag_60:\n        /* \"#utility.yul\":4191:4197   */\n      0x00\n        /* \"#utility.yul\":4199:4205   */\n      dup1\n        /* \"#utility.yul\":4207:4213   */\n      0x00\n        /* \"#utility.yul\":4215:4221   */\n      dup1\n        /* \"#utility.yul\":4223:4229   */\n      0x00\n        /* \"#utility.yul\":4231:4237   */\n      dup1\n        /* \"#utility.yul\":4284:4287   */\n      0xa0\n        /* \"#utility.yul\":4272:4281   */\n      dup8\n        /* \"#utility.yul\":4263:4270   */\n      dup10\n        /* \"#utility.yul\":4259:4282   */\n      sub\n        /* \"#utility.yul\":4255:4288   */\n      slt\n        /* \"#utility.yul\":4252:4305   */\n      iszero\n      tag_216\n      jumpi\n        /* \"#utility.yul\":4301:4302   */\n      0x00\n        /* \"#utility.yul\":4298:4299   */\n      dup1\n        /* \"#utility.yul\":4291:4303   */\n      revert\n        /* \"#utility.yul\":4252:4305   */\n    tag_216:\n        /* \"#utility.yul\":4324:4353   */\n      tag_217\n        /* \"#utility.yul\":4343:4352   */\n      dup8\n        /* \"#utility.yul\":4324:4353   */\n      tag_172\n      jump\t// in\n    tag_217:\n        /* \"#utility.yul\":4314:4353   */\n      swap6\n      pop\n        /* \"#utility.yul\":4400:4402   */\n      0x20\n        /* \"#utility.yul\":4389:4398   */\n      dup8\n        /* \"#utility.yul\":4385:4403   */\n      add\n        /* \"#utility.yul\":4372:4404   */\n      calldataload\n        /* \"#utility.yul\":4362:4404   */\n      swap5\n      pop\n        /* \"#utility.yul\":4423:4461   */\n      tag_218\n        /* \"#utility.yul\":4457:4459   */\n      0x40\n        /* \"#utility.yul\":4446:4455   */\n      dup9\n        /* \"#utility.yul\":4442:4460   */\n      add\n        /* \"#utility.yul\":4423:4461   */\n      tag_172\n      jump\t// in\n    tag_218:\n        /* \"#utility.yul\":4413:4461   */\n      swap4\n      pop\n        /* \"#utility.yul\":4508:4510   */\n      0x60\n        /* \"#utility.yul\":4497:4506   */\n      dup8\n        /* \"#utility.yul\":4493:4511   */\n      add\n        /* \"#utility.yul\":4480:4512   */\n      calldataload\n        /* \"#utility.yul\":4470:4512   */\n      swap3\n      pop\n        /* \"#utility.yul\":4563:4566   */\n      0x80\n        /* \"#utility.yul\":4552:4561   */\n      dup8\n        /* \"#utility.yul\":4548:4567   */\n      add\n        /* \"#utility.yul\":4535:4568   */\n      calldataload\n        /* \"#utility.yul\":4591:4609   */\n      0xffffffffffffffff\n        /* \"#utility.yul\":4583:4589   */\n      dup2\n        /* \"#utility.yul\":4580:4610   */\n      gt\n        /* \"#utility.yul\":4577:4627   */\n      iszero\n      tag_219\n      jumpi\n        /* \"#utility.yul\":4623:4624   */\n      0x00\n        /* \"#utility.yul\":4620:4621   */\n      dup1\n        /* \"#utility.yul\":4613:4625   */\n      revert\n        /* \"#utility.yul\":4577:4627   */\n    tag_219:\n        /* \"#utility.yul\":4662:4732   */\n      tag_220\n        /* \"#utility.yul\":4724:4731   */\n      dup10\n        /* \"#utility.yul\":4715:4721   */\n      dup3\n        /* \"#utility.yul\":4704:4713   */\n      dup11\n        /* \"#utility.yul\":4700:4722   */\n      add\n        /* \"#utility.yul\":4662:4732   */\n      tag_171\n      jump\t// in\n    tag_220:\n        /* \"#utility.yul\":4069:4792   */\n      swap8\n      swap11\n      swap7\n      swap10\n      pop\n      swap5\n      swap8\n      pop\n      swap3\n      swap6\n        /* \"#utility.yul\":4751:4759   */\n      swap4\n      swap5\n        /* \"#utility.yul\":4069:4792   */\n      swap3\n      pop\n      pop\n      pop\n      jump\t// out\n        /* \"#utility.yul\":4797:4924   */\n    tag_74:\n        /* \"#utility.yul\":4858:4868   */\n      0x4e487b71\n        /* \"#utility.yul\":4853:4856   */\n      0xe0\n        /* \"#utility.yul\":4849:4869   */\n      shl\n        /* \"#utility.yul\":4846:4847   */\n      0x00\n        /* \"#utility.yul\":4839:4870   */\n      mstore\n        /* \"#utility.yul\":4889:4893   */\n      0x32\n        /* \"#utility.yul\":4886:4887   */\n      0x04\n        /* \"#utility.yul\":4879:4894   */\n      mstore\n        /* \"#utility.yul\":4913:4917   */\n      0x24\n        /* \"#utility.yul\":4910:4911   */\n      0x00\n        /* \"#utility.yul\":4903:4918   */\n      revert\n        /* \"#utility.yul\":4929:5056   */\n    tag_173:\n        /* \"#utility.yul\":4990:5000   */\n      0x4e487b71\n        /* \"#utility.yul\":4985:4988   */\n      0xe0\n        /* \"#utility.yul\":4981:5001   */\n      shl\n        /* \"#utility.yul\":4978:4979   */\n      0x00\n        /* \"#utility.yul\":4971:5002   */\n      mstore\n        /* \"#utility.yul\":5021:5025   */\n      0x11\n        /* \"#utility.yul\":5018:5019   */\n      0x04\n        /* \"#utility.yul\":5011:5026   */\n      mstore\n        /* \"#utility.yul\":5045:5049   */\n      0x24\n        /* \"#utility.yul\":5042:5043   */\n      0x00\n        /* \"#utility.yul\":5035:5050   */\n      revert\n        /* \"#utility.yul\":5061:5196   */\n    tag_77:\n        /* \"#utility.yul\":5100:5103   */\n      0x00\n        /* \"#utility.yul\":5121:5138   */\n      0x01\n      dup3\n      add\n        /* \"#utility.yul\":5118:5161   */\n      tag_225\n      jumpi\n        /* \"#utility.yul\":5141:5159   */\n      tag_225\n      tag_173\n      jump\t// in\n    tag_225:\n      pop\n        /* \"#utility.yul\":5188:5189   */\n      0x01\n        /* \"#utility.yul\":5177:5190   */\n      add\n      swap1\n        /* \"#utility.yul\":5061:5196   */\n      jump\t// out\n        /* \"#utility.yul\":5553:5886   */\n    tag_93:\n      not(0xffffffffffffffffffffffff)\n        /* \"#utility.yul\":5780:5782   */\n      0x60\n        /* \"#utility.yul\":5776:5791   */\n      swap4\n      dup5\n      shl\n        /* \"#utility.yul\":5772:5796   */\n      dup2\n      and\n        /* \"#utility.yul\":5760:5797   */\n      dup3\n      mstore\n        /* \"#utility.yul\":5831:5846   */\n      swap2\n      swap1\n      swap3\n      shl\n        /* \"#utility.yul\":5827:5851   */\n      and\n        /* \"#utility.yul\":5822:5824   */\n      0x14\n        /* \"#utility.yul\":5813:5825   */\n      dup3\n      add\n        /* \"#utility.yul\":5806:5852   */\n      mstore\n        /* \"#utility.yul\":5877:5879   */\n      0x28\n        /* \"#utility.yul\":5868:5880   */\n      add\n      swap1\n        /* \"#utility.yul\":5553:5886   */\n      jump\t// out\n        /* \"#utility.yul\":5891:6016   */\n    tag_95:\n        /* \"#utility.yul\":5956:5965   */\n      dup1\n      dup3\n      add\n        /* \"#utility.yul\":5977:5987   */\n      dup1\n      dup3\n      gt\n        /* \"#utility.yul\":5974:6010   */\n      iszero\n      tag_127\n      jumpi\n        /* \"#utility.yul\":5990:6008   */\n      tag_127\n      tag_173\n      jump\t// in\n        /* \"#utility.yul\":7405:7682   */\n    tag_110:\n        /* \"#utility.yul\":7472:7478   */\n      0x00\n        /* \"#utility.yul\":7525:7527   */\n      0x20\n        /* \"#utility.yul\":7513:7522   */\n      dup3\n        /* \"#utility.yul\":7504:7511   */\n      dup5\n        /* \"#utility.yul\":7500:7523   */\n      sub\n        /* \"#utility.yul\":7496:7528   */\n      slt\n        /* \"#utility.yul\":7493:7545   */\n      iszero\n      tag_236\n      jumpi\n        /* \"#utility.yul\":7541:7542   */\n      0x00\n        /* \"#utility.yul\":7538:7539   */\n      dup1\n        /* \"#utility.yul\":7531:7543   */\n      revert\n        /* \"#utility.yul\":7493:7545   */\n    tag_236:\n        /* \"#utility.yul\":7573:7582   */\n      dup2\n        /* \"#utility.yul\":7567:7583   */\n      mload\n        /* \"#utility.yul\":7626:7631   */\n      dup1\n        /* \"#utility.yul\":7619:7632   */\n      iszero\n        /* \"#utility.yul\":7612:7633   */\n      iszero\n        /* \"#utility.yul\":7605:7610   */\n      dup2\n        /* \"#utility.yul\":7602:7634   */\n      eq\n        /* \"#utility.yul\":7592:7652   */\n      tag_193\n      jumpi\n        /* \"#utility.yul\":7648:7649   */\n      0x00\n        /* \"#utility.yul\":7645:7646   */\n      dup1\n        /* \"#utility.yul\":7638:7650   */\n      revert\n        /* \"#utility.yul\":7687:7814   */\n    tag_174:\n        /* \"#utility.yul\":7748:7758   */\n      0x4e487b71\n        /* \"#utility.yul\":7743:7746   */\n      0xe0\n        /* \"#utility.yul\":7739:7759   */\n      shl\n        /* \"#utility.yul\":7736:7737   */\n      0x00\n        /* \"#utility.yul\":7729:7760   */\n      mstore\n        /* \"#utility.yul\":7779:7783   */\n      0x41\n        /* \"#utility.yul\":7776:7777   */\n      0x04\n        /* \"#utility.yul\":7769:7784   */\n      mstore\n        /* \"#utility.yul\":7803:7807   */\n      0x24\n        /* \"#utility.yul\":7800:7801   */\n      0x00\n        /* \"#utility.yul\":7793:7808   */\n      revert\n        /* \"#utility.yul\":7819:8199   */\n    tag_130:\n        /* \"#utility.yul\":7898:7899   */\n      0x01\n        /* \"#utility.yul\":7894:7906   */\n      dup2\n      dup2\n      shr\n      swap1\n        /* \"#utility.yul\":7941:7953   */\n      dup3\n      and\n      dup1\n        /* \"#utility.yul\":7962:8023   */\n      tag_240\n      jumpi\n        /* \"#utility.yul\":8016:8020   */\n      0x7f\n        /* \"#utility.yul\":8008:8014   */\n      dup3\n        /* \"#utility.yul\":8004:8021   */\n      and\n        /* \"#utility.yul\":7994:8021   */\n      swap2\n      pop\n        /* \"#utility.yul\":7962:8023   */\n    tag_240:\n        /* \"#utility.yul\":8069:8071   */\n      0x20\n        /* \"#utility.yul\":8061:8067   */\n      dup3\n        /* \"#utility.yul\":8058:8072   */\n      lt\n        /* \"#utility.yul\":8038:8056   */\n      dup2\n        /* \"#utility.yul\":8035:8073   */\n      sub\n        /* \"#utility.yul\":8032:8193   */\n      tag_241\n      jumpi\n        /* \"#utility.yul\":8115:8125   */\n      0x4e487b71\n        /* \"#utility.yul\":8110:8113   */\n      0xe0\n        /* \"#utility.yul\":8106:8126   */\n      shl\n        /* \"#utility.yul\":8103:8104   */\n      0x00\n        /* \"#utility.yul\":8096:8127   */\n      mstore\n        /* \"#utility.yul\":8150:8154   */\n      0x22\n        /* \"#utility.yul\":8147:8148   */\n      0x04\n        /* \"#utility.yul\":8140:8155   */\n      mstore\n        /* \"#utility.yul\":8178:8182   */\n      0x24\n        /* \"#utility.yul\":8175:8176   */\n      0x00\n        /* \"#utility.yul\":8168:8183   */\n      revert\n        /* \"#utility.yul\":8032:8193   */\n    tag_241:\n      pop\n        /* \"#utility.yul\":7819:8199   */\n      swap2\n      swap1\n      pop\n      jump\t// out\n        /* \"#utility.yul\":8330:8875   */\n    tag_176:\n        /* \"#utility.yul\":8432:8434   */\n      0x1f\n        /* \"#utility.yul\":8427:8430   */\n      dup3\n        /* \"#utility.yul\":8424:8435   */\n      gt\n        /* \"#utility.yul\":8421:8869   */\n      iszero\n      tag_125\n      jumpi\n        /* \"#utility.yul\":8468:8469   */\n      0x00\n        /* \"#utility.yul\":8493:8498   */\n      dup2\n        /* \"#utility.yul\":8489:8491   */\n      dup2\n        /* \"#utility.yul\":8482:8499   */\n      mstore\n        /* \"#utility.yul\":8538:8542   */\n      0x20\n        /* \"#utility.yul\":8534:8536   */\n      dup2\n        /* \"#utility.yul\":8524:8543   */\n      keccak256\n        /* \"#utility.yul\":8608:8610   */\n      0x1f\n        /* \"#utility.yul\":8596:8606   */\n      dup6\n        /* \"#utility.yul\":8592:8611   */\n      add\n        /* \"#utility.yul\":8589:8590   */\n      0x05\n        /* \"#utility.yul\":8585:8612   */\n      shr\n        /* \"#utility.yul\":8579:8583   */\n      dup2\n        /* \"#utility.yul\":8575:8613   */\n      add\n        /* \"#utility.yul\":8644:8648   */\n      0x20\n        /* \"#utility.yul\":8632:8642   */\n      dup7\n        /* \"#utility.yul\":8629:8649   */\n      lt\n        /* \"#utility.yul\":8626:8673   */\n      iszero\n      tag_245\n      jumpi\n      pop\n        /* \"#utility.yul\":8667:8671   */\n      dup1\n        /* \"#utility.yul\":8626:8673   */\n    tag_245:\n        /* \"#utility.yul\":8722:8724   */\n      0x1f\n        /* \"#utility.yul\":8717:8720   */\n      dup6\n        /* \"#utility.yul\":8713:8725   */\n      add\n        /* \"#utility.yul\":8710:8711   */\n      0x05\n        /* \"#utility.yul\":8706:8726   */\n      shr\n        /* \"#utility.yul\":8700:8704   */\n      dup3\n        /* \"#utility.yul\":8696:8727   */\n      add\n        /* \"#utility.yul\":8686:8727   */\n      swap2\n      pop\n        /* \"#utility.yul\":8777:8859   */\n    tag_246:\n        /* \"#utility.yul\":8795:8797   */\n      dup2\n        /* \"#utility.yul\":8788:8793   */\n      dup2\n        /* \"#utility.yul\":8785:8798   */\n      lt\n        /* \"#utility.yul\":8777:8859   */\n      iszero\n      tag_248\n      jumpi\n        /* \"#utility.yul\":8840:8857   */\n      dup3\n      dup2\n      sstore\n        /* \"#utility.yul\":8821:8822   */\n      0x01\n        /* \"#utility.yul\":8810:8823   */\n      add\n        /* \"#utility.yul\":8777:8859   */\n      jump(tag_246)\n    tag_248:\n        /* \"#utility.yul\":8781:8784   */\n      pop\n      pop\n      pop\n        /* \"#utility.yul\":8330:8875   */\n      pop\n      pop\n      pop\n      jump\t// out\n        /* \"#utility.yul\":9051:10257   */\n    tag_126:\n        /* \"#utility.yul\":9175:9193   */\n      0xffffffffffffffff\n        /* \"#utility.yul\":9170:9173   */\n      dup4\n        /* \"#utility.yul\":9167:9194   */\n      gt\n        /* \"#utility.yul\":9164:9217   */\n      iszero\n      tag_252\n      jumpi\n        /* \"#utility.yul\":9197:9215   */\n      tag_252\n      tag_174\n      jump\t// in\n    tag_252:\n        /* \"#utility.yul\":9226:9320   */\n      tag_253\n        /* \"#utility.yul\":9316:9319   */\n      dup4\n        /* \"#utility.yul\":9276:9314   */\n      tag_254\n        /* \"#utility.yul\":9308:9312   */\n      dup4\n        /* \"#utility.yul\":9302:9313   */\n      sload\n        /* \"#utility.yul\":9276:9314   */\n      tag_130\n      jump\t// in\n    tag_254:\n        /* \"#utility.yul\":9270:9274   */\n      dup4\n        /* \"#utility.yul\":9226:9320   */\n      tag_176\n      jump\t// in\n    tag_253:\n        /* \"#utility.yul\":9346:9347   */\n      0x00\n        /* \"#utility.yul\":9371:9373   */\n      0x1f\n        /* \"#utility.yul\":9366:9369   */\n      dup5\n        /* \"#utility.yul\":9363:9374   */\n      gt\n        /* \"#utility.yul\":9388:9389   */\n      0x01\n        /* \"#utility.yul\":9383:9999   */\n      dup2\n      eq\n      tag_256\n      jumpi\n        /* \"#utility.yul\":10043:10044   */\n      0x00\n        /* \"#utility.yul\":10060:10063   */\n      dup6\n        /* \"#utility.yul\":10057:10150   */\n      iszero\n      tag_257\n      jumpi\n      pop\n        /* \"#utility.yul\":10116:10135   */\n      dup4\n      dup3\n      add\n        /* \"#utility.yul\":10103:10136   */\n      calldataload\n        /* \"#utility.yul\":10057:10150   */\n    tag_257:\n      not(0x00)\n        /* \"#utility.yul\":9008:9009   */\n      0x03\n        /* \"#utility.yul\":9004:9015   */\n      dup8\n      swap1\n      shl\n        /* \"#utility.yul\":9000:9024   */\n      shr\n        /* \"#utility.yul\":8996:9025   */\n      not\n        /* \"#utility.yul\":8986:9026   */\n      and\n        /* \"#utility.yul\":9032:9033   */\n      0x01\n        /* \"#utility.yul\":9028:9039   */\n      dup7\n      swap1\n      shl\n        /* \"#utility.yul\":8983:9040   */\n      or\n        /* \"#utility.yul\":10163:10241   */\n      dup4\n      sstore\n        /* \"#utility.yul\":9356:10251   */\n      jump(tag_255)\n        /* \"#utility.yul\":9383:9999   */\n    tag_256:\n        /* \"#utility.yul\":8277:8278   */\n      0x00\n        /* \"#utility.yul\":8270:8284   */\n      dup4\n      dup2\n      mstore\n        /* \"#utility.yul\":8314:8318   */\n      0x20\n        /* \"#utility.yul\":8301:8319   */\n      swap1\n      keccak256\n      not(0x1f)\n        /* \"#utility.yul\":9419:9436   */\n      dup7\n      and\n      swap1\n        /* \"#utility.yul\":9520:9529   */\n      dup4\n        /* \"#utility.yul\":9542:9771   */\n    tag_260:\n        /* \"#utility.yul\":9556:9563   */\n      dup3\n        /* \"#utility.yul\":9553:9554   */\n      dup2\n        /* \"#utility.yul\":9550:9564   */\n      lt\n        /* \"#utility.yul\":9542:9771   */\n      iszero\n      tag_262\n      jumpi\n        /* \"#utility.yul\":9645:9664   */\n      dup7\n      dup6\n      add\n        /* \"#utility.yul\":9632:9665   */\n      calldataload\n        /* \"#utility.yul\":9617:9666   */\n      dup3\n      sstore\n        /* \"#utility.yul\":9752:9756   */\n      0x20\n        /* \"#utility.yul\":9737:9757   */\n      swap5\n      dup6\n      add\n      swap5\n        /* \"#utility.yul\":9705:9706   */\n      0x01\n        /* \"#utility.yul\":9693:9707   */\n      swap1\n      swap3\n      add\n      swap2\n        /* \"#utility.yul\":9572:9584   */\n      add\n        /* \"#utility.yul\":9542:9771   */\n      jump(tag_260)\n    tag_262:\n        /* \"#utility.yul\":9546:9549   */\n      pop\n        /* \"#utility.yul\":9799:9802   */\n      dup7\n        /* \"#utility.yul\":9790:9797   */\n      dup3\n        /* \"#utility.yul\":9787:9803   */\n      lt\n        /* \"#utility.yul\":9784:9943   */\n      iszero\n      tag_263\n      jumpi\n        /* \"#utility.yul\":9923:9924   */\n      0x00\n        /* \"#utility.yul\":9919:9925   */\n      not\n        /* \"#utility.yul\":9913:9916   */\n      0xf8\n        /* \"#utility.yul\":9907:9910   */\n      dup9\n        /* \"#utility.yul\":9904:9905   */\n      0x03\n        /* \"#utility.yul\":9900:9911   */\n      shl\n        /* \"#utility.yul\":9896:9917   */\n      and\n        /* \"#utility.yul\":9892:9926   */\n      shr\n        /* \"#utility.yul\":9888:9927   */\n      not\n        /* \"#utility.yul\":9875:9884   */\n      dup5\n        /* \"#utility.yul\":9870:9873   */\n      dup8\n        /* \"#utility.yul\":9866:9885   */\n      add\n        /* \"#utility.yul\":9853:9886   */\n      calldataload\n        /* \"#utility.yul\":9849:9928   */\n      and\n        /* \"#utility.yul\":9841:9847   */\n      dup2\n        /* \"#utility.yul\":9834:9929   */\n      sstore\n        /* \"#utility.yul\":9784:9943   */\n    tag_263:\n      pop\n      pop\n        /* \"#utility.yul\":9986:9987   */\n      0x01\n        /* \"#utility.yul\":9980:9983   */\n      dup6\n        /* \"#utility.yul\":9977:9978   */\n      0x01\n        /* \"#utility.yul\":9973:9984   */\n      shl\n        /* \"#utility.yul\":9969:9988   */\n      add\n        /* \"#utility.yul\":9963:9967   */\n      dup4\n        /* \"#utility.yul\":9956:9989   */\n      sstore\n        /* \"#utility.yul\":9356:10251   */\n    tag_255:\n      pop\n      pop\n        /* \"#utility.yul\":9051:10257   */\n      pop\n      pop\n      pop\n      jump\t// out\n\n    auxdata: 0xa26469706673582212208e498a6cfa826fb52be6496768fe01fa72e48c20e2936035e798ff483fedbf6264736f6c63430008120033\n}\n",
				"bytecode": {
					"linkReferences": {},
					"object": "608060405234801561001057600080fd5b5061001a3361001f565b61006f565b600080546001600160a01b038381166001600160a01b0319831681178455604051919092169283917f8be0079c531659141344cd1fd0a4f28419497f9722a3daafe3b4186f6b6457e09190a35050565b610fcc8061007e6000396000f3fe608060405234801561001057600080fd5b50600436106100b45760003560e01c8063972deed611610071578063972deed614610158578063bfee766b1461016b578063c64e2ea51461018e578063d2301c9f146101af578063e2594b30146101cf578063f2fde38b146101e257600080fd5b80630aed32c7146100b957806338c73aee146100ce578063405f25aa1461010f5780636821c9a314610122578063715018a6146101355780638da5cb5b1461013d575b600080fd5b6100cc6100c7366004610b24565b6101f5565b005b6100fa6100dc366004610bcd565b6001600160a01b031660009081526001602052604090205460ff1690565b60405190151581526020015b60405180910390f35b6100cc61011d366004610bef565b610337565b6100cc610130366004610bcd565b6105b1565b6100cc610608565b6000546040516001600160a01b039091168152602001610106565b6100cc610166366004610c2b565b61061c565b6100fa610179366004610bcd565b60016020526000908152604090205460ff1681565b6101a161019c366004610c9d565b610694565b604051908152602001610106565b6101c26101bd366004610bcd565b6106c8565b6040516101069190610cd0565b6100cc6101dd366004610d1e565b610762565b6100cc6101f0366004610bcd565b6109b5565b6101fd610a2e565b60008781526003602052604081206001810188905560048101879055905b8481101561028c57600182600501600088888581811061023d5761023d610d96565b90506020020160208101906102529190610bcd565b6001600160a01b031681526020810191909152604001600020805460ff19169115159190911790558061028481610dc2565b91505061021b565b5060005b828110156103015760008260050160008686858181106102b2576102b2610d96565b90506020020160208101906102c79190610bcd565b6001600160a01b031681526020810191909152604001600020805460ff1916911515919091179055806102f981610dc2565b915050610290565b5060405188907fd3973df93f68e12513b578087854cfe3053d0833cdd737bb42d9745e64bdd32590600090a25050505050505050565b3360009081526001602052604090205460ff166103955760405162461bcd60e51b81526020600482015260176024820152764e6f74206120766572696669656420656d706c6f79656560481b60448201526064015b60405180910390fd5b600083336040516020016103aa929190610ddb565b604051602081830303815290604052805190602001209050600060036000838152602001908152602001600020905042816004015482600301546103ee9190610e02565b1161042f5760405162461bcd60e51b8152602060048201526011602482015270141c9bdd9a5cda5bdb88195e1c1a5c9959607a1b604482015260640161038c565b838160010154101561048f5760405162461bcd60e51b815260206004820152602360248201527f547279696e6720746f207370656e64206d6f7265207468616e2070726f76697360448201526234b7b760e91b606482015260840161038c565b6001600160a01b038316600090815260058201602052604090205460ff1615156001146104fe5760405162461bcd60e51b815260206004820152601a60248201527f526563697069656e74206e6f74206f6e20616c6c6f776c697374000000000000604482015260640161038c565b60405163a9059cbb60e01b81526001600160a01b0384811660048301526024820186905286169063a9059cbb906044016020604051808303816000875af115801561054d573d6000803e3d6000fd5b505050506040513d601f19601f820116820180604052508101906105719190610e15565b50826001600160a01b031684837ffed4c996f9a5a74907d3286e9a31755d17cf5d72f3ff3d442ea799e8636cd57460405160405180910390a45050505050565b6105b9610a2e565b6001600160a01b0381166000818152600160208190526040808320805460ff1916909217909155517f3b026ffc6936dc375a71d755b60b668f20ae8d41f7ebba0a732e750f8cd2929e9190a250565b610610610a2e565b61061a6000610a88565b565b3360009081526001602052604090205460ff166106755760405162461bcd60e51b81526020600482015260176024820152764e6f74206120766572696669656420656d706c6f79656560481b604482015260640161038c565b33600090815260046020526040902061068f828483610ed5565b505050565b600082826040516020016106a9929190610ddb565b6040516020818303038152906040528051906020012090505b92915050565b600460205260009081526040902080546106e190610e4d565b80601f016020809104026020016040519081016040528092919081815260200182805461070d90610e4d565b801561075a5780601f1061072f5761010080835404028352916020019161075a565b820191906000526020600020905b81548152906001019060200180831161073d57829003601f168201915b505050505081565b61076a610a2e565b6001600160a01b03841660009081526001602052604090205460ff166107e25760405162461bcd60e51b815260206004820152602760248201527f43616e206f6e6c792070726f766973696f6e20746f20766572696669656420656044820152666d706c6f79656560c81b606482015260840161038c565b6040516323b872dd60e01b8152336004820152306024820152604481018690526001600160a01b038716906323b872dd906064016020604051808303816000875af1158015610835573d6000803e3d6000fd5b505050506040513d601f19601f820116820180604052508101906108599190610e15565b506000868560405160200161086f929190610ddb565b60408051601f1981840301815291815281516020928301206001600160a01b03808916600081815260028087528582208583528752858220805460ff191660019081179091556003978890529582208054948f166001600160a01b03199586161781559586018d9055850180549093169091179091554293830193909355600482018790559250905b8381101561096957600182600501600087878581811061091a5761091a610d96565b905060200201602081019061092f9190610bcd565b6001600160a01b031681526020810191909152604001600020805460ff19169115159190911790558061096181610dc2565b9150506108f8565b50856001600160a01b0316886001600160a01b0316837f1d5b0515ae7f45e3f6d62d22ebfc1913f698c59359f46cd2319311b6a3f38e7060405160405180910390a45050505050505050565b6109bd610a2e565b6001600160a01b038116610a225760405162461bcd60e51b815260206004820152602660248201527f4f776e61626c653a206e6577206f776e657220697320746865207a65726f206160448201526564647265737360d01b606482015260840161038c565b610a2b81610a88565b50565b6000546001600160a01b0316331461061a5760405162461bcd60e51b815260206004820181905260248201527f4f776e61626c653a2063616c6c6572206973206e6f7420746865206f776e6572604482015260640161038c565b600080546001600160a01b038381166001600160a01b0319831681178455604051919092169283917f8be0079c531659141344cd1fd0a4f28419497f9722a3daafe3b4186f6b6457e09190a35050565b60008083601f840112610aea57600080fd5b50813567ffffffffffffffff811115610b0257600080fd5b6020830191508360208260051b8501011115610b1d57600080fd5b9250929050565b600080600080600080600060a0888a031215610b3f57600080fd5b873596506020880135955060408801359450606088013567ffffffffffffffff80821115610b6c57600080fd5b610b788b838c01610ad8565b909650945060808a0135915080821115610b9157600080fd5b50610b9e8a828b01610ad8565b989b979a50959850939692959293505050565b80356001600160a01b0381168114610bc857600080fd5b919050565b600060208284031215610bdf57600080fd5b610be882610bb1565b9392505050565b600080600060608486031215610c0457600080fd5b610c0d84610bb1565b925060208401359150610c2260408501610bb1565b90509250925092565b60008060208385031215610c3e57600080fd5b823567ffffffffffffffff80821115610c5657600080fd5b818501915085601f830112610c6a57600080fd5b813581811115610c7957600080fd5b866020828501011115610c8b57600080fd5b60209290920196919550909350505050565b60008060408385031215610cb057600080fd5b610cb983610bb1565b9150610cc760208401610bb1565b90509250929050565b600060208083528351808285015260005b81811015610cfd57858101830151858201604001528201610ce1565b506000604082860101526040601f19601f8301168501019250505092915050565b60008060008060008060a08789031215610d3757600080fd5b610d4087610bb1565b955060208701359450610d5560408801610bb1565b935060608701359250608087013567ffffffffffffffff811115610d7857600080fd5b610d8489828a01610ad8565b979a9699509497509295939492505050565b634e487b7160e01b600052603260045260246000fd5b634e487b7160e01b600052601160045260246000fd5b600060018201610dd457610dd4610dac565b5060010190565b6bffffffffffffffffffffffff19606093841b811682529190921b16601482015260280190565b808201808211156106c2576106c2610dac565b600060208284031215610e2757600080fd5b81518015158114610be857600080fd5b634e487b7160e01b600052604160045260246000fd5b600181811c90821680610e6157607f821691505b602082108103610e8157634e487b7160e01b600052602260045260246000fd5b50919050565b601f82111561068f57600081815260208120601f850160051c81016020861015610eae5750805b601f850160051c820191505b81811015610ecd57828155600101610eba565b505050505050565b67ffffffffffffffff831115610eed57610eed610e37565b610f0183610efb8354610e4d565b83610e87565b6000601f841160018114610f355760008515610f1d5750838201355b600019600387901b1c1916600186901b178355610f8f565b600083815260209020601f19861690835b82811015610f665786850135825560209485019460019092019101610f46565b5086821015610f835760001960f88860031b161c19848701351681555b505060018560011b0183555b505050505056fea26469706673582212208e498a6cfa826fb52be6496768fe01fa72e48c20e2936035e798ff483fedbf6264736f6c63430008120033",
					"opcodes": "PUSH1 0x80 PUSH1 0x40 MSTORE CALLVALUE DUP1 ISZERO PUSH2 0x10 JUMPI PUSH1 0x0 DUP1 REVERT JUMPDEST POP PUSH2 0x1A CALLER PUSH2 0x1F JUMP JUMPDEST PUSH2 0x6F JUMP JUMPDEST PUSH1 0x0 DUP1 SLOAD PUSH1 0x1 PUSH1 0x1 PUSH1 0xA0 SHL SUB DUP4 DUP2 AND PUSH1 0x1 PUSH1 0x1 PUSH1 0xA0 SHL SUB NOT DUP4 AND DUP2 OR DUP5 SSTORE PUSH1 0x40 MLOAD SWAP2 SWAP1 SWAP3 AND SWAP3 DUP4 SWAP2 PUSH32 0x8BE0079C531659141344CD1FD0A4F28419497F9722A3DAAFE3B4186F6B6457E0 SWAP2 SWAP1 LOG3 POP POP JUMP JUMPDEST PUSH2 0xFCC DUP1 PUSH2 0x7E PUSH1 0x0 CODECOPY PUSH1 0x0 RETURN INVALID PUSH1 0x80 PUSH1 0x40 MSTORE CALLVALUE DUP1 ISZERO PUSH2 0x10 JUMPI PUSH1 0x0 DUP1 REVERT JUMPDEST POP PUSH1 0x4 CALLDATASIZE LT PUSH2 0xB4 JUMPI PUSH1 0x0 CALLDATALOAD PUSH1 0xE0 SHR DUP1 PUSH4 0x972DEED6 GT PUSH2 0x71 JUMPI DUP1 PUSH4 0x972DEED6 EQ PUSH2 0x158 JUMPI DUP1 PUSH4 0xBFEE766B EQ PUSH2 0x16B JUMPI DUP1 PUSH4 0xC64E2EA5 EQ PUSH2 0x18E JUMPI DUP1 PUSH4 0xD2301C9F EQ PUSH2 0x1AF JUMPI DUP1 PUSH4 0xE2594B30 EQ PUSH2 0x1CF JUMPI DUP1 PUSH4 0xF2FDE38B EQ PUSH2 0x1E2 JUMPI PUSH1 0x0 DUP1 REVERT JUMPDEST DUP1 PUSH4 0xAED32C7 EQ PUSH2 0xB9 JUMPI DUP1 PUSH4 0x38C73AEE EQ PUSH2 0xCE JUMPI DUP1 PUSH4 0x405F25AA EQ PUSH2 0x10F JUMPI DUP1 PUSH4 0x6821C9A3 EQ PUSH2 0x122 JUMPI DUP1 PUSH4 0x715018A6 EQ PUSH2 0x135 JUMPI DUP1 PUSH4 0x8DA5CB5B EQ PUSH2 0x13D JUMPI JUMPDEST PUSH1 0x0 DUP1 REVERT JUMPDEST PUSH2 0xCC PUSH2 0xC7 CALLDATASIZE PUSH1 0x4 PUSH2 0xB24 JUMP JUMPDEST PUSH2 0x1F5 JUMP JUMPDEST STOP JUMPDEST PUSH2 0xFA PUSH2 0xDC CALLDATASIZE PUSH1 0x4 PUSH2 0xBCD JUMP JUMPDEST PUSH1 0x1 PUSH1 0x1 PUSH1 0xA0 SHL SUB AND PUSH1 0x0 SWAP1 DUP2 MSTORE PUSH1 0x1 PUSH1 0x20 MSTORE PUSH1 0x40 SWAP1 KECCAK256 SLOAD PUSH1 0xFF AND SWAP1 JUMP JUMPDEST PUSH1 0x40 MLOAD SWAP1 ISZERO ISZERO DUP2 MSTORE PUSH1 0x20 ADD JUMPDEST PUSH1 0x40 MLOAD DUP1 SWAP2 SUB SWAP1 RETURN JUMPDEST PUSH2 0xCC PUSH2 0x11D CALLDATASIZE PUSH1 0x4 PUSH2 0xBEF JUMP JUMPDEST PUSH2 0x337 JUMP JUMPDEST PUSH2 0xCC PUSH2 0x130 CALLDATASIZE PUSH1 0x4 PUSH2 0xBCD JUMP JUMPDEST PUSH2 0x5B1 JUMP JUMPDEST PUSH2 0xCC PUSH2 0x608 JUMP JUMPDEST PUSH1 0x0 SLOAD PUSH1 0x40 MLOAD PUSH1 0x1 PUSH1 0x1 PUSH1 0xA0 SHL SUB SWAP1 SWAP2 AND DUP2 MSTORE PUSH1 0x20 ADD PUSH2 0x106 JUMP JUMPDEST PUSH2 0xCC PUSH2 0x166 CALLDATASIZE PUSH1 0x4 PUSH2 0xC2B JUMP JUMPDEST PUSH2 0x61C JUMP JUMPDEST PUSH2 0xFA PUSH2 0x179 CALLDATASIZE PUSH1 0x4 PUSH2 0xBCD JUMP JUMPDEST PUSH1 0x1 PUSH1 0x20 MSTORE PUSH1 0x0 SWAP1 DUP2 MSTORE PUSH1 0x40 SWAP1 KECCAK256 SLOAD PUSH1 0xFF AND DUP2 JUMP JUMPDEST PUSH2 0x1A1 PUSH2 0x19C CALLDATASIZE PUSH1 0x4 PUSH2 0xC9D JUMP JUMPDEST PUSH2 0x694 JUMP JUMPDEST PUSH1 0x40 MLOAD SWAP1 DUP2 MSTORE PUSH1 0x20 ADD PUSH2 0x106 JUMP JUMPDEST PUSH2 0x1C2 PUSH2 0x1BD CALLDATASIZE PUSH1 0x4 PUSH2 0xBCD JUMP JUMPDEST PUSH2 0x6C8 JUMP JUMPDEST PUSH1 0x40 MLOAD PUSH2 0x106 SWAP2 SWAP1 PUSH2 0xCD0 JUMP JUMPDEST PUSH2 0xCC PUSH2 0x1DD CALLDATASIZE PUSH1 0x4 PUSH2 0xD1E JUMP JUMPDEST PUSH2 0x762 JUMP JUMPDEST PUSH2 0xCC PUSH2 0x1F0 CALLDATASIZE PUSH1 0x4 PUSH2 0xBCD JUMP JUMPDEST PUSH2 0x9B5 JUMP JUMPDEST PUSH2 0x1FD PUSH2 0xA2E JUMP JUMPDEST PUSH1 0x0 DUP8 DUP2 MSTORE PUSH1 0x3 PUSH1 0x20 MSTORE PUSH1 0x40 DUP2 KECCAK256 PUSH1 0x1 DUP2 ADD DUP9 SWAP1 SSTORE PUSH1 0x4 DUP2 ADD DUP8 SWAP1 SSTORE SWAP1 JUMPDEST DUP5 DUP2 LT ISZERO PUSH2 0x28C JUMPI PUSH1 0x1 DUP3 PUSH1 0x5 ADD PUSH1 0x0 DUP9 DUP9 DUP6 DUP2 DUP2 LT PUSH2 0x23D JUMPI PUSH2 0x23D PUSH2 0xD96 JUMP JUMPDEST SWAP1 POP PUSH1 0x20 MUL ADD PUSH1 0x20 DUP2 ADD SWAP1 PUSH2 0x252 SWAP2 SWAP1 PUSH2 0xBCD JUMP JUMPDEST PUSH1 0x1 PUSH1 0x1 PUSH1 0xA0 SHL SUB AND DUP2 MSTORE PUSH1 0x20 DUP2 ADD SWAP2 SWAP1 SWAP2 MSTORE PUSH1 0x40 ADD PUSH1 0x0 KECCAK256 DUP1 SLOAD PUSH1 0xFF NOT AND SWAP2 ISZERO ISZERO SWAP2 SWAP1 SWAP2 OR SWAP1 SSTORE DUP1 PUSH2 0x284 DUP2 PUSH2 0xDC2 JUMP JUMPDEST SWAP2 POP POP PUSH2 0x21B JUMP JUMPDEST POP PUSH1 0x0 JUMPDEST DUP3 DUP2 LT ISZERO PUSH2 0x301 JUMPI PUSH1 0x0 DUP3 PUSH1 0x5 ADD PUSH1 0x0 DUP7 DUP7 DUP6 DUP2 DUP2 LT PUSH2 0x2B2 JUMPI PUSH2 0x2B2 PUSH2 0xD96 JUMP JUMPDEST SWAP1 POP PUSH1 0x20 MUL ADD PUSH1 0x20 DUP2 ADD SWAP1 PUSH2 0x2C7 SWAP2 SWAP1 PUSH2 0xBCD JUMP JUMPDEST PUSH1 0x1 PUSH1 0x1 PUSH1 0xA0 SHL SUB AND DUP2 MSTORE PUSH1 0x20 DUP2 ADD SWAP2 SWAP1 SWAP2 MSTORE PUSH1 0x40 ADD PUSH1 0x0 KECCAK256 DUP1 SLOAD PUSH1 0xFF NOT AND SWAP2 ISZERO ISZERO SWAP2 SWAP1 SWAP2 OR SWAP1 SSTORE DUP1 PUSH2 0x2F9 DUP2 PUSH2 0xDC2 JUMP JUMPDEST SWAP2 POP POP PUSH2 0x290 JUMP JUMPDEST POP PUSH1 0x40 MLOAD DUP9 SWAP1 PUSH32 0xD3973DF93F68E12513B578087854CFE3053D0833CDD737BB42D9745E64BDD325 SWAP1 PUSH1 0x0 SWAP1 LOG2 POP POP POP POP POP POP POP POP JUMP JUMPDEST CALLER PUSH1 0x0 SWAP1 DUP2 MSTORE PUSH1 0x1 PUSH1 0x20 MSTORE PUSH1 0x40 SWAP1 KECCAK256 SLOAD PUSH1 0xFF AND PUSH2 0x395 JUMPI PUSH1 0x40 MLOAD PUSH3 0x461BCD PUSH1 0xE5 SHL DUP2 MSTORE PUSH1 0x20 PUSH1 0x4 DUP3 ADD MSTORE PUSH1 0x17 PUSH1 0x24 DUP3 ADD MSTORE PUSH23 0x4E6F74206120766572696669656420656D706C6F796565 PUSH1 0x48 SHL PUSH1 0x44 DUP3 ADD MSTORE PUSH1 0x64 ADD JUMPDEST PUSH1 0x40 MLOAD DUP1 SWAP2 SUB SWAP1 REVERT JUMPDEST PUSH1 0x0 DUP4 CALLER PUSH1 0x40 MLOAD PUSH1 0x20 ADD PUSH2 0x3AA SWAP3 SWAP2 SWAP1 PUSH2 0xDDB JUMP JUMPDEST PUSH1 0x40 MLOAD PUSH1 0x20 DUP2 DUP4 SUB SUB DUP2 MSTORE SWAP1 PUSH1 0x40 MSTORE DUP1 MLOAD SWAP1 PUSH1 0x20 ADD KECCAK256 SWAP1 POP PUSH1 0x0 PUSH1 0x3 PUSH1 0x0 DUP4 DUP2 MSTORE PUSH1 0x20 ADD SWAP1 DUP2 MSTORE PUSH1 0x20 ADD PUSH1 0x0 KECCAK256 SWAP1 POP TIMESTAMP DUP2 PUSH1 0x4 ADD SLOAD DUP3 PUSH1 0x3 ADD SLOAD PUSH2 0x3EE SWAP2 SWAP1 PUSH2 0xE02 JUMP JUMPDEST GT PUSH2 0x42F JUMPI PUSH1 0x40 MLOAD PUSH3 0x461BCD PUSH1 0xE5 SHL DUP2 MSTORE PUSH1 0x20 PUSH1 0x4 DUP3 ADD MSTORE PUSH1 0x11 PUSH1 0x24 DUP3 ADD MSTORE PUSH17 0x141C9BDD9A5CDA5BDB88195E1C1A5C9959 PUSH1 0x7A SHL PUSH1 0x44 DUP3 ADD MSTORE PUSH1 0x64 ADD PUSH2 0x38C JUMP JUMPDEST DUP4 DUP2 PUSH1 0x1 ADD SLOAD LT ISZERO PUSH2 0x48F JUMPI PUSH1 0x40 MLOAD PUSH3 0x461BCD PUSH1 0xE5 SHL DUP2 MSTORE PUSH1 0x20 PUSH1 0x4 DUP3 ADD MSTORE PUSH1 0x23 PUSH1 0x24 DUP3 ADD MSTORE PUSH32 0x547279696E6720746F207370656E64206D6F7265207468616E2070726F766973 PUSH1 0x44 DUP3 ADD MSTORE PUSH3 0x34B7B7 PUSH1 0xE9 SHL PUSH1 0x64 DUP3 ADD MSTORE PUSH1 0x84 ADD PUSH2 0x38C JUMP JUMPDEST PUSH1 0x1 PUSH1 0x1 PUSH1 0xA0 SHL SUB DUP4 AND PUSH1 0x0 SWAP1 DUP2 MSTORE PUSH1 0x5 DUP3 ADD PUSH1 0x20 MSTORE PUSH1 0x40 SWAP1 KECCAK256 SLOAD PUSH1 0xFF AND ISZERO ISZERO PUSH1 0x1 EQ PUSH2 0x4FE JUMPI PUSH1 0x40 MLOAD PUSH3 0x461BCD PUSH1 0xE5 SHL DUP2 MSTORE PUSH1 0x20 PUSH1 0x4 DUP3 ADD MSTORE PUSH1 0x1A PUSH1 0x24 DUP3 ADD MSTORE PUSH32 0x526563697069656E74206E6F74206F6E20616C6C6F776C697374000000000000 PUSH1 0x44 DUP3 ADD MSTORE PUSH1 0x64 ADD PUSH2 0x38C JUMP JUMPDEST PUSH1 0x40 MLOAD PUSH4 0xA9059CBB PUSH1 0xE0 SHL DUP2 MSTORE PUSH1 0x1 PUSH1 0x1 PUSH1 0xA0 SHL SUB DUP5 DUP2 AND PUSH1 0x4 DUP4 ADD MSTORE PUSH1 0x24 DUP3 ADD DUP7 SWAP1 MSTORE DUP7 AND SWAP1 PUSH4 0xA9059CBB SWAP1 PUSH1 0x44 ADD PUSH1 0x20 PUSH1 0x40 MLOAD DUP1 DUP4 SUB DUP2 PUSH1 0x0 DUP8 GAS CALL ISZERO DUP1 ISZERO PUSH2 0x54D JUMPI RETURNDATASIZE PUSH1 0x0 DUP1 RETURNDATACOPY RETURNDATASIZE PUSH1 0x0 REVERT JUMPDEST POP POP POP POP PUSH1 0x40 MLOAD RETURNDATASIZE PUSH1 0x1F NOT PUSH1 0x1F DUP3 ADD AND DUP3 ADD DUP1 PUSH1 0x40 MSTORE POP DUP2 ADD SWAP1 PUSH2 0x571 SWAP2 SWAP1 PUSH2 0xE15 JUMP JUMPDEST POP DUP3 PUSH1 0x1 PUSH1 0x1 PUSH1 0xA0 SHL SUB AND DUP5 DUP4 PUSH32 0xFED4C996F9A5A74907D3286E9A31755D17CF5D72F3FF3D442EA799E8636CD574 PUSH1 0x40 MLOAD PUSH1 0x40 MLOAD DUP1 SWAP2 SUB SWAP1 LOG4 POP POP POP POP POP JUMP JUMPDEST PUSH2 0x5B9 PUSH2 0xA2E JUMP JUMPDEST PUSH1 0x1 PUSH1 0x1 PUSH1 0xA0 SHL SUB DUP2 AND PUSH1 0x0 DUP2 DUP2 MSTORE PUSH1 0x1 PUSH1 0x20 DUP2 SWAP1 MSTORE PUSH1 0x40 DUP1 DUP4 KECCAK256 DUP1 SLOAD PUSH1 0xFF NOT AND SWAP1 SWAP3 OR SWAP1 SWAP2 SSTORE MLOAD PUSH32 0x3B026FFC6936DC375A71D755B60B668F20AE8D41F7EBBA0A732E750F8CD2929E SWAP2 SWAP1 LOG2 POP JUMP JUMPDEST PUSH2 0x610 PUSH2 0xA2E JUMP JUMPDEST PUSH2 0x61A PUSH1 0x0 PUSH2 0xA88 JUMP JUMPDEST JUMP JUMPDEST CALLER PUSH1 0x0 SWAP1 DUP2 MSTORE PUSH1 0x1 PUSH1 0x20 MSTORE PUSH1 0x40 SWAP1 KECCAK256 SLOAD PUSH1 0xFF AND PUSH2 0x675 JUMPI PUSH1 0x40 MLOAD PUSH3 0x461BCD PUSH1 0xE5 SHL DUP2 MSTORE PUSH1 0x20 PUSH1 0x4 DUP3 ADD MSTORE PUSH1 0x17 PUSH1 0x24 DUP3 ADD MSTORE PUSH23 0x4E6F74206120766572696669656420656D706C6F796565 PUSH1 0x48 SHL PUSH1 0x44 DUP3 ADD MSTORE PUSH1 0x64 ADD PUSH2 0x38C JUMP JUMPDEST CALLER PUSH1 0x0 SWAP1 DUP2 MSTORE PUSH1 0x4 PUSH1 0x20 MSTORE PUSH1 0x40 SWAP1 KECCAK256 PUSH2 0x68F DUP3 DUP5 DUP4 PUSH2 0xED5 JUMP JUMPDEST POP POP POP JUMP JUMPDEST PUSH1 0x0 DUP3 DUP3 PUSH1 0x40 MLOAD PUSH1 0x20 ADD PUSH2 0x6A9 SWAP3 SWAP2 SWAP1 PUSH2 0xDDB JUMP JUMPDEST PUSH1 0x40 MLOAD PUSH1 0x20 DUP2 DUP4 SUB SUB DUP2 MSTORE SWAP1 PUSH1 0x40 MSTORE DUP1 MLOAD SWAP1 PUSH1 0x20 ADD KECCAK256 SWAP1 POP JUMPDEST SWAP3 SWAP2 POP POP JUMP JUMPDEST PUSH1 0x4 PUSH1 0x20 MSTORE PUSH1 0x0 SWAP1 DUP2 MSTORE PUSH1 0x40 SWAP1 KECCAK256 DUP1 SLOAD PUSH2 0x6E1 SWAP1 PUSH2 0xE4D JUMP JUMPDEST DUP1 PUSH1 0x1F ADD PUSH1 0x20 DUP1 SWAP2 DIV MUL PUSH1 0x20 ADD PUSH1 0x40 MLOAD SWAP1 DUP2 ADD PUSH1 0x40 MSTORE DUP1 SWAP3 SWAP2 SWAP1 DUP2 DUP2 MSTORE PUSH1 0x20 ADD DUP3 DUP1 SLOAD PUSH2 0x70D SWAP1 PUSH2 0xE4D JUMP JUMPDEST DUP1 ISZERO PUSH2 0x75A JUMPI DUP1 PUSH1 0x1F LT PUSH2 0x72F JUMPI PUSH2 0x100 DUP1 DUP4 SLOAD DIV MUL DUP4 MSTORE SWAP2 PUSH1 0x20 ADD SWAP2 PUSH2 0x75A JUMP JUMPDEST DUP3 ADD SWAP2 SWAP1 PUSH1 0x0 MSTORE PUSH1 0x20 PUSH1 0x0 KECCAK256 SWAP1 JUMPDEST DUP2 SLOAD DUP2 MSTORE SWAP1 PUSH1 0x1 ADD SWAP1 PUSH1 0x20 ADD DUP1 DUP4 GT PUSH2 0x73D JUMPI DUP3 SWAP1 SUB PUSH1 0x1F AND DUP3 ADD SWAP2 JUMPDEST POP POP POP POP POP DUP2 JUMP JUMPDEST PUSH2 0x76A PUSH2 0xA2E JUMP JUMPDEST PUSH1 0x1 PUSH1 0x1 PUSH1 0xA0 SHL SUB DUP5 AND PUSH1 0x0 SWAP1 DUP2 MSTORE PUSH1 0x1 PUSH1 0x20 MSTORE PUSH1 0x40 SWAP1 KECCAK256 SLOAD PUSH1 0xFF AND PUSH2 0x7E2 JUMPI PUSH1 0x40 MLOAD PUSH3 0x461BCD PUSH1 0xE5 SHL DUP2 MSTORE PUSH1 0x20 PUSH1 0x4 DUP3 ADD MSTORE PUSH1 0x27 PUSH1 0x24 DUP3 ADD MSTORE PUSH32 0x43616E206F6E6C792070726F766973696F6E20746F2076657269666965642065 PUSH1 0x44 DUP3 ADD MSTORE PUSH7 0x6D706C6F796565 PUSH1 0xC8 SHL PUSH1 0x64 DUP3 ADD MSTORE PUSH1 0x84 ADD PUSH2 0x38C JUMP JUMPDEST PUSH1 0x40 MLOAD PUSH4 0x23B872DD PUSH1 0xE0 SHL DUP2 MSTORE CALLER PUSH1 0x4 DUP3 ADD MSTORE ADDRESS PUSH1 0x24 DUP3 ADD MSTORE PUSH1 0x44 DUP2 ADD DUP7 SWAP1 MSTORE PUSH1 0x1 PUSH1 0x1 PUSH1 0xA0 SHL SUB DUP8 AND SWAP1 PUSH4 0x23B872DD SWAP1 PUSH1 0x64 ADD PUSH1 0x20 PUSH1 0x40 MLOAD DUP1 DUP4 SUB DUP2 PUSH1 0x0 DUP8 GAS CALL ISZERO DUP1 ISZERO PUSH2 0x835 JUMPI RETURNDATASIZE PUSH1 0x0 DUP1 RETURNDATACOPY RETURNDATASIZE PUSH1 0x0 REVERT JUMPDEST POP POP POP POP PUSH1 0x40 MLOAD RETURNDATASIZE PUSH1 0x1F NOT PUSH1 0x1F DUP3 ADD AND DUP3 ADD DUP1 PUSH1 0x40 MSTORE POP DUP2 ADD SWAP1 PUSH2 0x859 SWAP2 SWAP1 PUSH2 0xE15 JUMP JUMPDEST POP PUSH1 0x0 DUP7 DUP6 PUSH1 0x40 MLOAD PUSH1 0x20 ADD PUSH2 0x86F SWAP3 SWAP2 SWAP1 PUSH2 0xDDB JUMP JUMPDEST PUSH1 0x40 DUP1 MLOAD PUSH1 0x1F NOT DUP2 DUP5 SUB ADD DUP2 MSTORE SWAP2 DUP2 MSTORE DUP2 MLOAD PUSH1 0x20 SWAP3 DUP4 ADD KECCAK256 PUSH1 0x1 PUSH1 0x1 PUSH1 0xA0 SHL SUB DUP1 DUP10 AND PUSH1 0x0 DUP2 DUP2 MSTORE PUSH1 0x2 DUP1 DUP8 MSTORE DUP6 DUP3 KECCAK256 DUP6 DUP4 MSTORE DUP8 MSTORE DUP6 DUP3 KECCAK256 DUP1 SLOAD PUSH1 0xFF NOT AND PUSH1 0x1 SWAP1 DUP2 OR SWAP1 SWAP2 SSTORE PUSH1 0x3 SWAP8 DUP9 SWAP1 MSTORE SWAP6 DUP3 KECCAK256 DUP1 SLOAD SWAP5 DUP16 AND PUSH1 0x1 PUSH1 0x1 PUSH1 0xA0 SHL SUB NOT SWAP6 DUP7 AND OR DUP2 SSTORE SWAP6 DUP7 ADD DUP14 SWAP1 SSTORE DUP6 ADD DUP1 SLOAD SWAP1 SWAP4 AND SWAP1 SWAP2 OR SWAP1 SWAP2 SSTORE TIMESTAMP SWAP4 DUP4 ADD SWAP4 SWAP1 SWAP4 SSTORE PUSH1 0x4 DUP3 ADD DUP8 SWAP1 SSTORE SWAP3 POP SWAP1 JUMPDEST DUP4 DUP2 LT ISZERO PUSH2 0x969 JUMPI PUSH1 0x1 DUP3 PUSH1 0x5 ADD PUSH1 0x0 DUP8 DUP8 DUP6 DUP2 DUP2 LT PUSH2 0x91A JUMPI PUSH2 0x91A PUSH2 0xD96 JUMP JUMPDEST SWAP1 POP PUSH1 0x20 MUL ADD PUSH1 0x20 DUP2 ADD SWAP1 PUSH2 0x92F SWAP2 SWAP1 PUSH2 0xBCD JUMP JUMPDEST PUSH1 0x1 PUSH1 0x1 PUSH1 0xA0 SHL SUB AND DUP2 MSTORE PUSH1 0x20 DUP2 ADD SWAP2 SWAP1 SWAP2 MSTORE PUSH1 0x40 ADD PUSH1 0x0 KECCAK256 DUP1 SLOAD PUSH1 0xFF NOT AND SWAP2 ISZERO ISZERO SWAP2 SWAP1 SWAP2 OR SWAP1 SSTORE DUP1 PUSH2 0x961 DUP2 PUSH2 0xDC2 JUMP JUMPDEST SWAP2 POP POP PUSH2 0x8F8 JUMP JUMPDEST POP DUP6 PUSH1 0x1 PUSH1 0x1 PUSH1 0xA0 SHL SUB AND DUP9 PUSH1 0x1 PUSH1 0x1 PUSH1 0xA0 SHL SUB AND DUP4 PUSH32 0x1D5B0515AE7F45E3F6D62D22EBFC1913F698C59359F46CD2319311B6A3F38E70 PUSH1 0x40 MLOAD PUSH1 0x40 MLOAD DUP1 SWAP2 SUB SWAP1 LOG4 POP POP POP POP POP POP POP POP JUMP JUMPDEST PUSH2 0x9BD PUSH2 0xA2E JUMP JUMPDEST PUSH1 0x1 PUSH1 0x1 PUSH1 0xA0 SHL SUB DUP2 AND PUSH2 0xA22 JUMPI PUSH1 0x40 MLOAD PUSH3 0x461BCD PUSH1 0xE5 SHL DUP2 MSTORE PUSH1 0x20 PUSH1 0x4 DUP3 ADD MSTORE PUSH1 0x26 PUSH1 0x24 DUP3 ADD MSTORE PUSH32 0x4F776E61626C653A206E6577206F776E657220697320746865207A65726F2061 PUSH1 0x44 DUP3 ADD MSTORE PUSH6 0x646472657373 PUSH1 0xD0 SHL PUSH1 0x64 DUP3 ADD MSTORE PUSH1 0x84 ADD PUSH2 0x38C JUMP JUMPDEST PUSH2 0xA2B DUP2 PUSH2 0xA88 JUMP JUMPDEST POP JUMP JUMPDEST PUSH1 0x0 SLOAD PUSH1 0x1 PUSH1 0x1 PUSH1 0xA0 SHL SUB AND CALLER EQ PUSH2 0x61A JUMPI PUSH1 0x40 MLOAD PUSH3 0x461BCD PUSH1 0xE5 SHL DUP2 MSTORE PUSH1 0x20 PUSH1 0x4 DUP3 ADD DUP2 SWAP1 MSTORE PUSH1 0x24 DUP3 ADD MSTORE PUSH32 0x4F776E61626C653A2063616C6C6572206973206E6F7420746865206F776E6572 PUSH1 0x44 DUP3 ADD MSTORE PUSH1 0x64 ADD PUSH2 0x38C JUMP JUMPDEST PUSH1 0x0 DUP1 SLOAD PUSH1 0x1 PUSH1 0x1 PUSH1 0xA0 SHL SUB DUP4 DUP2 AND PUSH1 0x1 PUSH1 0x1 PUSH1 0xA0 SHL SUB NOT DUP4 AND DUP2 OR DUP5 SSTORE PUSH1 0x40 MLOAD SWAP2 SWAP1 SWAP3 AND SWAP3 DUP4 SWAP2 PUSH32 0x8BE0079C531659141344CD1FD0A4F28419497F9722A3DAAFE3B4186F6B6457E0 SWAP2 SWAP1 LOG3 POP POP JUMP JUMPDEST PUSH1 0x0 DUP1 DUP4 PUSH1 0x1F DUP5 ADD SLT PUSH2 0xAEA JUMPI PUSH1 0x0 DUP1 REVERT JUMPDEST POP DUP2 CALLDATALOAD PUSH8 0xFFFFFFFFFFFFFFFF DUP2 GT ISZERO PUSH2 0xB02 JUMPI PUSH1 0x0 DUP1 REVERT JUMPDEST PUSH1 0x20 DUP4 ADD SWAP2 POP DUP4 PUSH1 0x20 DUP3 PUSH1 0x5 SHL DUP6 ADD ADD GT ISZERO PUSH2 0xB1D JUMPI PUSH1 0x0 DUP1 REVERT JUMPDEST SWAP3 POP SWAP3 SWAP1 POP JUMP JUMPDEST PUSH1 0x0 DUP1 PUSH1 0x0 DUP1 PUSH1 0x0 DUP1 PUSH1 0x0 PUSH1 0xA0 DUP9 DUP11 SUB SLT ISZERO PUSH2 0xB3F JUMPI PUSH1 0x0 DUP1 REVERT JUMPDEST DUP8 CALLDATALOAD SWAP7 POP PUSH1 0x20 DUP9 ADD CALLDATALOAD SWAP6 POP PUSH1 0x40 DUP9 ADD CALLDATALOAD SWAP5 POP PUSH1 0x60 DUP9 ADD CALLDATALOAD PUSH8 0xFFFFFFFFFFFFFFFF DUP1 DUP3 GT ISZERO PUSH2 0xB6C JUMPI PUSH1 0x0 DUP1 REVERT JUMPDEST PUSH2 0xB78 DUP12 DUP4 DUP13 ADD PUSH2 0xAD8 JUMP JUMPDEST SWAP1 SWAP7 POP SWAP5 POP PUSH1 0x80 DUP11 ADD CALLDATALOAD SWAP2 POP DUP1 DUP3 GT ISZERO PUSH2 0xB91 JUMPI PUSH1 0x0 DUP1 REVERT JUMPDEST POP PUSH2 0xB9E DUP11 DUP3 DUP12 ADD PUSH2 0xAD8 JUMP JUMPDEST SWAP9 SWAP12 SWAP8 SWAP11 POP SWAP6 SWAP9 POP SWAP4 SWAP7 SWAP3 SWAP6 SWAP3 SWAP4 POP POP POP JUMP JUMPDEST DUP1 CALLDATALOAD PUSH1 0x1 PUSH1 0x1 PUSH1 0xA0 SHL SUB DUP2 AND DUP2 EQ PUSH2 0xBC8 JUMPI PUSH1 0x0 DUP1 REVERT JUMPDEST SWAP2 SWAP1 POP JUMP JUMPDEST PUSH1 0x0 PUSH1 0x20 DUP3 DUP5 SUB SLT ISZERO PUSH2 0xBDF JUMPI PUSH1 0x0 DUP1 REVERT JUMPDEST PUSH2 0xBE8 DUP3 PUSH2 0xBB1 JUMP JUMPDEST SWAP4 SWAP3 POP POP POP JUMP JUMPDEST PUSH1 0x0 DUP1 PUSH1 0x0 PUSH1 0x60 DUP5 DUP7 SUB SLT ISZERO PUSH2 0xC04 JUMPI PUSH1 0x0 DUP1 REVERT JUMPDEST PUSH2 0xC0D DUP5 PUSH2 0xBB1 JUMP JUMPDEST SWAP3 POP PUSH1 0x20 DUP5 ADD CALLDATALOAD SWAP2 POP PUSH2 0xC22 PUSH1 0x40 DUP6 ADD PUSH2 0xBB1 JUMP JUMPDEST SWAP1 POP SWAP3 POP SWAP3 POP SWAP3 JUMP JUMPDEST PUSH1 0x0 DUP1 PUSH1 0x20 DUP4 DUP6 SUB SLT ISZERO PUSH2 0xC3E JUMPI PUSH1 0x0 DUP1 REVERT JUMPDEST DUP3 CALLDATALOAD PUSH8 0xFFFFFFFFFFFFFFFF DUP1 DUP3 GT ISZERO PUSH2 0xC56 JUMPI PUSH1 0x0 DUP1 REVERT JUMPDEST DUP2 DUP6 ADD SWAP2 POP DUP6 PUSH1 0x1F DUP4 ADD SLT PUSH2 0xC6A JUMPI PUSH1 0x0 DUP1 REVERT JUMPDEST DUP2 CALLDATALOAD DUP2 DUP2 GT ISZERO PUSH2 0xC79 JUMPI PUSH1 0x0 DUP1 REVERT JUMPDEST DUP7 PUSH1 0x20 DUP3 DUP6 ADD ADD GT ISZERO PUSH2 0xC8B JUMPI PUSH1 0x0 DUP1 REVERT JUMPDEST PUSH1 0x20 SWAP3 SWAP1 SWAP3 ADD SWAP7 SWAP2 SWAP6 POP SWAP1 SWAP4 POP POP POP POP JUMP JUMPDEST PUSH1 0x0 DUP1 PUSH1 0x40 DUP4 DUP6 SUB SLT ISZERO PUSH2 0xCB0 JUMPI PUSH1 0x0 DUP1 REVERT JUMPDEST PUSH2 0xCB9 DUP4 PUSH2 0xBB1 JUMP JUMPDEST SWAP2 POP PUSH2 0xCC7 PUSH1 0x20 DUP5 ADD PUSH2 0xBB1 JUMP JUMPDEST SWAP1 POP SWAP3 POP SWAP3 SWAP1 POP JUMP JUMPDEST PUSH1 0x0 PUSH1 0x20 DUP1 DUP4 MSTORE DUP4 MLOAD DUP1 DUP3 DUP6 ADD MSTORE PUSH1 0x0 JUMPDEST DUP2 DUP2 LT ISZERO PUSH2 0xCFD JUMPI DUP6 DUP2 ADD DUP4 ADD MLOAD DUP6 DUP3 ADD PUSH1 0x40 ADD MSTORE DUP3 ADD PUSH2 0xCE1 JUMP JUMPDEST POP PUSH1 0x0 PUSH1 0x40 DUP3 DUP7 ADD ADD MSTORE PUSH1 0x40 PUSH1 0x1F NOT PUSH1 0x1F DUP4 ADD AND DUP6 ADD ADD SWAP3 POP POP POP SWAP3 SWAP2 POP POP JUMP JUMPDEST PUSH1 0x0 DUP1 PUSH1 0x0 DUP1 PUSH1 0x0 DUP1 PUSH1 0xA0 DUP8 DUP10 SUB SLT ISZERO PUSH2 0xD37 JUMPI PUSH1 0x0 DUP1 REVERT JUMPDEST PUSH2 0xD40 DUP8 PUSH2 0xBB1 JUMP JUMPDEST SWAP6 POP PUSH1 0x20 DUP8 ADD CALLDATALOAD SWAP5 POP PUSH2 0xD55 PUSH1 0x40 DUP9 ADD PUSH2 0xBB1 JUMP JUMPDEST SWAP4 POP PUSH1 0x60 DUP8 ADD CALLDATALOAD SWAP3 POP PUSH1 0x80 DUP8 ADD CALLDATALOAD PUSH8 0xFFFFFFFFFFFFFFFF DUP2 GT ISZERO PUSH2 0xD78 JUMPI PUSH1 0x0 DUP1 REVERT JUMPDEST PUSH2 0xD84 DUP10 DUP3 DUP11 ADD PUSH2 0xAD8 JUMP JUMPDEST SWAP8 SWAP11 SWAP7 SWAP10 POP SWAP5 SWAP8 POP SWAP3 SWAP6 SWAP4 SWAP5 SWAP3 POP POP POP JUMP JUMPDEST PUSH4 0x4E487B71 PUSH1 0xE0 SHL PUSH1 0x0 MSTORE PUSH1 0x32 PUSH1 0x4 MSTORE PUSH1 0x24 PUSH1 0x0 REVERT JUMPDEST PUSH4 0x4E487B71 PUSH1 0xE0 SHL PUSH1 0x0 MSTORE PUSH1 0x11 PUSH1 0x4 MSTORE PUSH1 0x24 PUSH1 0x0 REVERT JUMPDEST PUSH1 0x0 PUSH1 0x1 DUP3 ADD PUSH2 0xDD4 JUMPI PUSH2 0xDD4 PUSH2 0xDAC JUMP JUMPDEST POP PUSH1 0x1 ADD SWAP1 JUMP JUMPDEST PUSH12 0xFFFFFFFFFFFFFFFFFFFFFFFF NOT PUSH1 0x60 SWAP4 DUP5 SHL DUP2 AND DUP3 MSTORE SWAP2 SWAP1 SWAP3 SHL AND PUSH1 0x14 DUP3 ADD MSTORE PUSH1 0x28 ADD SWAP1 JUMP JUMPDEST DUP1 DUP3 ADD DUP1 DUP3 GT ISZERO PUSH2 0x6C2 JUMPI PUSH2 0x6C2 PUSH2 0xDAC JUMP JUMPDEST PUSH1 0x0 PUSH1 0x20 DUP3 DUP5 SUB SLT ISZERO PUSH2 0xE27 JUMPI PUSH1 0x0 DUP1 REVERT JUMPDEST DUP2 MLOAD DUP1 ISZERO ISZERO DUP2 EQ PUSH2 0xBE8 JUMPI PUSH1 0x0 DUP1 REVERT JUMPDEST PUSH4 0x4E487B71 PUSH1 0xE0 SHL PUSH1 0x0 MSTORE PUSH1 0x41 PUSH1 0x4 MSTORE PUSH1 0x24 PUSH1 0x0 REVERT JUMPDEST PUSH1 0x1 DUP2 DUP2 SHR SWAP1 DUP3 AND DUP1 PUSH2 0xE61 JUMPI PUSH1 0x7F DUP3 AND SWAP2 POP JUMPDEST PUSH1 0x20 DUP3 LT DUP2 SUB PUSH2 0xE81 JUMPI PUSH4 0x4E487B71 PUSH1 0xE0 SHL PUSH1 0x0 MSTORE PUSH1 0x22 PUSH1 0x4 MSTORE PUSH1 0x24 PUSH1 0x0 REVERT JUMPDEST POP SWAP2 SWAP1 POP JUMP JUMPDEST PUSH1 0x1F DUP3 GT ISZERO PUSH2 0x68F JUMPI PUSH1 0x0 DUP2 DUP2 MSTORE PUSH1 0x20 DUP2 KECCAK256 PUSH1 0x1F DUP6 ADD PUSH1 0x5 SHR DUP2 ADD PUSH1 0x20 DUP7 LT ISZERO PUSH2 0xEAE JUMPI POP DUP1 JUMPDEST PUSH1 0x1F DUP6 ADD PUSH1 0x5 SHR DUP3 ADD SWAP2 POP JUMPDEST DUP2 DUP2 LT ISZERO PUSH2 0xECD JUMPI DUP3 DUP2 SSTORE PUSH1 0x1 ADD PUSH2 0xEBA JUMP JUMPDEST POP POP POP POP POP POP JUMP JUMPDEST PUSH8 0xFFFFFFFFFFFFFFFF DUP4 GT ISZERO PUSH2 0xEED JUMPI PUSH2 0xEED PUSH2 0xE37 JUMP JUMPDEST PUSH2 0xF01 DUP4 PUSH2 0xEFB DUP4 SLOAD PUSH2 0xE4D JUMP JUMPDEST DUP4 PUSH2 0xE87 JUMP JUMPDEST PUSH1 0x0 PUSH1 0x1F DUP5 GT PUSH1 0x1 DUP2 EQ PUSH2 0xF35 JUMPI PUSH1 0x0 DUP6 ISZERO PUSH2 0xF1D JUMPI POP DUP4 DUP3 ADD CALLDATALOAD JUMPDEST PUSH1 0x0 NOT PUSH1 0x3 DUP8 SWAP1 SHL SHR NOT AND PUSH1 0x1 DUP7 SWAP1 SHL OR DUP4 SSTORE PUSH2 0xF8F JUMP JUMPDEST PUSH1 0x0 DUP4 DUP2 MSTORE PUSH1 0x20 SWAP1 KECCAK256 PUSH1 0x1F NOT DUP7 AND SWAP1 DUP4 JUMPDEST DUP3 DUP2 LT ISZERO PUSH2 0xF66 JUMPI DUP7 DUP6 ADD CALLDATALOAD DUP3 SSTORE PUSH1 0x20 SWAP5 DUP6 ADD SWAP5 PUSH1 0x1 SWAP1 SWAP3 ADD SWAP2 ADD PUSH2 0xF46 JUMP JUMPDEST POP DUP7 DUP3 LT ISZERO PUSH2 0xF83 JUMPI PUSH1 0x0 NOT PUSH1 0xF8 DUP9 PUSH1 0x3 SHL AND SHR NOT DUP5 DUP8 ADD CALLDATALOAD AND DUP2 SSTORE JUMPDEST POP POP PUSH1 0x1 DUP6 PUSH1 0x1 SHL ADD DUP4 SSTORE JUMPDEST POP POP POP POP POP JUMP INVALID LOG2 PUSH5 0x6970667358 0x22 SLT KECCAK256 DUP15 0x49 DUP11 PUSH13 0xFA826FB52BE6496768FE01FA72 0xE4 DUP13 KECCAK256 0xE2 SWAP4 PUSH1 0x35 0xE7 SWAP9 SELFDESTRUCT BASEFEE EXTCODEHASH 0xED 0xBF PUSH3 0x64736F PUSH13 0x63430008120033000000000000 "
				},
				"gasEstimates": {
					"creation": {
						"codeDepositCost": "808800",
						"executionCost": "26685",
						"totalCost": "835485"
					},
					"external": {
						"addVerifiedEmployee(address)": "27998",
						"employeeRailgunAddr(address)": "infinite",
						"getProvisionId(address,address)": "infinite",
						"isVerifiedEmployee(address)": "2561",
						"owner()": "2412",
						"provideRailgunAddr(string)": "infinite",
						"provisionEmployee(address,uint256,address,uint256,address[])": "infinite",
						"renounceOwnership()": "infinite",
						"spendProvision(address,uint256,address)": "infinite",
						"transferOwnership(address)": "28443",
						"updateProvision(bytes32,uint256,uint256,address[],address[])": "infinite",
						"verifiedEmployees(address)": "2542"
					}
				},
				"methodIdentifiers": {
					"addVerifiedEmployee(address)": "6821c9a3",
					"employeeRailgunAddr(address)": "d2301c9f",
					"getProvisionId(address,address)": "c64e2ea5",
					"isVerifiedEmployee(address)": "38c73aee",
					"owner()": "8da5cb5b",
					"provideRailgunAddr(string)": "972deed6",
					"provisionEmployee(address,uint256,address,uint256,address[])": "e2594b30",
					"renounceOwnership()": "715018a6",
					"spendProvision(address,uint256,address)": "405f25aa",
					"transferOwnership(address)": "f2fde38b",
					"updateProvision(bytes32,uint256,uint256,address[],address[])": "0aed32c7",
					"verifiedEmployees(address)": "bfee766b"
				}
			},
			"storageLayout": {
				"storage": [
					{
						"astId": 7,
						"contract": "src/EmployerScroll.sol:EmployerScroll",
						"label": "_owner",
						"offset": 0,
						"slot": "0",
						"type": "t_address"
					},
					{
						"astId": 225,
						"contract": "src/EmployerScroll.sol:EmployerScroll",
						"label": "verifiedEmployees",
						"offset": 0,
						"slot": "1",
						"type": "t_mapping(t_address,t_bool)"
					},
					{
						"astId": 270,
						"contract": "src/EmployerScroll.sol:EmployerScroll",
						"label": "provisionIds",
						"offset": 0,
						"slot": "2",
						"type": "t_mapping(t_address,t_mapping(t_bytes32,t_bool))"
					},
					{
						"astId": 275,
						"contract": "src/EmployerScroll.sol:EmployerScroll",
						"label": "provisions",
						"offset": 0,
						"slot": "3",
						"type": "t_mapping(t_bytes32,t_struct(EmployeeProvision)240_storage)"
					},
					{
						"astId": 279,
						"contract": "src/EmployerScroll.sol:EmployerScroll",
						"label": "employeeRailgunAddr",
						"offset": 0,
						"slot": "4",
						"type": "t_mapping(t_address,t_string_storage)"
					}
				],
				"types": {
					"t_address": {
						"encoding": "inplace",
						"label": "address",
						"numberOfBytes": "20"
					},
					"t_bool": {
						"encoding": "inplace",
						"label": "bool",
						"numberOfBytes": "1"
					},
					"t_bytes32": {
						"encoding": "inplace",
						"label": "bytes32",
						"numberOfBytes": "32"
					},
					"t_mapping(t_address,t_bool)": {
						"encoding": "mapping",
						"key": "t_address",
						"label": "mapping(address => bool)",
						"numberOfBytes": "32",
						"value": "t_bool"
					},
					"t_mapping(t_address,t_mapping(t_bytes32,t_bool))": {
						"encoding": "mapping",
						"key": "t_address",
						"label": "mapping(address => mapping(bytes32 => bool))",
						"numberOfBytes": "32",
						"value": "t_mapping(t_bytes32,t_bool)"
					},
					"t_mapping(t_address,t_string_storage)": {
						"encoding": "mapping",
						"key": "t_address",
						"label": "mapping(address => string)",
						"numberOfBytes": "32",
						"value": "t_string_storage"
					},
					"t_mapping(t_bytes32,t_bool)": {
						"encoding": "mapping",
						"key": "t_bytes32",
						"label": "mapping(bytes32 => bool)",
						"numberOfBytes": "32",
						"value": "t_bool"
					},
					"t_mapping(t_bytes32,t_struct(EmployeeProvision)240_storage)": {
						"encoding": "mapping",
						"key": "t_bytes32",
						"label": "mapping(bytes32 => struct EmployerScroll.EmployeeProvision)",
						"numberOfBytes": "32",
						"value": "t_struct(EmployeeProvision)240_storage"
					},
					"t_string_storage": {
						"encoding": "bytes",
						"label": "string",
						"numberOfBytes": "32"
					},
					"t_struct(EmployeeProvision)240_storage": {
						"encoding": "inplace",
						"label": "struct EmployerScroll.EmployeeProvision",
						"members": [
							{
								"astId": 227,
								"contract": "src/EmployerScroll.sol:EmployerScroll",
								"label": "token",
								"offset": 0,
								"slot": "0",
								"type": "t_address"
							},
							{
								"astId": 229,
								"contract": "src/EmployerScroll.sol:EmployerScroll",
								"label": "amount",
								"offset": 0,
								"slot": "1",
								"type": "t_uint256"
							},
							{
								"astId": 231,
								"contract": "src/EmployerScroll.sol:EmployerScroll",
								"label": "employee",
								"offset": 0,
								"slot": "2",
								"type": "t_address"
							},
							{
								"astId": 233,
								"contract": "src/EmployerScroll.sol:EmployerScroll",
								"label": "start",
								"offset": 0,
								"slot": "3",
								"type": "t_uint256"
							},
							{
								"astId": 235,
								"contract": "src/EmployerScroll.sol:EmployerScroll",
								"label": "expiry",
								"offset": 0,
								"slot": "4",
								"type": "t_uint256"
							},
							{
								"astId": 239,
								"contract": "src/EmployerScroll.sol:EmployerScroll",
								"label": "allowlist",
								"offset": 0,
								"slot": "5",
								"type": "t_mapping(t_address,t_bool)"
							}
						],
						"numberOfBytes": "192"
					},
					"t_uint256": {
						"encoding": "inplace",
						"label": "uint256",
						"numberOfBytes": "32"
					}
				}
			},
			"userdoc": {
				"kind": "user",
				"methods": {},
				"version": 1
			}
		}
	}
}