{
	"data": {
		"bytecode": {
			"linkReferences": {},
			"object": "60806040523480156200001157600080fd5b50600580546001600160801b0319166fd345943db0a9c43788a850b039560e05179055604080518082018252601781527f7369736d6f436f6e6e65637456657269666965722d76310000000000000000006020820152905163349f642f60e11b81526fd345943db0a9c43788a850b039560e0560801b9160008051602062001c018339815191529163693ec85e91620000ad9160040162000494565b602060405180830381865afa158015620000cb573d6000803e3d6000fd5b505050506040513d601f19601f82011682018060405250810190620000f19190620004e4565b600080546001600160a01b0319166001600160a01b0392909216919091179055604080518082018252601581527f61757468526571756573744275696c6465722d763100000000000000000000006020820152905163349f642f60e11b815260008051602062001c018339815191529163693ec85e9162000176919060040162000494565b602060405180830381865afa15801562000194573d6000803e3d6000fd5b505050506040513d601f19601f82011682018060405250810190620001ba9190620004e4565b600180546001600160a01b0319166001600160a01b0392909216919091179055604080518082018252601681527f636c61696d526571756573744275696c6465722d7631000000000000000000006020820152905163349f642f60e11b815260008051602062001c018339815191529163693ec85e916200023f919060040162000494565b602060405180830381865afa1580156200025d573d6000803e3d6000fd5b505050506040513d601f19601f82011682018060405250810190620002839190620004e4565b600280546001600160a01b0319166001600160a01b0392909216919091179055604080518082018252601381527f7369676e61747572654275696c6465722d7631000000000000000000000000006020820152905163349f642f60e11b815260008051602062001c018339815191529163693ec85e9162000308919060040162000494565b602060405180830381865afa15801562000326573d6000803e3d6000fd5b505050506040513d601f19601f820116820180604052508101906200034c9190620004e4565b600380546001600160a01b0319166001600160a01b03929092169190911790556040805180820182526011815270726571756573744275696c6465722d763160781b6020820152905163349f642f60e11b815260008051602062001c018339815191529163693ec85e91620003c5919060040162000494565b602060405180830381865afa158015620003e3573d6000803e3d6000fd5b505050506040513d601f19601f82011682018060405250810190620004099190620004e4565b600480546001600160a01b0319166001600160a01b0392909216919091179055506200043c620004363390565b62000442565b62000516565b600680546001600160a01b038381166001600160a01b0319831681179093556040519116919082907f8be0079c531659141344cd1fd0a4f28419497f9722a3daafe3b4186f6b6457e090600090a35050565b600060208083528351808285015260005b81811015620004c357858101830151858201604001528201620004a5565b506000604082860101526040601f19601f8301168501019250505092915050565b600060208284031215620004f757600080fd5b81516001600160a01b03811681146200050f57600080fd5b9392505050565b6116db80620005266000396000f3fe608060405234801561001057600080fd5b506004361061012c5760003560e01c8063972deed6116100ad578063cea8eb4e11610071578063cea8eb4e146102d4578063d2301c9f146102e7578063e068970314610307578063e2594b301461031a578063f2fde38b1461032d57600080fd5b8063972deed61461025b578063bfee766b1461026e578063c187bbc114610291578063c64e2ea5146102ab578063c9512d99146102cc57600080fd5b80636821c9a3116100f45780636821c9a3146101ed5780636e01370e14610200578063715018a61461021357806380afdea81461021b5780638da5cb5b1461024a57600080fd5b80630542975c146101315780630aed32c71461016957806338c73aee1461017e578063405f25aa146101ba57806349161195146101cd575b600080fd5b61014c733340ac0cafb3ae34ddd53dba0d7344c1cf3efe0581565b6040516001600160a01b0390911681526020015b60405180910390f35b61017c610177366004610e6a565b610340565b005b6101aa61018c366004610f13565b6001600160a01b031660009081526007602052604090205460ff1690565b6040519015158152602001610160565b61017c6101c8366004610f2e565b610482565b6101e06101db366004610f78565b6106f6565b6040516101609190610fe5565b61017c6101fb366004610f13565b610786565b6101e061020e3660046110f8565b6107da565b61017c610870565b6005546102289060801b81565b6040516fffffffffffffffffffffffffffffffff199091168152602001610160565b6006546001600160a01b031661014c565b61017c61026936600461115c565b610884565b6101aa61027c366004610f13565b60076020526000908152604090205460ff1681565b6102286fd345943db0a9c43788a850b039560e0560801b81565b6102be6102b93660046111ce565b6108fc565b604051908152602001610160565b6102be600281565b6101e06102e2366004611201565b61092f565b6102fa6102f5366004610f13565b610979565b6040516101609190611247565b6101e061031536600461125a565b610a13565b61017c6103283660046112d2565b610aac565b61017c61033b366004610f13565b610cf9565b610348610d72565b60008781526009602052604081206001810188905560048101879055905b848110156103d75760018260050160008888858181106103885761038861134a565b905060200201602081019061039d9190610f13565b6001600160a01b031681526020810191909152604001600020805460ff1916911515919091179055806103cf81611376565b915050610366565b5060005b8281101561044c5760008260050160008686858181106103fd576103fd61134a565b90506020020160208101906104129190610f13565b6001600160a01b031681526020810191909152604001600020805460ff19169115159190911790558061044481611376565b9150506103db565b5060405188907fd3973df93f68e12513b578087854cfe3053d0833cdd737bb42d9745e64bdd32590600090a25050505050505050565b3360009081526007602052604090205460ff166104e05760405162461bcd60e51b81526020600482015260176024820152764e6f74206120766572696669656420656d706c6f79656560481b60448201526064015b60405180910390fd5b600083336040516020016104f592919061138f565b60408051601f1981840301815291815281516020928301206000818152600990935291206004810154600382015492935090914291610533916113b6565b116105745760405162461bcd60e51b8152602060048201526011602482015270141c9bdd9a5cda5bdb88195e1c1a5c9959607a1b60448201526064016104d7565b83816001015410156105d45760405162461bcd60e51b815260206004820152602360248201527f547279696e6720746f207370656e64206d6f7265207468616e2070726f76697360448201526234b7b760e91b60648201526084016104d7565b6001600160a01b038316600090815260058201602052604090205460ff1615156001146106435760405162461bcd60e51b815260206004820152601a60248201527f526563697069656e74206e6f74206f6e20616c6c6f776c69737400000000000060448201526064016104d7565b60405163a9059cbb60e01b81526001600160a01b0384811660048301526024820186905286169063a9059cbb906044016020604051808303816000875af1158015610692573d6000803e3d6000fd5b505050506040513d601f19601f820116820180604052508101906106b691906113c9565b50826001600160a01b031684837ffed4c996f9a5a74907d3286e9a31755d17cf5d72f3ff3d442ea799e8636cd57460405160405180910390a45050505050565b604080516060808201835280825260006020830152818301526003549151631f6c2b9760e11b8152831515600482015290916001600160a01b031690633ed8572e90602401600060405180830381865afa158015610758573d6000803e3d6000fd5b505050506040513d6000823e601f3d908101601f19168201604052610780919081019061142b565b92915050565b61078e610d72565b6001600160a01b038116600081815260076020526040808220805460ff19166001179055517f3b026ffc6936dc375a71d755b60b668f20ae8d41f7ebba0a732e750f8cd2929e9190a250565b604080516060808201835280825260006020830152818301526003549151631778ed1360e21b815290916001600160a01b031690635de3b44c9061082490869086906004016114e5565b600060405180830381865afa158015610841573d6000803e3d6000fd5b505050506040513d6000823e601f3d908101601f19168201604052610869919081019061142b565b9392505050565b610878610d72565b6108826000610dcc565b565b3360009081526007602052604090205460ff166108dd5760405162461bcd60e51b81526020600482015260176024820152764e6f74206120766572696669656420656d706c6f79656560481b60448201526064016104d7565b336000908152600a602052604090206108f7828483611592565b505050565b6000828260405160200161091192919061138f565b60405160208183030381529060405280519060200120905092915050565b604080516060808201835280825260006020830152818301526003549151631d1db46b60e21b815290916001600160a01b031690637476d1ac906108249086908690600401611653565b600a60205260009081526040902080546109929061150a565b80601f01602080910402602001604051908101604052809291908181526020018280546109be9061150a565b8015610a0b5780601f106109e057610100808354040283529160200191610a0b565b820191906000526020600020905b8154815290600101906020018083116109ee57829003601f168201915b505050505081565b604080516060808201835280825260006020830152818301526003549151631f785c9560e01b815290916001600160a01b031690631f785c9590610a5f9087908790879060040161166e565b600060405180830381865afa158015610a7c573d6000803e3d6000fd5b505050506040513d6000823e601f3d908101601f19168201604052610aa4919081019061142b565b949350505050565b610ab4610d72565b6001600160a01b03841660009081526007602052604090205460ff16610b2c5760405162461bcd60e51b815260206004820152602760248201527f43616e206f6e6c792070726f766973696f6e20746f20766572696669656420656044820152666d706c6f79656560c81b60648201526084016104d7565b6040516323b872dd60e01b8152336004820152306024820152604481018690526001600160a01b038716906323b872dd906064016020604051808303816000875af1158015610b7f573d6000803e3d6000fd5b505050506040513d601f19601f82011682018060405250810190610ba391906113c9565b5060008685604051602001610bb992919061138f565b60408051601f1981840301815291815281516020928301206001600160a01b038089166000818152600886528481208482528652848120805460ff1916600190811790915560099096529384208054928d166001600160a01b03199384161781559485018b90556002850180549092161790554260038401556004830187905592505b83811015610cad576001826005016000878785818110610c5e57610c5e61134a565b9050602002016020810190610c739190610f13565b6001600160a01b031681526020810191909152604001600020805460ff191691151591909117905580610ca581611376565b915050610c3c565b50856001600160a01b0316886001600160a01b0316837f1d5b0515ae7f45e3f6d62d22ebfc1913f698c59359f46cd2319311b6a3f38e7060405160405180910390a45050505050505050565b610d01610d72565b6001600160a01b038116610d665760405162461bcd60e51b815260206004820152602660248201527f4f776e61626c653a206e6577206f776e657220697320746865207a65726f206160448201526564647265737360d01b60648201526084016104d7565b610d6f81610dcc565b50565b6006546001600160a01b031633146108825760405162461bcd60e51b815260206004820181905260248201527f4f776e61626c653a2063616c6c6572206973206e6f7420746865206f776e657260448201526064016104d7565b600680546001600160a01b038381166001600160a01b0319831681179093556040519116919082907f8be0079c531659141344cd1fd0a4f28419497f9722a3daafe3b4186f6b6457e090600090a35050565b60008083601f840112610e3057600080fd5b50813567ffffffffffffffff811115610e4857600080fd5b6020830191508360208260051b8501011115610e6357600080fd5b9250929050565b600080600080600080600060a0888a031215610e8557600080fd5b873596506020880135955060408801359450606088013567ffffffffffffffff80821115610eb257600080fd5b610ebe8b838c01610e1e565b909650945060808a0135915080821115610ed757600080fd5b50610ee48a828b01610e1e565b989b979a50959850939692959293505050565b80356001600160a01b0381168114610f0e57600080fd5b919050565b600060208284031215610f2557600080fd5b61086982610ef7565b600080600060608486031215610f4357600080fd5b610f4c84610ef7565b925060208401359150610f6160408501610ef7565b90509250925092565b8015158114610d6f57600080fd5b600060208284031215610f8a57600080fd5b813561086981610f6a565b60005b83811015610fb0578181015183820152602001610f98565b50506000910152565b60008151808452610fd1816020860160208601610f95565b601f01601f19169290920160200192915050565b6020815260008251606060208401526110016080840182610fb9565b90506020840151151560408401526040840151601f1984830301606085015261102a8282610fb9565b95945050505050565b634e487b7160e01b600052604160045260246000fd5b604051601f8201601f1916810167ffffffffffffffff8111828210171561107257611072611033565b604052919050565b600067ffffffffffffffff82111561109457611094611033565b50601f01601f191660200190565b600082601f8301126110b357600080fd5b81356110c66110c18261107a565b611049565b8181528460208386010111156110db57600080fd5b816020850160208301376000918101602001919091529392505050565b6000806040838503121561110b57600080fd5b823567ffffffffffffffff8082111561112357600080fd5b61112f868387016110a2565b9350602085013591508082111561114557600080fd5b50611152858286016110a2565b9150509250929050565b6000806020838503121561116f57600080fd5b823567ffffffffffffffff8082111561118757600080fd5b818501915085601f83011261119b57600080fd5b8135818111156111aa57600080fd5b8660208285010111156111bc57600080fd5b60209290920196919550909350505050565b600080604083850312156111e157600080fd5b6111ea83610ef7565b91506111f860208401610ef7565b90509250929050565b6000806040838503121561121457600080fd5b823561121f81610f6a565b9150602083013567ffffffffffffffff81111561123b57600080fd5b611152858286016110a2565b6020815260006108696020830184610fb9565b60008060006060848603121561126f57600080fd5b833567ffffffffffffffff8082111561128757600080fd5b611293878388016110a2565b9450602086013591506112a582610f6a565b909250604085013590808211156112bb57600080fd5b506112c8868287016110a2565b9150509250925092565b60008060008060008060a087890312156112eb57600080fd5b6112f487610ef7565b95506020870135945061130960408801610ef7565b935060608701359250608087013567ffffffffffffffff81111561132c57600080fd5b61133889828a01610e1e565b979a9699509497509295939492505050565b634e487b7160e01b600052603260045260246000fd5b634e487b7160e01b600052601160045260246000fd5b60006001820161138857611388611360565b5060010190565b6bffffffffffffffffffffffff19606093841b811682529190921b16601482015260280190565b8082018082111561078057610780611360565b6000602082840312156113db57600080fd5b815161086981610f6a565b600082601f8301126113f757600080fd5b81516114056110c18261107a565b81815284602083860101111561141a57600080fd5b610aa4826020830160208701610f95565b60006020828403121561143d57600080fd5b815167ffffffffffffffff8082111561145557600080fd5b908301906060828603121561146957600080fd5b60405160608101818110838211171561148457611484611033565b60405282518281111561149657600080fd5b6114a2878286016113e6565b82525060208301516114b381610f6a565b60208201526040830151828111156114ca57600080fd5b6114d6878286016113e6565b60408301525095945050505050565b6040815260006114f86040830185610fb9565b828103602084015261102a8185610fb9565b600181811c9082168061151e57607f821691505b60208210810361153e57634e487b7160e01b600052602260045260246000fd5b50919050565b601f8211156108f757600081815260208120601f850160051c8101602086101561156b5750805b601f850160051c820191505b8181101561158a57828155600101611577565b505050505050565b67ffffffffffffffff8311156115aa576115aa611033565b6115be836115b8835461150a565b83611544565b6000601f8411600181146115f257600085156115da5750838201355b600019600387901b1c1916600186901b17835561164c565b600083815260209020601f19861690835b828110156116235786850135825560209485019460019092019101611603565b50868210156116405760001960f88860031b161c19848701351681555b505060018560011b0183555b5050505050565b8215158152604060208201526000610aa46040830184610fb9565b6060815260006116816060830186610fb9565b8415156020840152828103604084015261169b8185610fb9565b969550505050505056fea2646970667358221220ffbeb707883ad0630d6693ba538acaf281067cc7cb78b5a9315b94691419f30664736f6c634300081200330000000000000000000000003340ac0cafb3ae34ddd53dba0d7344c1cf3efe05",
			"opcodes": "PUSH1 0x80 PUSH1 0x40 MSTORE CALLVALUE DUP1 ISZERO PUSH3 0x11 JUMPI PUSH1 0x0 DUP1 REVERT JUMPDEST POP PUSH1 0x5 DUP1 SLOAD PUSH1 0x1 PUSH1 0x1 PUSH1 0x80 SHL SUB NOT AND PUSH16 0xD345943DB0A9C43788A850B039560E05 OR SWAP1 SSTORE PUSH1 0x40 DUP1 MLOAD DUP1 DUP3 ADD DUP3 MSTORE PUSH1 0x17 DUP2 MSTORE PUSH32 0x7369736D6F436F6E6E65637456657269666965722D7631000000000000000000 PUSH1 0x20 DUP3 ADD MSTORE SWAP1 MLOAD PUSH4 0x349F642F PUSH1 0xE1 SHL DUP2 MSTORE PUSH16 0xD345943DB0A9C43788A850B039560E05 PUSH1 0x80 SHL SWAP2 PUSH1 0x0 DUP1 MLOAD PUSH1 0x20 PUSH3 0x1C01 DUP4 CODECOPY DUP2 MLOAD SWAP2 MSTORE SWAP2 PUSH4 0x693EC85E SWAP2 PUSH3 0xAD SWAP2 PUSH1 0x4 ADD PUSH3 0x494 JUMP JUMPDEST PUSH1 0x20 PUSH1 0x40 MLOAD DUP1 DUP4 SUB DUP2 DUP7 GAS STATICCALL ISZERO DUP1 ISZERO PUSH3 0xCB JUMPI RETURNDATASIZE PUSH1 0x0 DUP1 RETURNDATACOPY RETURNDATASIZE PUSH1 0x0 REVERT JUMPDEST POP POP POP POP PUSH1 0x40 MLOAD RETURNDATASIZE PUSH1 0x1F NOT PUSH1 0x1F DUP3 ADD AND DUP3 ADD DUP1 PUSH1 0x40 MSTORE POP DUP2 ADD SWAP1 PUSH3 0xF1 SWAP2 SWAP1 PUSH3 0x4E4 JUMP JUMPDEST PUSH1 0x0 DUP1 SLOAD PUSH1 0x1 PUSH1 0x1 PUSH1 0xA0 SHL SUB NOT AND PUSH1 0x1 PUSH1 0x1 PUSH1 0xA0 SHL SUB SWAP3 SWAP1 SWAP3 AND SWAP2 SWAP1 SWAP2 OR SWAP1 SSTORE PUSH1 0x40 DUP1 MLOAD DUP1 DUP3 ADD DUP3 MSTORE PUSH1 0x15 DUP2 MSTORE PUSH32 0x61757468526571756573744275696C6465722D76310000000000000000000000 PUSH1 0x20 DUP3 ADD MSTORE SWAP1 MLOAD PUSH4 0x349F642F PUSH1 0xE1 SHL DUP2 MSTORE PUSH1 0x0 DUP1 MLOAD PUSH1 0x20 PUSH3 0x1C01 DUP4 CODECOPY DUP2 MLOAD SWAP2 MSTORE SWAP2 PUSH4 0x693EC85E SWAP2 PUSH3 0x176 SWAP2 SWAP1 PUSH1 0x4 ADD PUSH3 0x494 JUMP JUMPDEST PUSH1 0x20 PUSH1 0x40 MLOAD DUP1 DUP4 SUB DUP2 DUP7 GAS STATICCALL ISZERO DUP1 ISZERO PUSH3 0x194 JUMPI RETURNDATASIZE PUSH1 0x0 DUP1 RETURNDATACOPY RETURNDATASIZE PUSH1 0x0 REVERT JUMPDEST POP POP POP POP PUSH1 0x40 MLOAD RETURNDATASIZE PUSH1 0x1F NOT PUSH1 0x1F DUP3 ADD AND DUP3 ADD DUP1 PUSH1 0x40 MSTORE POP DUP2 ADD SWAP1 PUSH3 0x1BA SWAP2 SWAP1 PUSH3 0x4E4 JUMP JUMPDEST PUSH1 0x1 DUP1 SLOAD PUSH1 0x1 PUSH1 0x1 PUSH1 0xA0 SHL SUB NOT AND PUSH1 0x1 PUSH1 0x1 PUSH1 0xA0 SHL SUB SWAP3 SWAP1 SWAP3 AND SWAP2 SWAP1 SWAP2 OR SWAP1 SSTORE PUSH1 0x40 DUP1 MLOAD DUP1 DUP3 ADD DUP3 MSTORE PUSH1 0x16 DUP2 MSTORE PUSH32 0x636C61696D526571756573744275696C6465722D763100000000000000000000 PUSH1 0x20 DUP3 ADD MSTORE SWAP1 MLOAD PUSH4 0x349F642F PUSH1 0xE1 SHL DUP2 MSTORE PUSH1 0x0 DUP1 MLOAD PUSH1 0x20 PUSH3 0x1C01 DUP4 CODECOPY DUP2 MLOAD SWAP2 MSTORE SWAP2 PUSH4 0x693EC85E SWAP2 PUSH3 0x23F SWAP2 SWAP1 PUSH1 0x4 ADD PUSH3 0x494 JUMP JUMPDEST PUSH1 0x20 PUSH1 0x40 MLOAD DUP1 DUP4 SUB DUP2 DUP7 GAS STATICCALL ISZERO DUP1 ISZERO PUSH3 0x25D JUMPI RETURNDATASIZE PUSH1 0x0 DUP1 RETURNDATACOPY RETURNDATASIZE PUSH1 0x0 REVERT JUMPDEST POP POP POP POP PUSH1 0x40 MLOAD RETURNDATASIZE PUSH1 0x1F NOT PUSH1 0x1F DUP3 ADD AND DUP3 ADD DUP1 PUSH1 0x40 MSTORE POP DUP2 ADD SWAP1 PUSH3 0x283 SWAP2 SWAP1 PUSH3 0x4E4 JUMP JUMPDEST PUSH1 0x2 DUP1 SLOAD PUSH1 0x1 PUSH1 0x1 PUSH1 0xA0 SHL SUB NOT AND PUSH1 0x1 PUSH1 0x1 PUSH1 0xA0 SHL SUB SWAP3 SWAP1 SWAP3 AND SWAP2 SWAP1 SWAP2 OR SWAP1 SSTORE PUSH1 0x40 DUP1 MLOAD DUP1 DUP3 ADD DUP3 MSTORE PUSH1 0x13 DUP2 MSTORE PUSH32 0x7369676E61747572654275696C6465722D763100000000000000000000000000 PUSH1 0x20 DUP3 ADD MSTORE SWAP1 MLOAD PUSH4 0x349F642F PUSH1 0xE1 SHL DUP2 MSTORE PUSH1 0x0 DUP1 MLOAD PUSH1 0x20 PUSH3 0x1C01 DUP4 CODECOPY DUP2 MLOAD SWAP2 MSTORE SWAP2 PUSH4 0x693EC85E SWAP2 PUSH3 0x308 SWAP2 SWAP1 PUSH1 0x4 ADD PUSH3 0x494 JUMP JUMPDEST PUSH1 0x20 PUSH1 0x40 MLOAD DUP1 DUP4 SUB DUP2 DUP7 GAS STATICCALL ISZERO DUP1 ISZERO PUSH3 0x326 JUMPI RETURNDATASIZE PUSH1 0x0 DUP1 RETURNDATACOPY RETURNDATASIZE PUSH1 0x0 REVERT JUMPDEST POP POP POP POP PUSH1 0x40 MLOAD RETURNDATASIZE PUSH1 0x1F NOT PUSH1 0x1F DUP3 ADD AND DUP3 ADD DUP1 PUSH1 0x40 MSTORE POP DUP2 ADD SWAP1 PUSH3 0x34C SWAP2 SWAP1 PUSH3 0x4E4 JUMP JUMPDEST PUSH1 0x3 DUP1 SLOAD PUSH1 0x1 PUSH1 0x1 PUSH1 0xA0 SHL SUB NOT AND PUSH1 0x1 PUSH1 0x1 PUSH1 0xA0 SHL SUB SWAP3 SWAP1 SWAP3 AND SWAP2 SWAP1 SWAP2 OR SWAP1 SSTORE PUSH1 0x40 DUP1 MLOAD DUP1 DUP3 ADD DUP3 MSTORE PUSH1 0x11 DUP2 MSTORE PUSH17 0x726571756573744275696C6465722D7631 PUSH1 0x78 SHL PUSH1 0x20 DUP3 ADD MSTORE SWAP1 MLOAD PUSH4 0x349F642F PUSH1 0xE1 SHL DUP2 MSTORE PUSH1 0x0 DUP1 MLOAD PUSH1 0x20 PUSH3 0x1C01 DUP4 CODECOPY DUP2 MLOAD SWAP2 MSTORE SWAP2 PUSH4 0x693EC85E SWAP2 PUSH3 0x3C5 SWAP2 SWAP1 PUSH1 0x4 ADD PUSH3 0x494 JUMP JUMPDEST PUSH1 0x20 PUSH1 0x40 MLOAD DUP1 DUP4 SUB DUP2 DUP7 GAS STATICCALL ISZERO DUP1 ISZERO PUSH3 0x3E3 JUMPI RETURNDATASIZE PUSH1 0x0 DUP1 RETURNDATACOPY RETURNDATASIZE PUSH1 0x0 REVERT JUMPDEST POP POP POP POP PUSH1 0x40 MLOAD RETURNDATASIZE PUSH1 0x1F NOT PUSH1 0x1F DUP3 ADD AND DUP3 ADD DUP1 PUSH1 0x40 MSTORE POP DUP2 ADD SWAP1 PUSH3 0x409 SWAP2 SWAP1 PUSH3 0x4E4 JUMP JUMPDEST PUSH1 0x4 DUP1 SLOAD PUSH1 0x1 PUSH1 0x1 PUSH1 0xA0 SHL SUB NOT AND PUSH1 0x1 PUSH1 0x1 PUSH1 0xA0 SHL SUB SWAP3 SWAP1 SWAP3 AND SWAP2 SWAP1 SWAP2 OR SWAP1 SSTORE POP PUSH3 0x43C PUSH3 0x436 CALLER SWAP1 JUMP JUMPDEST PUSH3 0x442 JUMP JUMPDEST PUSH3 0x516 JUMP JUMPDEST PUSH1 0x6 DUP1 SLOAD PUSH1 0x1 PUSH1 0x1 PUSH1 0xA0 SHL SUB DUP4 DUP2 AND PUSH1 0x1 PUSH1 0x1 PUSH1 0xA0 SHL SUB NOT DUP4 AND DUP2 OR SWAP1 SWAP4 SSTORE PUSH1 0x40 MLOAD SWAP2 AND SWAP2 SWAP1 DUP3 SWAP1 PUSH32 0x8BE0079C531659141344CD1FD0A4F28419497F9722A3DAAFE3B4186F6B6457E0 SWAP1 PUSH1 0x0 SWAP1 LOG3 POP POP JUMP JUMPDEST PUSH1 0x0 PUSH1 0x20 DUP1 DUP4 MSTORE DUP4 MLOAD DUP1 DUP3 DUP6 ADD MSTORE PUSH1 0x0 JUMPDEST DUP2 DUP2 LT ISZERO PUSH3 0x4C3 JUMPI DUP6 DUP2 ADD DUP4 ADD MLOAD DUP6 DUP3 ADD PUSH1 0x40 ADD MSTORE DUP3 ADD PUSH3 0x4A5 JUMP JUMPDEST POP PUSH1 0x0 PUSH1 0x40 DUP3 DUP7 ADD ADD MSTORE PUSH1 0x40 PUSH1 0x1F NOT PUSH1 0x1F DUP4 ADD AND DUP6 ADD ADD SWAP3 POP POP POP SWAP3 SWAP2 POP POP JUMP JUMPDEST PUSH1 0x0 PUSH1 0x20 DUP3 DUP5 SUB SLT ISZERO PUSH3 0x4F7 JUMPI PUSH1 0x0 DUP1 REVERT JUMPDEST DUP2 MLOAD PUSH1 0x1 PUSH1 0x1 PUSH1 0xA0 SHL SUB DUP2 AND DUP2 EQ PUSH3 0x50F JUMPI PUSH1 0x0 DUP1 REVERT JUMPDEST SWAP4 SWAP3 POP POP POP JUMP JUMPDEST PUSH2 0x16DB DUP1 PUSH3 0x526 PUSH1 0x0 CODECOPY PUSH1 0x0 RETURN INVALID PUSH1 0x80 PUSH1 0x40 MSTORE CALLVALUE DUP1 ISZERO PUSH2 0x10 JUMPI PUSH1 0x0 DUP1 REVERT JUMPDEST POP PUSH1 0x4 CALLDATASIZE LT PUSH2 0x12C JUMPI PUSH1 0x0 CALLDATALOAD PUSH1 0xE0 SHR DUP1 PUSH4 0x972DEED6 GT PUSH2 0xAD JUMPI DUP1 PUSH4 0xCEA8EB4E GT PUSH2 0x71 JUMPI DUP1 PUSH4 0xCEA8EB4E EQ PUSH2 0x2D4 JUMPI DUP1 PUSH4 0xD2301C9F EQ PUSH2 0x2E7 JUMPI DUP1 PUSH4 0xE0689703 EQ PUSH2 0x307 JUMPI DUP1 PUSH4 0xE2594B30 EQ PUSH2 0x31A JUMPI DUP1 PUSH4 0xF2FDE38B EQ PUSH2 0x32D JUMPI PUSH1 0x0 DUP1 REVERT JUMPDEST DUP1 PUSH4 0x972DEED6 EQ PUSH2 0x25B JUMPI DUP1 PUSH4 0xBFEE766B EQ PUSH2 0x26E JUMPI DUP1 PUSH4 0xC187BBC1 EQ PUSH2 0x291 JUMPI DUP1 PUSH4 0xC64E2EA5 EQ PUSH2 0x2AB JUMPI DUP1 PUSH4 0xC9512D99 EQ PUSH2 0x2CC JUMPI PUSH1 0x0 DUP1 REVERT JUMPDEST DUP1 PUSH4 0x6821C9A3 GT PUSH2 0xF4 JUMPI DUP1 PUSH4 0x6821C9A3 EQ PUSH2 0x1ED JUMPI DUP1 PUSH4 0x6E01370E EQ PUSH2 0x200 JUMPI DUP1 PUSH4 0x715018A6 EQ PUSH2 0x213 JUMPI DUP1 PUSH4 0x80AFDEA8 EQ PUSH2 0x21B JUMPI DUP1 PUSH4 0x8DA5CB5B EQ PUSH2 0x24A JUMPI PUSH1 0x0 DUP1 REVERT JUMPDEST DUP1 PUSH4 0x542975C EQ PUSH2 0x131 JUMPI DUP1 PUSH4 0xAED32C7 EQ PUSH2 0x169 JUMPI DUP1 PUSH4 0x38C73AEE EQ PUSH2 0x17E JUMPI DUP1 PUSH4 0x405F25AA EQ PUSH2 0x1BA JUMPI DUP1 PUSH4 0x49161195 EQ PUSH2 0x1CD JUMPI JUMPDEST PUSH1 0x0 DUP1 REVERT JUMPDEST PUSH2 0x14C PUSH20 0x3340AC0CAFB3AE34DDD53DBA0D7344C1CF3EFE05 DUP2 JUMP JUMPDEST PUSH1 0x40 MLOAD PUSH1 0x1 PUSH1 0x1 PUSH1 0xA0 SHL SUB SWAP1 SWAP2 AND DUP2 MSTORE PUSH1 0x20 ADD JUMPDEST PUSH1 0x40 MLOAD DUP1 SWAP2 SUB SWAP1 RETURN JUMPDEST PUSH2 0x17C PUSH2 0x177 CALLDATASIZE PUSH1 0x4 PUSH2 0xE6A JUMP JUMPDEST PUSH2 0x340 JUMP JUMPDEST STOP JUMPDEST PUSH2 0x1AA PUSH2 0x18C CALLDATASIZE PUSH1 0x4 PUSH2 0xF13 JUMP JUMPDEST PUSH1 0x1 PUSH1 0x1 PUSH1 0xA0 SHL SUB AND PUSH1 0x0 SWAP1 DUP2 MSTORE PUSH1 0x7 PUSH1 0x20 MSTORE PUSH1 0x40 SWAP1 KECCAK256 SLOAD PUSH1 0xFF AND SWAP1 JUMP JUMPDEST PUSH1 0x40 MLOAD SWAP1 ISZERO ISZERO DUP2 MSTORE PUSH1 0x20 ADD PUSH2 0x160 JUMP JUMPDEST PUSH2 0x17C PUSH2 0x1C8 CALLDATASIZE PUSH1 0x4 PUSH2 0xF2E JUMP JUMPDEST PUSH2 0x482 JUMP JUMPDEST PUSH2 0x1E0 PUSH2 0x1DB CALLDATASIZE PUSH1 0x4 PUSH2 0xF78 JUMP JUMPDEST PUSH2 0x6F6 JUMP JUMPDEST PUSH1 0x40 MLOAD PUSH2 0x160 SWAP2 SWAP1 PUSH2 0xFE5 JUMP JUMPDEST PUSH2 0x17C PUSH2 0x1FB CALLDATASIZE PUSH1 0x4 PUSH2 0xF13 JUMP JUMPDEST PUSH2 0x786 JUMP JUMPDEST PUSH2 0x1E0 PUSH2 0x20E CALLDATASIZE PUSH1 0x4 PUSH2 0x10F8 JUMP JUMPDEST PUSH2 0x7DA JUMP JUMPDEST PUSH2 0x17C PUSH2 0x870 JUMP JUMPDEST PUSH1 0x5 SLOAD PUSH2 0x228 SWAP1 PUSH1 0x80 SHL DUP2 JUMP JUMPDEST PUSH1 0x40 MLOAD PUSH16 0xFFFFFFFFFFFFFFFFFFFFFFFFFFFFFFFF NOT SWAP1 SWAP2 AND DUP2 MSTORE PUSH1 0x20 ADD PUSH2 0x160 JUMP JUMPDEST PUSH1 0x6 SLOAD PUSH1 0x1 PUSH1 0x1 PUSH1 0xA0 SHL SUB AND PUSH2 0x14C JUMP JUMPDEST PUSH2 0x17C PUSH2 0x269 CALLDATASIZE PUSH1 0x4 PUSH2 0x115C JUMP JUMPDEST PUSH2 0x884 JUMP JUMPDEST PUSH2 0x1AA PUSH2 0x27C CALLDATASIZE PUSH1 0x4 PUSH2 0xF13 JUMP JUMPDEST PUSH1 0x7 PUSH1 0x20 MSTORE PUSH1 0x0 SWAP1 DUP2 MSTORE PUSH1 0x40 SWAP1 KECCAK256 SLOAD PUSH1 0xFF AND DUP2 JUMP JUMPDEST PUSH2 0x228 PUSH16 0xD345943DB0A9C43788A850B039560E05 PUSH1 0x80 SHL DUP2 JUMP JUMPDEST PUSH2 0x2BE PUSH2 0x2B9 CALLDATASIZE PUSH1 0x4 PUSH2 0x11CE JUMP JUMPDEST PUSH2 0x8FC JUMP JUMPDEST PUSH1 0x40 MLOAD SWAP1 DUP2 MSTORE PUSH1 0x20 ADD PUSH2 0x160 JUMP JUMPDEST PUSH2 0x2BE PUSH1 0x2 DUP2 JUMP JUMPDEST PUSH2 0x1E0 PUSH2 0x2E2 CALLDATASIZE PUSH1 0x4 PUSH2 0x1201 JUMP JUMPDEST PUSH2 0x92F JUMP JUMPDEST PUSH2 0x2FA PUSH2 0x2F5 CALLDATASIZE PUSH1 0x4 PUSH2 0xF13 JUMP JUMPDEST PUSH2 0x979 JUMP JUMPDEST PUSH1 0x40 MLOAD PUSH2 0x160 SWAP2 SWAP1 PUSH2 0x1247 JUMP JUMPDEST PUSH2 0x1E0 PUSH2 0x315 CALLDATASIZE PUSH1 0x4 PUSH2 0x125A JUMP JUMPDEST PUSH2 0xA13 JUMP JUMPDEST PUSH2 0x17C PUSH2 0x328 CALLDATASIZE PUSH1 0x4 PUSH2 0x12D2 JUMP JUMPDEST PUSH2 0xAAC JUMP JUMPDEST PUSH2 0x17C PUSH2 0x33B CALLDATASIZE PUSH1 0x4 PUSH2 0xF13 JUMP JUMPDEST PUSH2 0xCF9 JUMP JUMPDEST PUSH2 0x348 PUSH2 0xD72 JUMP JUMPDEST PUSH1 0x0 DUP8 DUP2 MSTORE PUSH1 0x9 PUSH1 0x20 MSTORE PUSH1 0x40 DUP2 KECCAK256 PUSH1 0x1 DUP2 ADD DUP9 SWAP1 SSTORE PUSH1 0x4 DUP2 ADD DUP8 SWAP1 SSTORE SWAP1 JUMPDEST DUP5 DUP2 LT ISZERO PUSH2 0x3D7 JUMPI PUSH1 0x1 DUP3 PUSH1 0x5 ADD PUSH1 0x0 DUP9 DUP9 DUP6 DUP2 DUP2 LT PUSH2 0x388 JUMPI PUSH2 0x388 PUSH2 0x134A JUMP JUMPDEST SWAP1 POP PUSH1 0x20 MUL ADD PUSH1 0x20 DUP2 ADD SWAP1 PUSH2 0x39D SWAP2 SWAP1 PUSH2 0xF13 JUMP JUMPDEST PUSH1 0x1 PUSH1 0x1 PUSH1 0xA0 SHL SUB AND DUP2 MSTORE PUSH1 0x20 DUP2 ADD SWAP2 SWAP1 SWAP2 MSTORE PUSH1 0x40 ADD PUSH1 0x0 KECCAK256 DUP1 SLOAD PUSH1 0xFF NOT AND SWAP2 ISZERO ISZERO SWAP2 SWAP1 SWAP2 OR SWAP1 SSTORE DUP1 PUSH2 0x3CF DUP2 PUSH2 0x1376 JUMP JUMPDEST SWAP2 POP POP PUSH2 0x366 JUMP JUMPDEST POP PUSH1 0x0 JUMPDEST DUP3 DUP2 LT ISZERO PUSH2 0x44C JUMPI PUSH1 0x0 DUP3 PUSH1 0x5 ADD PUSH1 0x0 DUP7 DUP7 DUP6 DUP2 DUP2 LT PUSH2 0x3FD JUMPI PUSH2 0x3FD PUSH2 0x134A JUMP JUMPDEST SWAP1 POP PUSH1 0x20 MUL ADD PUSH1 0x20 DUP2 ADD SWAP1 PUSH2 0x412 SWAP2 SWAP1 PUSH2 0xF13 JUMP JUMPDEST PUSH1 0x1 PUSH1 0x1 PUSH1 0xA0 SHL SUB AND DUP2 MSTORE PUSH1 0x20 DUP2 ADD SWAP2 SWAP1 SWAP2 MSTORE PUSH1 0x40 ADD PUSH1 0x0 KECCAK256 DUP1 SLOAD PUSH1 0xFF NOT AND SWAP2 ISZERO ISZERO SWAP2 SWAP1 SWAP2 OR SWAP1 SSTORE DUP1 PUSH2 0x444 DUP2 PUSH2 0x1376 JUMP JUMPDEST SWAP2 POP POP PUSH2 0x3DB JUMP JUMPDEST POP PUSH1 0x40 MLOAD DUP9 SWAP1 PUSH32 0xD3973DF93F68E12513B578087854CFE3053D0833CDD737BB42D9745E64BDD325 SWAP1 PUSH1 0x0 SWAP1 LOG2 POP POP POP POP POP POP POP POP JUMP JUMPDEST CALLER PUSH1 0x0 SWAP1 DUP2 MSTORE PUSH1 0x7 PUSH1 0x20 MSTORE PUSH1 0x40 SWAP1 KECCAK256 SLOAD PUSH1 0xFF AND PUSH2 0x4E0 JUMPI PUSH1 0x40 MLOAD PUSH3 0x461BCD PUSH1 0xE5 SHL DUP2 MSTORE PUSH1 0x20 PUSH1 0x4 DUP3 ADD MSTORE PUSH1 0x17 PUSH1 0x24 DUP3 ADD MSTORE PUSH23 0x4E6F74206120766572696669656420656D706C6F796565 PUSH1 0x48 SHL PUSH1 0x44 DUP3 ADD MSTORE PUSH1 0x64 ADD JUMPDEST PUSH1 0x40 MLOAD DUP1 SWAP2 SUB SWAP1 REVERT JUMPDEST PUSH1 0x0 DUP4 CALLER PUSH1 0x40 MLOAD PUSH1 0x20 ADD PUSH2 0x4F5 SWAP3 SWAP2 SWAP1 PUSH2 0x138F JUMP JUMPDEST PUSH1 0x40 DUP1 MLOAD PUSH1 0x1F NOT DUP2 DUP5 SUB ADD DUP2 MSTORE SWAP2 DUP2 MSTORE DUP2 MLOAD PUSH1 0x20 SWAP3 DUP4 ADD KECCAK256 PUSH1 0x0 DUP2 DUP2 MSTORE PUSH1 0x9 SWAP1 SWAP4 MSTORE SWAP2 KECCAK256 PUSH1 0x4 DUP2 ADD SLOAD PUSH1 0x3 DUP3 ADD SLOAD SWAP3 SWAP4 POP SWAP1 SWAP2 TIMESTAMP SWAP2 PUSH2 0x533 SWAP2 PUSH2 0x13B6 JUMP JUMPDEST GT PUSH2 0x574 JUMPI PUSH1 0x40 MLOAD PUSH3 0x461BCD PUSH1 0xE5 SHL DUP2 MSTORE PUSH1 0x20 PUSH1 0x4 DUP3 ADD MSTORE PUSH1 0x11 PUSH1 0x24 DUP3 ADD MSTORE PUSH17 0x141C9BDD9A5CDA5BDB88195E1C1A5C9959 PUSH1 0x7A SHL PUSH1 0x44 DUP3 ADD MSTORE PUSH1 0x64 ADD PUSH2 0x4D7 JUMP JUMPDEST DUP4 DUP2 PUSH1 0x1 ADD SLOAD LT ISZERO PUSH2 0x5D4 JUMPI PUSH1 0x40 MLOAD PUSH3 0x461BCD PUSH1 0xE5 SHL DUP2 MSTORE PUSH1 0x20 PUSH1 0x4 DUP3 ADD MSTORE PUSH1 0x23 PUSH1 0x24 DUP3 ADD MSTORE PUSH32 0x547279696E6720746F207370656E64206D6F7265207468616E2070726F766973 PUSH1 0x44 DUP3 ADD MSTORE PUSH3 0x34B7B7 PUSH1 0xE9 SHL PUSH1 0x64 DUP3 ADD MSTORE PUSH1 0x84 ADD PUSH2 0x4D7 JUMP JUMPDEST PUSH1 0x1 PUSH1 0x1 PUSH1 0xA0 SHL SUB DUP4 AND PUSH1 0x0 SWAP1 DUP2 MSTORE PUSH1 0x5 DUP3 ADD PUSH1 0x20 MSTORE PUSH1 0x40 SWAP1 KECCAK256 SLOAD PUSH1 0xFF AND ISZERO ISZERO PUSH1 0x1 EQ PUSH2 0x643 JUMPI PUSH1 0x40 MLOAD PUSH3 0x461BCD PUSH1 0xE5 SHL DUP2 MSTORE PUSH1 0x20 PUSH1 0x4 DUP3 ADD MSTORE PUSH1 0x1A PUSH1 0x24 DUP3 ADD MSTORE PUSH32 0x526563697069656E74206E6F74206F6E20616C6C6F776C697374000000000000 PUSH1 0x44 DUP3 ADD MSTORE PUSH1 0x64 ADD PUSH2 0x4D7 JUMP JUMPDEST PUSH1 0x40 MLOAD PUSH4 0xA9059CBB PUSH1 0xE0 SHL DUP2 MSTORE PUSH1 0x1 PUSH1 0x1 PUSH1 0xA0 SHL SUB DUP5 DUP2 AND PUSH1 0x4 DUP4 ADD MSTORE PUSH1 0x24 DUP3 ADD DUP7 SWAP1 MSTORE DUP7 AND SWAP1 PUSH4 0xA9059CBB SWAP1 PUSH1 0x44 ADD PUSH1 0x20 PUSH1 0x40 MLOAD DUP1 DUP4 SUB DUP2 PUSH1 0x0 DUP8 GAS CALL ISZERO DUP1 ISZERO PUSH2 0x692 JUMPI RETURNDATASIZE PUSH1 0x0 DUP1 RETURNDATACOPY RETURNDATASIZE PUSH1 0x0 REVERT JUMPDEST POP POP POP POP PUSH1 0x40 MLOAD RETURNDATASIZE PUSH1 0x1F NOT PUSH1 0x1F DUP3 ADD AND DUP3 ADD DUP1 PUSH1 0x40 MSTORE POP DUP2 ADD SWAP1 PUSH2 0x6B6 SWAP2 SWAP1 PUSH2 0x13C9 JUMP JUMPDEST POP DUP3 PUSH1 0x1 PUSH1 0x1 PUSH1 0xA0 SHL SUB AND DUP5 DUP4 PUSH32 0xFED4C996F9A5A74907D3286E9A31755D17CF5D72F3FF3D442EA799E8636CD574 PUSH1 0x40 MLOAD PUSH1 0x40 MLOAD DUP1 SWAP2 SUB SWAP1 LOG4 POP POP POP POP POP JUMP JUMPDEST PUSH1 0x40 DUP1 MLOAD PUSH1 0x60 DUP1 DUP3 ADD DUP4 MSTORE DUP1 DUP3 MSTORE PUSH1 0x0 PUSH1 0x20 DUP4 ADD MSTORE DUP2 DUP4 ADD MSTORE PUSH1 0x3 SLOAD SWAP2 MLOAD PUSH4 0x1F6C2B97 PUSH1 0xE1 SHL DUP2 MSTORE DUP4 ISZERO ISZERO PUSH1 0x4 DUP3 ADD MSTORE SWAP1 SWAP2 PUSH1 0x1 PUSH1 0x1 PUSH1 0xA0 SHL SUB AND SWAP1 PUSH4 0x3ED8572E SWAP1 PUSH1 0x24 ADD PUSH1 0x0 PUSH1 0x40 MLOAD DUP1 DUP4 SUB DUP2 DUP7 GAS STATICCALL ISZERO DUP1 ISZERO PUSH2 0x758 JUMPI RETURNDATASIZE PUSH1 0x0 DUP1 RETURNDATACOPY RETURNDATASIZE PUSH1 0x0 REVERT JUMPDEST POP POP POP POP PUSH1 0x40 MLOAD RETURNDATASIZE PUSH1 0x0 DUP3 RETURNDATACOPY PUSH1 0x1F RETURNDATASIZE SWAP1 DUP2 ADD PUSH1 0x1F NOT AND DUP3 ADD PUSH1 0x40 MSTORE PUSH2 0x780 SWAP2 SWAP1 DUP2 ADD SWAP1 PUSH2 0x142B JUMP JUMPDEST SWAP3 SWAP2 POP POP JUMP JUMPDEST PUSH2 0x78E PUSH2 0xD72 JUMP JUMPDEST PUSH1 0x1 PUSH1 0x1 PUSH1 0xA0 SHL SUB DUP2 AND PUSH1 0x0 DUP2 DUP2 MSTORE PUSH1 0x7 PUSH1 0x20 MSTORE PUSH1 0x40 DUP1 DUP3 KECCAK256 DUP1 SLOAD PUSH1 0xFF NOT AND PUSH1 0x1 OR SWAP1 SSTORE MLOAD PUSH32 0x3B026FFC6936DC375A71D755B60B668F20AE8D41F7EBBA0A732E750F8CD2929E SWAP2 SWAP1 LOG2 POP JUMP JUMPDEST PUSH1 0x40 DUP1 MLOAD PUSH1 0x60 DUP1 DUP3 ADD DUP4 MSTORE DUP1 DUP3 MSTORE PUSH1 0x0 PUSH1 0x20 DUP4 ADD MSTORE DUP2 DUP4 ADD MSTORE PUSH1 0x3 SLOAD SWAP2 MLOAD PUSH4 0x1778ED13 PUSH1 0xE2 SHL DUP2 MSTORE SWAP1 SWAP2 PUSH1 0x1 PUSH1 0x1 PUSH1 0xA0 SHL SUB AND SWAP1 PUSH4 0x5DE3B44C SWAP1 PUSH2 0x824 SWAP1 DUP7 SWAP1 DUP7 SWAP1 PUSH1 0x4 ADD PUSH2 0x14E5 JUMP JUMPDEST PUSH1 0x0 PUSH1 0x40 MLOAD DUP1 DUP4 SUB DUP2 DUP7 GAS STATICCALL ISZERO DUP1 ISZERO PUSH2 0x841 JUMPI RETURNDATASIZE PUSH1 0x0 DUP1 RETURNDATACOPY RETURNDATASIZE PUSH1 0x0 REVERT JUMPDEST POP POP POP POP PUSH1 0x40 MLOAD RETURNDATASIZE PUSH1 0x0 DUP3 RETURNDATACOPY PUSH1 0x1F RETURNDATASIZE SWAP1 DUP2 ADD PUSH1 0x1F NOT AND DUP3 ADD PUSH1 0x40 MSTORE PUSH2 0x869 SWAP2 SWAP1 DUP2 ADD SWAP1 PUSH2 0x142B JUMP JUMPDEST SWAP4 SWAP3 POP POP POP JUMP JUMPDEST PUSH2 0x878 PUSH2 0xD72 JUMP JUMPDEST PUSH2 0x882 PUSH1 0x0 PUSH2 0xDCC JUMP JUMPDEST JUMP JUMPDEST CALLER PUSH1 0x0 SWAP1 DUP2 MSTORE PUSH1 0x7 PUSH1 0x20 MSTORE PUSH1 0x40 SWAP1 KECCAK256 SLOAD PUSH1 0xFF AND PUSH2 0x8DD JUMPI PUSH1 0x40 MLOAD PUSH3 0x461BCD PUSH1 0xE5 SHL DUP2 MSTORE PUSH1 0x20 PUSH1 0x4 DUP3 ADD MSTORE PUSH1 0x17 PUSH1 0x24 DUP3 ADD MSTORE PUSH23 0x4E6F74206120766572696669656420656D706C6F796565 PUSH1 0x48 SHL PUSH1 0x44 DUP3 ADD MSTORE PUSH1 0x64 ADD PUSH2 0x4D7 JUMP JUMPDEST CALLER PUSH1 0x0 SWAP1 DUP2 MSTORE PUSH1 0xA PUSH1 0x20 MSTORE PUSH1 0x40 SWAP1 KECCAK256 PUSH2 0x8F7 DUP3 DUP5 DUP4 PUSH2 0x1592 JUMP JUMPDEST POP POP POP JUMP JUMPDEST PUSH1 0x0 DUP3 DUP3 PUSH1 0x40 MLOAD PUSH1 0x20 ADD PUSH2 0x911 SWAP3 SWAP2 SWAP1 PUSH2 0x138F JUMP JUMPDEST PUSH1 0x40 MLOAD PUSH1 0x20 DUP2 DUP4 SUB SUB DUP2 MSTORE SWAP1 PUSH1 0x40 MSTORE DUP1 MLOAD SWAP1 PUSH1 0x20 ADD KECCAK256 SWAP1 POP SWAP3 SWAP2 POP POP JUMP JUMPDEST PUSH1 0x40 DUP1 MLOAD PUSH1 0x60 DUP1 DUP3 ADD DUP4 MSTORE DUP1 DUP3 MSTORE PUSH1 0x0 PUSH1 0x20 DUP4 ADD MSTORE DUP2 DUP4 ADD MSTORE PUSH1 0x3 SLOAD SWAP2 MLOAD PUSH4 0x1D1DB46B PUSH1 0xE2 SHL DUP2 MSTORE SWAP1 SWAP2 PUSH1 0x1 PUSH1 0x1 PUSH1 0xA0 SHL SUB AND SWAP1 PUSH4 0x7476D1AC SWAP1 PUSH2 0x824 SWAP1 DUP7 SWAP1 DUP7 SWAP1 PUSH1 0x4 ADD PUSH2 0x1653 JUMP JUMPDEST PUSH1 0xA PUSH1 0x20 MSTORE PUSH1 0x0 SWAP1 DUP2 MSTORE PUSH1 0x40 SWAP1 KECCAK256 DUP1 SLOAD PUSH2 0x992 SWAP1 PUSH2 0x150A JUMP JUMPDEST DUP1 PUSH1 0x1F ADD PUSH1 0x20 DUP1 SWAP2 DIV MUL PUSH1 0x20 ADD PUSH1 0x40 MLOAD SWAP1 DUP2 ADD PUSH1 0x40 MSTORE DUP1 SWAP3 SWAP2 SWAP1 DUP2 DUP2 MSTORE PUSH1 0x20 ADD DUP3 DUP1 SLOAD PUSH2 0x9BE SWAP1 PUSH2 0x150A JUMP JUMPDEST DUP1 ISZERO PUSH2 0xA0B JUMPI DUP1 PUSH1 0x1F LT PUSH2 0x9E0 JUMPI PUSH2 0x100 DUP1 DUP4 SLOAD DIV MUL DUP4 MSTORE SWAP2 PUSH1 0x20 ADD SWAP2 PUSH2 0xA0B JUMP JUMPDEST DUP3 ADD SWAP2 SWAP1 PUSH1 0x0 MSTORE PUSH1 0x20 PUSH1 0x0 KECCAK256 SWAP1 JUMPDEST DUP2 SLOAD DUP2 MSTORE SWAP1 PUSH1 0x1 ADD SWAP1 PUSH1 0x20 ADD DUP1 DUP4 GT PUSH2 0x9EE JUMPI DUP3 SWAP1 SUB PUSH1 0x1F AND DUP3 ADD SWAP2 JUMPDEST POP POP POP POP POP DUP2 JUMP JUMPDEST PUSH1 0x40 DUP1 MLOAD PUSH1 0x60 DUP1 DUP3 ADD DUP4 MSTORE DUP1 DUP3 MSTORE PUSH1 0x0 PUSH1 0x20 DUP4 ADD MSTORE DUP2 DUP4 ADD MSTORE PUSH1 0x3 SLOAD SWAP2 MLOAD PUSH4 0x1F785C95 PUSH1 0xE0 SHL DUP2 MSTORE SWAP1 SWAP2 PUSH1 0x1 PUSH1 0x1 PUSH1 0xA0 SHL SUB AND SWAP1 PUSH4 0x1F785C95 SWAP1 PUSH2 0xA5F SWAP1 DUP8 SWAP1 DUP8 SWAP1 DUP8 SWAP1 PUSH1 0x4 ADD PUSH2 0x166E JUMP JUMPDEST PUSH1 0x0 PUSH1 0x40 MLOAD DUP1 DUP4 SUB DUP2 DUP7 GAS STATICCALL ISZERO DUP1 ISZERO PUSH2 0xA7C JUMPI RETURNDATASIZE PUSH1 0x0 DUP1 RETURNDATACOPY RETURNDATASIZE PUSH1 0x0 REVERT JUMPDEST POP POP POP POP PUSH1 0x40 MLOAD RETURNDATASIZE PUSH1 0x0 DUP3 RETURNDATACOPY PUSH1 0x1F RETURNDATASIZE SWAP1 DUP2 ADD PUSH1 0x1F NOT AND DUP3 ADD PUSH1 0x40 MSTORE PUSH2 0xAA4 SWAP2 SWAP1 DUP2 ADD SWAP1 PUSH2 0x142B JUMP JUMPDEST SWAP5 SWAP4 POP POP POP POP JUMP JUMPDEST PUSH2 0xAB4 PUSH2 0xD72 JUMP JUMPDEST PUSH1 0x1 PUSH1 0x1 PUSH1 0xA0 SHL SUB DUP5 AND PUSH1 0x0 SWAP1 DUP2 MSTORE PUSH1 0x7 PUSH1 0x20 MSTORE PUSH1 0x40 SWAP1 KECCAK256 SLOAD PUSH1 0xFF AND PUSH2 0xB2C JUMPI PUSH1 0x40 MLOAD PUSH3 0x461BCD PUSH1 0xE5 SHL DUP2 MSTORE PUSH1 0x20 PUSH1 0x4 DUP3 ADD MSTORE PUSH1 0x27 PUSH1 0x24 DUP3 ADD MSTORE PUSH32 0x43616E206F6E6C792070726F766973696F6E20746F2076657269666965642065 PUSH1 0x44 DUP3 ADD MSTORE PUSH7 0x6D706C6F796565 PUSH1 0xC8 SHL PUSH1 0x64 DUP3 ADD MSTORE PUSH1 0x84 ADD PUSH2 0x4D7 JUMP JUMPDEST PUSH1 0x40 MLOAD PUSH4 0x23B872DD PUSH1 0xE0 SHL DUP2 MSTORE CALLER PUSH1 0x4 DUP3 ADD MSTORE ADDRESS PUSH1 0x24 DUP3 ADD MSTORE PUSH1 0x44 DUP2 ADD DUP7 SWAP1 MSTORE PUSH1 0x1 PUSH1 0x1 PUSH1 0xA0 SHL SUB DUP8 AND SWAP1 PUSH4 0x23B872DD SWAP1 PUSH1 0x64 ADD PUSH1 0x20 PUSH1 0x40 MLOAD DUP1 DUP4 SUB DUP2 PUSH1 0x0 DUP8 GAS CALL ISZERO DUP1 ISZERO PUSH2 0xB7F JUMPI RETURNDATASIZE PUSH1 0x0 DUP1 RETURNDATACOPY RETURNDATASIZE PUSH1 0x0 REVERT JUMPDEST POP POP POP POP PUSH1 0x40 MLOAD RETURNDATASIZE PUSH1 0x1F NOT PUSH1 0x1F DUP3 ADD AND DUP3 ADD DUP1 PUSH1 0x40 MSTORE POP DUP2 ADD SWAP1 PUSH2 0xBA3 SWAP2 SWAP1 PUSH2 0x13C9 JUMP JUMPDEST POP PUSH1 0x0 DUP7 DUP6 PUSH1 0x40 MLOAD PUSH1 0x20 ADD PUSH2 0xBB9 SWAP3 SWAP2 SWAP1 PUSH2 0x138F JUMP JUMPDEST PUSH1 0x40 DUP1 MLOAD PUSH1 0x1F NOT DUP2 DUP5 SUB ADD DUP2 MSTORE SWAP2 DUP2 MSTORE DUP2 MLOAD PUSH1 0x20 SWAP3 DUP4 ADD KECCAK256 PUSH1 0x1 PUSH1 0x1 PUSH1 0xA0 SHL SUB DUP1 DUP10 AND PUSH1 0x0 DUP2 DUP2 MSTORE PUSH1 0x8 DUP7 MSTORE DUP5 DUP2 KECCAK256 DUP5 DUP3 MSTORE DUP7 MSTORE DUP5 DUP2 KECCAK256 DUP1 SLOAD PUSH1 0xFF NOT AND PUSH1 0x1 SWAP1 DUP2 OR SWAP1 SWAP2 SSTORE PUSH1 0x9 SWAP1 SWAP7 MSTORE SWAP4 DUP5 KECCAK256 DUP1 SLOAD SWAP3 DUP14 AND PUSH1 0x1 PUSH1 0x1 PUSH1 0xA0 SHL SUB NOT SWAP4 DUP5 AND OR DUP2 SSTORE SWAP5 DUP6 ADD DUP12 SWAP1 SSTORE PUSH1 0x2 DUP6 ADD DUP1 SLOAD SWAP1 SWAP3 AND OR SWAP1 SSTORE TIMESTAMP PUSH1 0x3 DUP5 ADD SSTORE PUSH1 0x4 DUP4 ADD DUP8 SWAP1 SSTORE SWAP3 POP JUMPDEST DUP4 DUP2 LT ISZERO PUSH2 0xCAD JUMPI PUSH1 0x1 DUP3 PUSH1 0x5 ADD PUSH1 0x0 DUP8 DUP8 DUP6 DUP2 DUP2 LT PUSH2 0xC5E JUMPI PUSH2 0xC5E PUSH2 0x134A JUMP JUMPDEST SWAP1 POP PUSH1 0x20 MUL ADD PUSH1 0x20 DUP2 ADD SWAP1 PUSH2 0xC73 SWAP2 SWAP1 PUSH2 0xF13 JUMP JUMPDEST PUSH1 0x1 PUSH1 0x1 PUSH1 0xA0 SHL SUB AND DUP2 MSTORE PUSH1 0x20 DUP2 ADD SWAP2 SWAP1 SWAP2 MSTORE PUSH1 0x40 ADD PUSH1 0x0 KECCAK256 DUP1 SLOAD PUSH1 0xFF NOT AND SWAP2 ISZERO ISZERO SWAP2 SWAP1 SWAP2 OR SWAP1 SSTORE DUP1 PUSH2 0xCA5 DUP2 PUSH2 0x1376 JUMP JUMPDEST SWAP2 POP POP PUSH2 0xC3C JUMP JUMPDEST POP DUP6 PUSH1 0x1 PUSH1 0x1 PUSH1 0xA0 SHL SUB AND DUP9 PUSH1 0x1 PUSH1 0x1 PUSH1 0xA0 SHL SUB AND DUP4 PUSH32 0x1D5B0515AE7F45E3F6D62D22EBFC1913F698C59359F46CD2319311B6A3F38E70 PUSH1 0x40 MLOAD PUSH1 0x40 MLOAD DUP1 SWAP2 SUB SWAP1 LOG4 POP POP POP POP POP POP POP POP JUMP JUMPDEST PUSH2 0xD01 PUSH2 0xD72 JUMP JUMPDEST PUSH1 0x1 PUSH1 0x1 PUSH1 0xA0 SHL SUB DUP2 AND PUSH2 0xD66 JUMPI PUSH1 0x40 MLOAD PUSH3 0x461BCD PUSH1 0xE5 SHL DUP2 MSTORE PUSH1 0x20 PUSH1 0x4 DUP3 ADD MSTORE PUSH1 0x26 PUSH1 0x24 DUP3 ADD MSTORE PUSH32 0x4F776E61626C653A206E6577206F776E657220697320746865207A65726F2061 PUSH1 0x44 DUP3 ADD MSTORE PUSH6 0x646472657373 PUSH1 0xD0 SHL PUSH1 0x64 DUP3 ADD MSTORE PUSH1 0x84 ADD PUSH2 0x4D7 JUMP JUMPDEST PUSH2 0xD6F DUP2 PUSH2 0xDCC JUMP JUMPDEST POP JUMP JUMPDEST PUSH1 0x6 SLOAD PUSH1 0x1 PUSH1 0x1 PUSH1 0xA0 SHL SUB AND CALLER EQ PUSH2 0x882 JUMPI PUSH1 0x40 MLOAD PUSH3 0x461BCD PUSH1 0xE5 SHL DUP2 MSTORE PUSH1 0x20 PUSH1 0x4 DUP3 ADD DUP2 SWAP1 MSTORE PUSH1 0x24 DUP3 ADD MSTORE PUSH32 0x4F776E61626C653A2063616C6C6572206973206E6F7420746865206F776E6572 PUSH1 0x44 DUP3 ADD MSTORE PUSH1 0x64 ADD PUSH2 0x4D7 JUMP JUMPDEST PUSH1 0x6 DUP1 SLOAD PUSH1 0x1 PUSH1 0x1 PUSH1 0xA0 SHL SUB DUP4 DUP2 AND PUSH1 0x1 PUSH1 0x1 PUSH1 0xA0 SHL SUB NOT DUP4 AND DUP2 OR SWAP1 SWAP4 SSTORE PUSH1 0x40 MLOAD SWAP2 AND SWAP2 SWAP1 DUP3 SWAP1 PUSH32 0x8BE0079C531659141344CD1FD0A4F28419497F9722A3DAAFE3B4186F6B6457E0 SWAP1 PUSH1 0x0 SWAP1 LOG3 POP POP JUMP JUMPDEST PUSH1 0x0 DUP1 DUP4 PUSH1 0x1F DUP5 ADD SLT PUSH2 0xE30 JUMPI PUSH1 0x0 DUP1 REVERT JUMPDEST POP DUP2 CALLDATALOAD PUSH8 0xFFFFFFFFFFFFFFFF DUP2 GT ISZERO PUSH2 0xE48 JUMPI PUSH1 0x0 DUP1 REVERT JUMPDEST PUSH1 0x20 DUP4 ADD SWAP2 POP DUP4 PUSH1 0x20 DUP3 PUSH1 0x5 SHL DUP6 ADD ADD GT ISZERO PUSH2 0xE63 JUMPI PUSH1 0x0 DUP1 REVERT JUMPDEST SWAP3 POP SWAP3 SWAP1 POP JUMP JUMPDEST PUSH1 0x0 DUP1 PUSH1 0x0 DUP1 PUSH1 0x0 DUP1 PUSH1 0x0 PUSH1 0xA0 DUP9 DUP11 SUB SLT ISZERO PUSH2 0xE85 JUMPI PUSH1 0x0 DUP1 REVERT JUMPDEST DUP8 CALLDATALOAD SWAP7 POP PUSH1 0x20 DUP9 ADD CALLDATALOAD SWAP6 POP PUSH1 0x40 DUP9 ADD CALLDATALOAD SWAP5 POP PUSH1 0x60 DUP9 ADD CALLDATALOAD PUSH8 0xFFFFFFFFFFFFFFFF DUP1 DUP3 GT ISZERO PUSH2 0xEB2 JUMPI PUSH1 0x0 DUP1 REVERT JUMPDEST PUSH2 0xEBE DUP12 DUP4 DUP13 ADD PUSH2 0xE1E JUMP JUMPDEST SWAP1 SWAP7 POP SWAP5 POP PUSH1 0x80 DUP11 ADD CALLDATALOAD SWAP2 POP DUP1 DUP3 GT ISZERO PUSH2 0xED7 JUMPI PUSH1 0x0 DUP1 REVERT JUMPDEST POP PUSH2 0xEE4 DUP11 DUP3 DUP12 ADD PUSH2 0xE1E JUMP JUMPDEST SWAP9 SWAP12 SWAP8 SWAP11 POP SWAP6 SWAP9 POP SWAP4 SWAP7 SWAP3 SWAP6 SWAP3 SWAP4 POP POP POP JUMP JUMPDEST DUP1 CALLDATALOAD PUSH1 0x1 PUSH1 0x1 PUSH1 0xA0 SHL SUB DUP2 AND DUP2 EQ PUSH2 0xF0E JUMPI PUSH1 0x0 DUP1 REVERT JUMPDEST SWAP2 SWAP1 POP JUMP JUMPDEST PUSH1 0x0 PUSH1 0x20 DUP3 DUP5 SUB SLT ISZERO PUSH2 0xF25 JUMPI PUSH1 0x0 DUP1 REVERT JUMPDEST PUSH2 0x869 DUP3 PUSH2 0xEF7 JUMP JUMPDEST PUSH1 0x0 DUP1 PUSH1 0x0 PUSH1 0x60 DUP5 DUP7 SUB SLT ISZERO PUSH2 0xF43 JUMPI PUSH1 0x0 DUP1 REVERT JUMPDEST PUSH2 0xF4C DUP5 PUSH2 0xEF7 JUMP JUMPDEST SWAP3 POP PUSH1 0x20 DUP5 ADD CALLDATALOAD SWAP2 POP PUSH2 0xF61 PUSH1 0x40 DUP6 ADD PUSH2 0xEF7 JUMP JUMPDEST SWAP1 POP SWAP3 POP SWAP3 POP SWAP3 JUMP JUMPDEST DUP1 ISZERO ISZERO DUP2 EQ PUSH2 0xD6F JUMPI PUSH1 0x0 DUP1 REVERT JUMPDEST PUSH1 0x0 PUSH1 0x20 DUP3 DUP5 SUB SLT ISZERO PUSH2 0xF8A JUMPI PUSH1 0x0 DUP1 REVERT JUMPDEST DUP2 CALLDATALOAD PUSH2 0x869 DUP2 PUSH2 0xF6A JUMP JUMPDEST PUSH1 0x0 JUMPDEST DUP4 DUP2 LT ISZERO PUSH2 0xFB0 JUMPI DUP2 DUP2 ADD MLOAD DUP4 DUP3 ADD MSTORE PUSH1 0x20 ADD PUSH2 0xF98 JUMP JUMPDEST POP POP PUSH1 0x0 SWAP2 ADD MSTORE JUMP JUMPDEST PUSH1 0x0 DUP2 MLOAD DUP1 DUP5 MSTORE PUSH2 0xFD1 DUP2 PUSH1 0x20 DUP7 ADD PUSH1 0x20 DUP7 ADD PUSH2 0xF95 JUMP JUMPDEST PUSH1 0x1F ADD PUSH1 0x1F NOT AND SWAP3 SWAP1 SWAP3 ADD PUSH1 0x20 ADD SWAP3 SWAP2 POP POP JUMP JUMPDEST PUSH1 0x20 DUP2 MSTORE PUSH1 0x0 DUP3 MLOAD PUSH1 0x60 PUSH1 0x20 DUP5 ADD MSTORE PUSH2 0x1001 PUSH1 0x80 DUP5 ADD DUP3 PUSH2 0xFB9 JUMP JUMPDEST SWAP1 POP PUSH1 0x20 DUP5 ADD MLOAD ISZERO ISZERO PUSH1 0x40 DUP5 ADD MSTORE PUSH1 0x40 DUP5 ADD MLOAD PUSH1 0x1F NOT DUP5 DUP4 SUB ADD PUSH1 0x60 DUP6 ADD MSTORE PUSH2 0x102A DUP3 DUP3 PUSH2 0xFB9 JUMP JUMPDEST SWAP6 SWAP5 POP POP POP POP POP JUMP JUMPDEST PUSH4 0x4E487B71 PUSH1 0xE0 SHL PUSH1 0x0 MSTORE PUSH1 0x41 PUSH1 0x4 MSTORE PUSH1 0x24 PUSH1 0x0 REVERT JUMPDEST PUSH1 0x40 MLOAD PUSH1 0x1F DUP3 ADD PUSH1 0x1F NOT AND DUP2 ADD PUSH8 0xFFFFFFFFFFFFFFFF DUP2 GT DUP3 DUP3 LT OR ISZERO PUSH2 0x1072 JUMPI PUSH2 0x1072 PUSH2 0x1033 JUMP JUMPDEST PUSH1 0x40 MSTORE SWAP2 SWAP1 POP JUMP JUMPDEST PUSH1 0x0 PUSH8 0xFFFFFFFFFFFFFFFF DUP3 GT ISZERO PUSH2 0x1094 JUMPI PUSH2 0x1094 PUSH2 0x1033 JUMP JUMPDEST POP PUSH1 0x1F ADD PUSH1 0x1F NOT AND PUSH1 0x20 ADD SWAP1 JUMP JUMPDEST PUSH1 0x0 DUP3 PUSH1 0x1F DUP4 ADD SLT PUSH2 0x10B3 JUMPI PUSH1 0x0 DUP1 REVERT JUMPDEST DUP2 CALLDATALOAD PUSH2 0x10C6 PUSH2 0x10C1 DUP3 PUSH2 0x107A JUMP JUMPDEST PUSH2 0x1049 JUMP JUMPDEST DUP2 DUP2 MSTORE DUP5 PUSH1 0x20 DUP4 DUP7 ADD ADD GT ISZERO PUSH2 0x10DB JUMPI PUSH1 0x0 DUP1 REVERT JUMPDEST DUP2 PUSH1 0x20 DUP6 ADD PUSH1 0x20 DUP4 ADD CALLDATACOPY PUSH1 0x0 SWAP2 DUP2 ADD PUSH1 0x20 ADD SWAP2 SWAP1 SWAP2 MSTORE SWAP4 SWAP3 POP POP POP JUMP JUMPDEST PUSH1 0x0 DUP1 PUSH1 0x40 DUP4 DUP6 SUB SLT ISZERO PUSH2 0x110B JUMPI PUSH1 0x0 DUP1 REVERT JUMPDEST DUP3 CALLDATALOAD PUSH8 0xFFFFFFFFFFFFFFFF DUP1 DUP3 GT ISZERO PUSH2 0x1123 JUMPI PUSH1 0x0 DUP1 REVERT JUMPDEST PUSH2 0x112F DUP7 DUP4 DUP8 ADD PUSH2 0x10A2 JUMP JUMPDEST SWAP4 POP PUSH1 0x20 DUP6 ADD CALLDATALOAD SWAP2 POP DUP1 DUP3 GT ISZERO PUSH2 0x1145 JUMPI PUSH1 0x0 DUP1 REVERT JUMPDEST POP PUSH2 0x1152 DUP6 DUP3 DUP7 ADD PUSH2 0x10A2 JUMP JUMPDEST SWAP2 POP POP SWAP3 POP SWAP3 SWAP1 POP JUMP JUMPDEST PUSH1 0x0 DUP1 PUSH1 0x20 DUP4 DUP6 SUB SLT ISZERO PUSH2 0x116F JUMPI PUSH1 0x0 DUP1 REVERT JUMPDEST DUP3 CALLDATALOAD PUSH8 0xFFFFFFFFFFFFFFFF DUP1 DUP3 GT ISZERO PUSH2 0x1187 JUMPI PUSH1 0x0 DUP1 REVERT JUMPDEST DUP2 DUP6 ADD SWAP2 POP DUP6 PUSH1 0x1F DUP4 ADD SLT PUSH2 0x119B JUMPI PUSH1 0x0 DUP1 REVERT JUMPDEST DUP2 CALLDATALOAD DUP2 DUP2 GT ISZERO PUSH2 0x11AA JUMPI PUSH1 0x0 DUP1 REVERT JUMPDEST DUP7 PUSH1 0x20 DUP3 DUP6 ADD ADD GT ISZERO PUSH2 0x11BC JUMPI PUSH1 0x0 DUP1 REVERT JUMPDEST PUSH1 0x20 SWAP3 SWAP1 SWAP3 ADD SWAP7 SWAP2 SWAP6 POP SWAP1 SWAP4 POP POP POP POP JUMP JUMPDEST PUSH1 0x0 DUP1 PUSH1 0x40 DUP4 DUP6 SUB SLT ISZERO PUSH2 0x11E1 JUMPI PUSH1 0x0 DUP1 REVERT JUMPDEST PUSH2 0x11EA DUP4 PUSH2 0xEF7 JUMP JUMPDEST SWAP2 POP PUSH2 0x11F8 PUSH1 0x20 DUP5 ADD PUSH2 0xEF7 JUMP JUMPDEST SWAP1 POP SWAP3 POP SWAP3 SWAP1 POP JUMP JUMPDEST PUSH1 0x0 DUP1 PUSH1 0x40 DUP4 DUP6 SUB SLT ISZERO PUSH2 0x1214 JUMPI PUSH1 0x0 DUP1 REVERT JUMPDEST DUP3 CALLDATALOAD PUSH2 0x121F DUP2 PUSH2 0xF6A JUMP JUMPDEST SWAP2 POP PUSH1 0x20 DUP4 ADD CALLDATALOAD PUSH8 0xFFFFFFFFFFFFFFFF DUP2 GT ISZERO PUSH2 0x123B JUMPI PUSH1 0x0 DUP1 REVERT JUMPDEST PUSH2 0x1152 DUP6 DUP3 DUP7 ADD PUSH2 0x10A2 JUMP JUMPDEST PUSH1 0x20 DUP2 MSTORE PUSH1 0x0 PUSH2 0x869 PUSH1 0x20 DUP4 ADD DUP5 PUSH2 0xFB9 JUMP JUMPDEST PUSH1 0x0 DUP1 PUSH1 0x0 PUSH1 0x60 DUP5 DUP7 SUB SLT ISZERO PUSH2 0x126F JUMPI PUSH1 0x0 DUP1 REVERT JUMPDEST DUP4 CALLDATALOAD PUSH8 0xFFFFFFFFFFFFFFFF DUP1 DUP3 GT ISZERO PUSH2 0x1287 JUMPI PUSH1 0x0 DUP1 REVERT JUMPDEST PUSH2 0x1293 DUP8 DUP4 DUP9 ADD PUSH2 0x10A2 JUMP JUMPDEST SWAP5 POP PUSH1 0x20 DUP7 ADD CALLDATALOAD SWAP2 POP PUSH2 0x12A5 DUP3 PUSH2 0xF6A JUMP JUMPDEST SWAP1 SWAP3 POP PUSH1 0x40 DUP6 ADD CALLDATALOAD SWAP1 DUP1 DUP3 GT ISZERO PUSH2 0x12BB JUMPI PUSH1 0x0 DUP1 REVERT JUMPDEST POP PUSH2 0x12C8 DUP7 DUP3 DUP8 ADD PUSH2 0x10A2 JUMP JUMPDEST SWAP2 POP POP SWAP3 POP SWAP3 POP SWAP3 JUMP JUMPDEST PUSH1 0x0 DUP1 PUSH1 0x0 DUP1 PUSH1 0x0 DUP1 PUSH1 0xA0 DUP8 DUP10 SUB SLT ISZERO PUSH2 0x12EB JUMPI PUSH1 0x0 DUP1 REVERT JUMPDEST PUSH2 0x12F4 DUP8 PUSH2 0xEF7 JUMP JUMPDEST SWAP6 POP PUSH1 0x20 DUP8 ADD CALLDATALOAD SWAP5 POP PUSH2 0x1309 PUSH1 0x40 DUP9 ADD PUSH2 0xEF7 JUMP JUMPDEST SWAP4 POP PUSH1 0x60 DUP8 ADD CALLDATALOAD SWAP3 POP PUSH1 0x80 DUP8 ADD CALLDATALOAD PUSH8 0xFFFFFFFFFFFFFFFF DUP2 GT ISZERO PUSH2 0x132C JUMPI PUSH1 0x0 DUP1 REVERT JUMPDEST PUSH2 0x1338 DUP10 DUP3 DUP11 ADD PUSH2 0xE1E JUMP JUMPDEST SWAP8 SWAP11 SWAP7 SWAP10 POP SWAP5 SWAP8 POP SWAP3 SWAP6 SWAP4 SWAP5 SWAP3 POP POP POP JUMP JUMPDEST PUSH4 0x4E487B71 PUSH1 0xE0 SHL PUSH1 0x0 MSTORE PUSH1 0x32 PUSH1 0x4 MSTORE PUSH1 0x24 PUSH1 0x0 REVERT JUMPDEST PUSH4 0x4E487B71 PUSH1 0xE0 SHL PUSH1 0x0 MSTORE PUSH1 0x11 PUSH1 0x4 MSTORE PUSH1 0x24 PUSH1 0x0 REVERT JUMPDEST PUSH1 0x0 PUSH1 0x1 DUP3 ADD PUSH2 0x1388 JUMPI PUSH2 0x1388 PUSH2 0x1360 JUMP JUMPDEST POP PUSH1 0x1 ADD SWAP1 JUMP JUMPDEST PUSH12 0xFFFFFFFFFFFFFFFFFFFFFFFF NOT PUSH1 0x60 SWAP4 DUP5 SHL DUP2 AND DUP3 MSTORE SWAP2 SWAP1 SWAP3 SHL AND PUSH1 0x14 DUP3 ADD MSTORE PUSH1 0x28 ADD SWAP1 JUMP JUMPDEST DUP1 DUP3 ADD DUP1 DUP3 GT ISZERO PUSH2 0x780 JUMPI PUSH2 0x780 PUSH2 0x1360 JUMP JUMPDEST PUSH1 0x0 PUSH1 0x20 DUP3 DUP5 SUB SLT ISZERO PUSH2 0x13DB JUMPI PUSH1 0x0 DUP1 REVERT JUMPDEST DUP2 MLOAD PUSH2 0x869 DUP2 PUSH2 0xF6A JUMP JUMPDEST PUSH1 0x0 DUP3 PUSH1 0x1F DUP4 ADD SLT PUSH2 0x13F7 JUMPI PUSH1 0x0 DUP1 REVERT JUMPDEST DUP2 MLOAD PUSH2 0x1405 PUSH2 0x10C1 DUP3 PUSH2 0x107A JUMP JUMPDEST DUP2 DUP2 MSTORE DUP5 PUSH1 0x20 DUP4 DUP7 ADD ADD GT ISZERO PUSH2 0x141A JUMPI PUSH1 0x0 DUP1 REVERT JUMPDEST PUSH2 0xAA4 DUP3 PUSH1 0x20 DUP4 ADD PUSH1 0x20 DUP8 ADD PUSH2 0xF95 JUMP JUMPDEST PUSH1 0x0 PUSH1 0x20 DUP3 DUP5 SUB SLT ISZERO PUSH2 0x143D JUMPI PUSH1 0x0 DUP1 REVERT JUMPDEST DUP2 MLOAD PUSH8 0xFFFFFFFFFFFFFFFF DUP1 DUP3 GT ISZERO PUSH2 0x1455 JUMPI PUSH1 0x0 DUP1 REVERT JUMPDEST SWAP1 DUP4 ADD SWAP1 PUSH1 0x60 DUP3 DUP7 SUB SLT ISZERO PUSH2 0x1469 JUMPI PUSH1 0x0 DUP1 REVERT JUMPDEST PUSH1 0x40 MLOAD PUSH1 0x60 DUP2 ADD DUP2 DUP2 LT DUP4 DUP3 GT OR ISZERO PUSH2 0x1484 JUMPI PUSH2 0x1484 PUSH2 0x1033 JUMP JUMPDEST PUSH1 0x40 MSTORE DUP3 MLOAD DUP3 DUP2 GT ISZERO PUSH2 0x1496 JUMPI PUSH1 0x0 DUP1 REVERT JUMPDEST PUSH2 0x14A2 DUP8 DUP3 DUP7 ADD PUSH2 0x13E6 JUMP JUMPDEST DUP3 MSTORE POP PUSH1 0x20 DUP4 ADD MLOAD PUSH2 0x14B3 DUP2 PUSH2 0xF6A JUMP JUMPDEST PUSH1 0x20 DUP3 ADD MSTORE PUSH1 0x40 DUP4 ADD MLOAD DUP3 DUP2 GT ISZERO PUSH2 0x14CA JUMPI PUSH1 0x0 DUP1 REVERT JUMPDEST PUSH2 0x14D6 DUP8 DUP3 DUP7 ADD PUSH2 0x13E6 JUMP JUMPDEST PUSH1 0x40 DUP4 ADD MSTORE POP SWAP6 SWAP5 POP POP POP POP POP JUMP JUMPDEST PUSH1 0x40 DUP2 MSTORE PUSH1 0x0 PUSH2 0x14F8 PUSH1 0x40 DUP4 ADD DUP6 PUSH2 0xFB9 JUMP JUMPDEST DUP3 DUP2 SUB PUSH1 0x20 DUP5 ADD MSTORE PUSH2 0x102A DUP2 DUP6 PUSH2 0xFB9 JUMP JUMPDEST PUSH1 0x1 DUP2 DUP2 SHR SWAP1 DUP3 AND DUP1 PUSH2 0x151E JUMPI PUSH1 0x7F DUP3 AND SWAP2 POP JUMPDEST PUSH1 0x20 DUP3 LT DUP2 SUB PUSH2 0x153E JUMPI PUSH4 0x4E487B71 PUSH1 0xE0 SHL PUSH1 0x0 MSTORE PUSH1 0x22 PUSH1 0x4 MSTORE PUSH1 0x24 PUSH1 0x0 REVERT JUMPDEST POP SWAP2 SWAP1 POP JUMP JUMPDEST PUSH1 0x1F DUP3 GT ISZERO PUSH2 0x8F7 JUMPI PUSH1 0x0 DUP2 DUP2 MSTORE PUSH1 0x20 DUP2 KECCAK256 PUSH1 0x1F DUP6 ADD PUSH1 0x5 SHR DUP2 ADD PUSH1 0x20 DUP7 LT ISZERO PUSH2 0x156B JUMPI POP DUP1 JUMPDEST PUSH1 0x1F DUP6 ADD PUSH1 0x5 SHR DUP3 ADD SWAP2 POP JUMPDEST DUP2 DUP2 LT ISZERO PUSH2 0x158A JUMPI DUP3 DUP2 SSTORE PUSH1 0x1 ADD PUSH2 0x1577 JUMP JUMPDEST POP POP POP POP POP POP JUMP JUMPDEST PUSH8 0xFFFFFFFFFFFFFFFF DUP4 GT ISZERO PUSH2 0x15AA JUMPI PUSH2 0x15AA PUSH2 0x1033 JUMP JUMPDEST PUSH2 0x15BE DUP4 PUSH2 0x15B8 DUP4 SLOAD PUSH2 0x150A JUMP JUMPDEST DUP4 PUSH2 0x1544 JUMP JUMPDEST PUSH1 0x0 PUSH1 0x1F DUP5 GT PUSH1 0x1 DUP2 EQ PUSH2 0x15F2 JUMPI PUSH1 0x0 DUP6 ISZERO PUSH2 0x15DA JUMPI POP DUP4 DUP3 ADD CALLDATALOAD JUMPDEST PUSH1 0x0 NOT PUSH1 0x3 DUP8 SWAP1 SHL SHR NOT AND PUSH1 0x1 DUP7 SWAP1 SHL OR DUP4 SSTORE PUSH2 0x164C JUMP JUMPDEST PUSH1 0x0 DUP4 DUP2 MSTORE PUSH1 0x20 SWAP1 KECCAK256 PUSH1 0x1F NOT DUP7 AND SWAP1 DUP4 JUMPDEST DUP3 DUP2 LT ISZERO PUSH2 0x1623 JUMPI DUP7 DUP6 ADD CALLDATALOAD DUP3 SSTORE PUSH1 0x20 SWAP5 DUP6 ADD SWAP5 PUSH1 0x1 SWAP1 SWAP3 ADD SWAP2 ADD PUSH2 0x1603 JUMP JUMPDEST POP DUP7 DUP3 LT ISZERO PUSH2 0x1640 JUMPI PUSH1 0x0 NOT PUSH1 0xF8 DUP9 PUSH1 0x3 SHL AND SHR NOT DUP5 DUP8 ADD CALLDATALOAD AND DUP2 SSTORE JUMPDEST POP POP PUSH1 0x1 DUP6 PUSH1 0x1 SHL ADD DUP4 SSTORE JUMPDEST POP POP POP POP POP JUMP JUMPDEST DUP3 ISZERO ISZERO DUP2 MSTORE PUSH1 0x40 PUSH1 0x20 DUP3 ADD MSTORE PUSH1 0x0 PUSH2 0xAA4 PUSH1 0x40 DUP4 ADD DUP5 PUSH2 0xFB9 JUMP JUMPDEST PUSH1 0x60 DUP2 MSTORE PUSH1 0x0 PUSH2 0x1681 PUSH1 0x60 DUP4 ADD DUP7 PUSH2 0xFB9 JUMP JUMPDEST DUP5 ISZERO ISZERO PUSH1 0x20 DUP5 ADD MSTORE DUP3 DUP2 SUB PUSH1 0x40 DUP5 ADD MSTORE PUSH2 0x169B DUP2 DUP6 PUSH2 0xFB9 JUMP JUMPDEST SWAP7 SWAP6 POP POP POP POP POP POP JUMP INVALID LOG2 PUSH5 0x6970667358 0x22 SLT KECCAK256 SELFDESTRUCT 0xBE 0xB7 SMOD DUP9 GASPRICE 0xD0 PUSH4 0xD6693BA MSTORE8 DUP11 0xCA CALLCODE DUP2 MOD PUSH29 0xC7CB78B5A9315B94691419F30664736F6C634300081200330000000000 STOP STOP STOP STOP STOP STOP STOP CALLER BLOCKHASH 0xAC 0xC 0xAF 0xB3 0xAE CALLVALUE 0xDD 0xD5 RETURNDATASIZE 0xBA 0xD PUSH20 0x44C1CF3EFE050000000000000000000000000000 "
		},
		"gasEstimates": {
			"creation": {
				"codeDepositCost": "1170200",
				"executionCost": "infinite",
				"totalCost": "infinite"
			},
			"external": {
				"ADDRESSES_PROVIDER()": "229",
				"APP_ID()": "280",
				"SISMO_CONNECT_LIB_VERSION()": "306",
				"addVerifiedEmployee(address)": "27942",
				"appId()": "2405",
				"buildSignature(bool)": "infinite",
				"buildSignature(bool,bytes)": "infinite",
				"buildSignature(bytes,bool,bytes)": "infinite",
				"buildSignature(bytes,bytes)": "infinite",
				"employeeRailgunAddr(address)": "infinite",
				"getProvisionId(address,address)": "infinite",
				"isVerifiedEmployee(address)": "2617",
				"owner()": "2431",
				"provideRailgunAddr(string)": "infinite",
				"provisionEmployee(address,uint256,address,uint256,address[])": "infinite",
				"renounceOwnership()": "infinite",
				"spendProvision(address,uint256,address)": "infinite",
				"transferOwnership(address)": "28446",
				"updateProvision(bytes32,uint256,uint256,address[],address[])": "infinite",
				"verifiedEmployees(address)": "2576"
			}
		},
		"methodIdentifiers": {
			"ADDRESSES_PROVIDER()": "0542975c",
			"APP_ID()": "c187bbc1",
			"SISMO_CONNECT_LIB_VERSION()": "c9512d99",
			"addVerifiedEmployee(address)": "6821c9a3",
			"appId()": "80afdea8",
			"buildSignature(bool)": "49161195",
			"buildSignature(bool,bytes)": "cea8eb4e",
			"buildSignature(bytes,bool,bytes)": "e0689703",
			"buildSignature(bytes,bytes)": "6e01370e",
			"employeeRailgunAddr(address)": "d2301c9f",
			"getProvisionId(address,address)": "c64e2ea5",
			"isVerifiedEmployee(address)": "38c73aee",
			"owner()": "8da5cb5b",
			"provideRailgunAddr(string)": "972deed6",
			"provisionEmployee(address,uint256,address,uint256,address[])": "e2594b30",
			"renounceOwnership()": "715018a6",
			"spendProvision(address,uint256,address)": "405f25aa",
			"transferOwnership(address)": "f2fde38b",
			"updateProvision(bytes32,uint256,uint256,address[],address[])": "0aed32c7",
			"verifiedEmployees(address)": "bfee766b"
		}
	},
	"abi": [
		{
			"inputs": [],
			"stateMutability": "nonpayable",
			"type": "constructor"
		},
		{
			"anonymous": false,
			"inputs": [
				{
					"indexed": true,
					"internalType": "address",
					"name": "employee",
					"type": "address"
				}
			],
			"name": "AddVerifiedEmployee",
			"type": "event"
		},
		{
			"anonymous": false,
			"inputs": [
				{
					"indexed": true,
					"internalType": "address",
					"name": "previousOwner",
					"type": "address"
				},
				{
					"indexed": true,
					"internalType": "address",
					"name": "newOwner",
					"type": "address"
				}
			],
			"name": "OwnershipTransferred",
			"type": "event"
		},
		{
			"anonymous": false,
			"inputs": [
				{
					"indexed": true,
					"internalType": "bytes32",
					"name": "id",
					"type": "bytes32"
				},
				{
					"indexed": true,
					"internalType": "address",
					"name": "token",
					"type": "address"
				},
				{
					"indexed": true,
					"internalType": "address",
					"name": "employee",
					"type": "address"
				}
			],
			"name": "ProvisionEmployee",
			"type": "event"
		},
		{
			"anonymous": false,
			"inputs": [
				{
					"indexed": true,
					"internalType": "bytes32",
					"name": "id",
					"type": "bytes32"
				},
				{
					"indexed": true,
					"internalType": "uint256",
					"name": "amount",
					"type": "uint256"
				},
				{
					"indexed": true,
					"internalType": "address",
					"name": "recipient",
					"type": "address"
				}
			],
			"name": "SpendProvision",
			"type": "event"
		},
		{
			"anonymous": false,
			"inputs": [
				{
					"indexed": true,
					"internalType": "bytes32",
					"name": "id",
					"type": "bytes32"
				}
			],
			"name": "UpdateProvision",
			"type": "event"
		},
		{
			"inputs": [],
			"name": "ADDRESSES_PROVIDER",
			"outputs": [
				{
					"internalType": "contract IAddressesProvider",
					"name": "",
					"type": "address"
				}
			],
			"stateMutability": "view",
			"type": "function"
		},
		{
			"inputs": [],
			"name": "APP_ID",
			"outputs": [
				{
					"internalType": "bytes16",
					"name": "",
					"type": "bytes16"
				}
			],
			"stateMutability": "view",
			"type": "function"
		},
		{
			"inputs": [],
			"name": "SISMO_CONNECT_LIB_VERSION",
			"outputs": [
				{
					"internalType": "uint256",
					"name": "",
					"type": "uint256"
				}
			],
			"stateMutability": "view",
			"type": "function"
		},
		{
			"inputs": [
				{
					"internalType": "address",
					"name": "employee",
					"type": "address"
				}
			],
			"name": "addVerifiedEmployee",
			"outputs": [],
			"stateMutability": "nonpayable",
			"type": "function"
		},
		{
			"inputs": [],
			"name": "appId",
			"outputs": [
				{
					"internalType": "bytes16",
					"name": "",
					"type": "bytes16"
				}
			],
			"stateMutability": "view",
			"type": "function"
		},
		{
			"inputs": [
				{
					"internalType": "bool",
					"name": "isSelectableByUser",
					"type": "bool"
				}
			],
			"name": "buildSignature",
			"outputs": [
				{
					"components": [
						{
							"internalType": "bytes",
							"name": "message",
							"type": "bytes"
						},
						{
							"internalType": "bool",
							"name": "isSelectableByUser",
							"type": "bool"
						},
						{
							"internalType": "bytes",
							"name": "extraData",
							"type": "bytes"
						}
					],
					"internalType": "struct SignatureRequest",
					"name": "",
					"type": "tuple"
				}
			],
			"stateMutability": "view",
			"type": "function"
		},
		{
			"inputs": [
				{
					"internalType": "bytes",
					"name": "message",
					"type": "bytes"
				},
				{
					"internalType": "bytes",
					"name": "extraData",
					"type": "bytes"
				}
			],
			"name": "buildSignature",
			"outputs": [
				{
					"components": [
						{
							"internalType": "bytes",
							"name": "message",
							"type": "bytes"
						},
						{
							"internalType": "bool",
							"name": "isSelectableByUser",
							"type": "bool"
						},
						{
							"internalType": "bytes",
							"name": "extraData",
							"type": "bytes"
						}
					],
					"internalType": "struct SignatureRequest",
					"name": "",
					"type": "tuple"
				}
			],
			"stateMutability": "view",
			"type": "function"
		},
		{
			"inputs": [
				{
					"internalType": "bool",
					"name": "isSelectableByUser",
					"type": "bool"
				},
				{
					"internalType": "bytes",
					"name": "extraData",
					"type": "bytes"
				}
			],
			"name": "buildSignature",
			"outputs": [
				{
					"components": [
						{
							"internalType": "bytes",
							"name": "message",
							"type": "bytes"
						},
						{
							"internalType": "bool",
							"name": "isSelectableByUser",
							"type": "bool"
						},
						{
							"internalType": "bytes",
							"name": "extraData",
							"type": "bytes"
						}
					],
					"internalType": "struct SignatureRequest",
					"name": "",
					"type": "tuple"
				}
			],
			"stateMutability": "view",
			"type": "function"
		},
		{
			"inputs": [
				{
					"internalType": "bytes",
					"name": "message",
					"type": "bytes"
				},
				{
					"internalType": "bool",
					"name": "isSelectableByUser",
					"type": "bool"
				},
				{
					"internalType": "bytes",
					"name": "extraData",
					"type": "bytes"
				}
			],
			"name": "buildSignature",
			"outputs": [
				{
					"components": [
						{
							"internalType": "bytes",
							"name": "message",
							"type": "bytes"
						},
						{
							"internalType": "bool",
							"name": "isSelectableByUser",
							"type": "bool"
						},
						{
							"internalType": "bytes",
							"name": "extraData",
							"type": "bytes"
						}
					],
					"internalType": "struct SignatureRequest",
					"name": "",
					"type": "tuple"
				}
			],
			"stateMutability": "view",
			"type": "function"
		},
		{
			"inputs": [
				{
					"internalType": "address",
					"name": "",
					"type": "address"
				}
			],
			"name": "employeeRailgunAddr",
			"outputs": [
				{
					"internalType": "string",
					"name": "",
					"type": "string"
				}
			],
			"stateMutability": "view",
			"type": "function"
		},
		{
			"inputs": [
				{
					"internalType": "address",
					"name": "_user",
					"type": "address"
				},
				{
					"internalType": "address",
					"name": "_token",
					"type": "address"
				}
			],
			"name": "getProvisionId",
			"outputs": [
				{
					"internalType": "bytes32",
					"name": "",
					"type": "bytes32"
				}
			],
			"stateMutability": "pure",
			"type": "function"
		},
		{
			"inputs": [
				{
					"internalType": "address",
					"name": "user",
					"type": "address"
				}
			],
			"name": "isVerifiedEmployee",
			"outputs": [
				{
					"internalType": "bool",
					"name": "",
					"type": "bool"
				}
			],
			"stateMutability": "view",
			"type": "function"
		},
		{
			"inputs": [],
			"name": "owner",
			"outputs": [
				{
					"internalType": "address",
					"name": "",
					"type": "address"
				}
			],
			"stateMutability": "view",
			"type": "function"
		},
		{
			"inputs": [
				{
					"internalType": "string",
					"name": "railgunAddr",
					"type": "string"
				}
			],
			"name": "provideRailgunAddr",
			"outputs": [],
			"stateMutability": "nonpayable",
			"type": "function"
		},
		{
			"inputs": [
				{
					"internalType": "address",
					"name": "_token",
					"type": "address"
				},
				{
					"internalType": "uint256",
					"name": "_amount",
					"type": "uint256"
				},
				{
					"internalType": "address",
					"name": "_employee",
					"type": "address"
				},
				{
					"internalType": "uint256",
					"name": "_expiry",
					"type": "uint256"
				},
				{
					"internalType": "address[]",
					"name": "_allowlist",
					"type": "address[]"
				}
			],
			"name": "provisionEmployee",
			"outputs": [],
			"stateMutability": "nonpayable",
			"type": "function"
		},
		{
			"inputs": [],
			"name": "renounceOwnership",
			"outputs": [],
			"stateMutability": "nonpayable",
			"type": "function"
		},
		{
			"inputs": [
				{
					"internalType": "address",
					"name": "_token",
					"type": "address"
				},
				{
					"internalType": "uint256",
					"name": "_amount",
					"type": "uint256"
				},
				{
					"internalType": "address",
					"name": "_recipient",
					"type": "address"
				}
			],
			"name": "spendProvision",
			"outputs": [],
			"stateMutability": "nonpayable",
			"type": "function"
		},
		{
			"inputs": [
				{
					"internalType": "address",
					"name": "newOwner",
					"type": "address"
				}
			],
			"name": "transferOwnership",
			"outputs": [],
			"stateMutability": "nonpayable",
			"type": "function"
		},
		{
			"inputs": [
				{
					"internalType": "bytes32",
					"name": "_provisionId",
					"type": "bytes32"
				},
				{
					"internalType": "uint256",
					"name": "_amount",
					"type": "uint256"
				},
				{
					"internalType": "uint256",
					"name": "_expiry",
					"type": "uint256"
				},
				{
					"internalType": "address[]",
					"name": "_allowlist",
					"type": "address[]"
				},
				{
					"internalType": "address[]",
					"name": "_denylist",
					"type": "address[]"
				}
			],
			"name": "updateProvision",
			"outputs": [],
			"stateMutability": "nonpayable",
			"type": "function"
		},
		{
			"inputs": [
				{
					"internalType": "address",
					"name": "",
					"type": "address"
				}
			],
			"name": "verifiedEmployees",
			"outputs": [
				{
					"internalType": "bool",
					"name": "",
					"type": "bool"
				}
			],
			"stateMutability": "view",
			"type": "function"
		}
	]
}